:100000000C9454010C944B100C947C100C94AD1077
:100010000C94DE100C940F110C9440110C9471117F
:100020000C94A2110C9485010C9485010C9485010B
:100030000C9485010C9485010C9485010C94850128
:100040000C9485010C9485010C9485010C94850118
:100050000C9485010C9485010C9485010C94D311AA
:100060000C9485010C94C9130C94B9140C9485015B
:100070000C9485010C9485010C9485010C948501E8
:100080000C9485010C9485010C9485010C948501D8
:100090000C94FD130C94F8140C9485010C948501B8
:1000A0000C9485010C9485010C9485010C948501B8
:1000B0000C9485010C9485010C9485010C948501A8
:1000C0000C9485010C9485010C9485010C943114D9
:1000D0000C9437150C9485010C9465140C947615CA
:1000E0000C9485012510EF0FF70F0310101031103D
:1000F0003E100102102020080810204010204080EF
:1001000002010201080402010102040810204080DB
:100110008040201008040201800402018040201069
:1001200008040201080402010102040810204080B2
:100130000102040810204080050505050705080890
:100140000808020202020A0A080804040404010161
:100150000101010101010303030303030303040776
:1001600007070C0C0C0C0C0C0C0C0202020206060D
:100170000606060606060B0B0B0B0B0B0B0B000003
:1001800020002300260029002C002F00320000014F
:1001900000000301060109010000220025002800DB
:1001A0002B002E003100340002010000050108017F
:1001B0000B0100002100240027002A002D00300040
:1001C000330001010000040107010A010C94980B9F
:1001D0000C9486080C949E080C943E100C942003FA
:1001E0000C941D030C948C080C94BC160C942C03DA
:1001F0000C94970D0C94F70F0C9407070C94EC03D8
:100200000C94CD020C94D0020C9437070C94EF019F
:100210000C94F2010C94C2040C94D6050C940F08B3
:100220000C9464030C9472130C9403100C941A0332
:100230000C9423030C942F030C9467130C949208D2
:100240000C9410100C9426030C94FF170C941804B3
:100250000C9498080C9480080C9487010C9431102D
:100260000C9459030C9498140C9418130C942A139E
:100270000C94F5010C945C030C9425100C94EF0F76
:100280000C94D3020C94E5070C94A9010C94290357
:100290000C942B080C9417030C945F030C944513D7
:1002A0000C945503970DBC1611241FBECFEFD1E25D
:1002B000DEBFCDBF00E00CBF14E0A0E0B2E0E6E49A
:1002C000F9E300E00BBF02C007900D92A231B10725
:1002D000D9F71CE0A2E1B4E001C01D92AD3EB10728
:1002E000E1F712E0C8EAD2E000E006C02297010977
:1002F000FE010BBF0E948E1CC43AD10780E00807A4
:10030000A9F70E94F2170C94651A0C940000FC01E6
:10031000DB0182818C93838111968C931197848168
:1003200012968C931297858113968C9313978681DE
:1003300014968C931497878115968C9315978085C6
:1003400016968C931697818517968C9388E090E08B
:100350000895FC01DB014C9150E060E070E04283C5
:1003600053836483758311968C911197582B428324
:1003700053836483758312968C911297682B428302
:1003800053836483758313968C911397782B4283E0
:1003900053836483758314964C91149750E060E006
:1003A00070E0468357836087718715968C91159707
:1003B000582B468357836087718716968C911697C2
:1003C000682B468357836087718717968C91782BAB
:1003D000468357836087718788E090E008958EE0B8
:1003E00092E008958CE192E008956F927F928F924F
:1003F0009F92AF92BF92CF92DF92EF92FF920F93B4
:100400001F93CF93DF93FC01DB018C9190E09383EA
:10041000828311962C911197922B9383828312964B
:100420004D915D916D917C9115975D0186E0A80ECF
:10043000B11C8A019B010A5F1F4F2F4F3F4F65017F
:10044000CA1ADB0AE12CF12CC016D106E206F3062B
:1004500040F4E501F9905E01CE010297EC01F882CB
:10046000EECFED01C40FD51F1D82CD0105969583FA
:100470008483ED01C40FD51FCE80DF80E884F9842A
:10048000465F5F4F3D01640E751E8A01222717FDEE
:100490002095322F0C0D1D1D2E1D3F1D43018A1A64
:1004A0009B0AA12CB12C80169106A206B30640F43B
:1004B000E30169913E01CE010297EC016883EECF22
:1004C000C40ED51E9D012C0D3D1DC9010197EC01E7
:1004D0001882415051094A0F5B1F57834683E90137
:1004E000088119812A813B81D4E0CD0ED11C3D01C8
:1004F0006C0C7D1CA601662757FD6095762F400F7A
:10050000511F621F731F43018A1A9B0AA12CB12C31
:1005100084169506A606B70640F4E301F9903E015D
:10052000CE010297EC01F882EECF0C0D1D1D9D014E
:10053000200F311FC9010197EC011882D1E0CD1ABB
:10054000D108CA0EDB1ED186C086D90111968C91C6
:10055000119712964C91129750E060E070E0BA014A
:1005600055274427582B8C91482B13968C91782B28
:100570004287538764877587C8010496DF91CF91BE
:100580001F910F91FF90EF90DF90CF90BF90AF90B1
:100590009F908F907F906F9008958DE392E00895E3
:1005A00086E592E00895AF92BF92CF92DF92EF92EC
:1005B000FF921F93CF93DF939C01FB018081D901B0
:1005C00012968C9381819281A381B4815B01C5E0F5
:1005D000AC0EB11CAC01BD014B5F5F4F6F4F7F4F45
:1005E0006501CE1ADF0AE12CF12CC416D506E60609
:1005F000F70650F4E501D9905E017E01D2E0ED1AD4
:10060000F108E701D882ECCFEF01C80FD91F1C8297
:100610003496E901FC83EB830596DF91CF911F911E
:10062000FF90EF90DF90CF90BF90AF90089587E755
:1006300092E008958AE892E0089588E893E00895AA
:100640008BEA92E008958CEC92E0089582EE92E0BD
:10065000089583E093E0089587E193E00895CF93B0
:10066000DF93EC0120E030E048EC52E46C817D81C6
:100670008E819F810E94C01B0E94DD1A70937605B7
:100680006093750520E030E048EC52E46A8D7B8D84
:100690008C8D9D8D0E94C01B0E94DD1A7093740585
:1006A00060937305DF91CF910895FC0186A197A116
:1006B000089583E093E0089587E193E008958E57CD
:1006C0009B4FFC0180810895AF92BF92CF92DF9241
:1006D000EF92FF920F931F93CF93DF93EC017B0177
:1006E0008A81DB018C938B8111968C93EC81FD8147
:1006F000DF010D900020E9F7CD0101976C01CE1AC2
:10070000DF0AC601A0E0B0E0FB0182839383A483EB
:10071000B5836C817D81A601C70106960E94681A87
:10072000EE81FF81DF010D900020E9F7CD010197F7
:100730005C01AE1ABF0AF701EC0DFD1D850120E03A
:1007400030E006831783208731879AE0C90ED11CD9
:100750006E817F81A501C7018C0D9D1D0E94681AC5
:10076000CA0CDB1CE885F985DF010D900020E9F754
:10077000CD0101975C01AE1ABF0AF701EC0DFD1D1A
:10078000850120E030E0008311832283338394E0ED
:10079000C90ED11C68857985A501C7018C0D9D1DE9
:1007A0000E94681AAC0CBD1C3A852B859C858D85F2
:1007B000F701EA0DFB1D3083218392838383C501FA
:1007C0000496DF91CF911F910F91FF90EF90DF90F2
:1007D000CF90BF90AF9008950F931F93CF93DF9367
:1007E000DC01FB0112968C911297808313968D91F8
:1007F0009C911497EC0109900020E9F72197C81B00
:10080000D90B8E0120E030E00183128323833483EF
:1008100013966D917C911497AE01CF0105960E94BD
:10082000681ACE010596DF91CF911F910F9108951F
:10083000BF92CF92DF92EF92FF920F931F93CF93CD
:10084000DF93EC017B018A81DB018C9311961C9272
:10085000119712961C92129713961C92FB013796D1
:1008600040E024E030E05A81C90104964517F0F4D5
:10087000AF81B88524E0429FA00DB11D11246C9179
:1008800011965C91119712963C91129713962C91A8
:10089000DF0113976C93DF0112975C93DF011197CF
:1008A0003C9320839C014F5F3496DDCF4985F7014F
:1008B000E20FF31F408311821282138220E03985F8
:1008C000F701E80FF91F04962317B0F4AE85BF8532
:1008D00034E0239FA00DB11D11246C9111965C9101
:1008E000119712964C91129713963C916083518305
:1008F000428333832F5FE3CF2889208311821282C2
:100900001382B12C2889B21698F54B2D50E0440F74
:10091000551FEB89FC89E40FF51F0190F081E02D54
:10092000DF010D900020E9F79D0121503109690197
:10093000CE1ADF0AF701E80FF91F860120E030E048
:1009400000831183228333838C010C5F1F4FEB895B
:10095000FC89E40FF51F60817181A601C701800F3A
:10096000911F0E94681AC601800F911FB394CACFCD
:10097000DF91CF911F910F91FF90EF90DF90CF907B
:10098000BF9008954F925F927F928F929F92AF9205
:10099000BF92CF92DF92EF92FF920F931F93CF936C
:1009A000DF93EC018B01DB01FC908A818F1550F401
:1009B000B4E0FB9EB00111248F8198850E947C19C0
:1009C00098878F83FA82F8013796F12C44E050E043
:1009D0009E012D5F3F4F8A81BA016C5F7F4F6B0193
:1009E000F81670F5408150E060E070E0742F6627E3
:1009F00055274427DF0113978C91482BDF0112976D
:100A00008C91582BDF0111978C91682B4B835C8361
:100A10006D837E83A6016F81788584E0F89E600DEA
:100A2000711D1124D9018D909D90AD90BC90DB017A
:100A30008D929D92AD92BC921397F3943496CBCF46
:100A4000F801E40FF51FF08089858F1550F484E0DC
:100A5000F89EB00111248E859F850E947C199F8786
:100A60008E879601F98680E0FE013A969985D80135
:100A7000A20FB31FA9014C5F5F4F6A01891748F5A8
:100A800011969C91119712964C91129750E060E04C
:100A900070E0BA0155274427592B9C91492B139696
:100AA0009C91792B4A875B876C877D879601AE8501
:100AB000BF8594E0899FA00DB11D11244081518113
:100AC000628173814D935D936D937C9313978F5FD8
:100AD000CDCFFC9088898F1550F46F2D70E0660F94
:100AE000771F8B899C890E947C199C8B8B8BC601FC
:100AF000F88A712C2E0151E1450E511C288972167D
:100B000008F044C0F801E80FF91FC080D180E280EE
:100B1000F3800496F801E80FF91FAC01662757FD32
:100B20006095762F4C0D5D1D6E1D7F1D9F01201B56
:100B3000310B4901A12CB12C84169506A606B706E7
:100B400038F4B1909F0122503109D901BC92EECF07
:100B5000C80ED91EF801EC0DFD1D319710829C01C5
:100B600021503109200F311F3A8B298BC6013B8957
:100B70002C89E32FF22FE70DF11DE70DF11DD201B6
:100B80002D913C91318320837394B8CFDF91CF9125
:100B90001F910F91FF90EF90DF90CF90BF90AF909B
:100BA0009F908F907F905F904F900895AF92BF92EB
:100BB000CF92DF92EF92FF920F931F93CF93DF9329
:100BC00000D01F921F92CDB7DEB78C016B01643647
:100BD00071053CF0FC01EE57FB4F8081882309F43E
:100BE00085C0DA01ED91FC910190F081E02DB80112
:100BF000655E7D4FCA0119957C015801BCEEAB1AA8
:100C0000BDEFBB0A2FEFF50120832EEFF801EB5E5D
:100C1000FD4F2083F801EA5EFD4F8083F801E95E15
:100C2000FD4F9083890F8095F801E85EFD4F80832A
:100C3000F801E75EFD4FC082F801E65EFD4FD0820D
:100C400085E090E020E030E0A701495F5F4F841726
:100C5000950750F4F801E80FF91FEC5EFD4F608135
:100C6000260F311D0196F3CFF8E0EF0EF11C400F77
:100C7000511FFA01EC5EFD4F2095208321E0E21622
:100C800022E0F206C8F46501C6018A199B098E1597
:100C90009F0584F4D80112968D919C911397F601CB
:100CA00061916F01DC01ED91FC910190F081E02DEB
:100CB0001995EACFC7011CC080EC93E09A83898321
:100CC00083E08B8388E393E09D838C83D801ED914F
:100CD000FC910190F081E02DAE014F5F5F4F67E026
:100CE00070E0C80119958FEF9FEF02C080E090E09F
:100CF0000F900F900F900F900F90DF91CF911F9159
:100D00000F91FF90EF90DF90CF90BF90AF9008953C
:100D10008F929F92AF92BF92CF92DF92EF92FF920B
:100D20000F931F93CF93DF93EC01CB01BA018B019B
:100D30009C01B7E13595279517950795BA95D1F799
:100D4000112722273327011511052105310521F02F
:100D500000581C4F2F4F3F4F188219821A826B0187
:100D60007C01B5E0CC0CDD1CEE1CFF1CBA95D1F764
:100D7000CB826B017C0143E0F594E794D794C79450
:100D80004A95D1F7CC826B017C015BE0F594E79446
:100D9000D794C7945A95D1F7CD8268017901E4E0E0
:100DA000CC0CDD1CEE1CFF1CEA95D1F74B015C015D
:100DB000F3E1B594A79497948794FA95D1F7482DC9
:100DC0004F704C294E8368017901A4E0F594E794B3
:100DD000D794C794AA95D1F720E030E0A9010E94EA
:100DE000711A87FD02C0CF8203C08C2D80688F836B
:100DF00088E090E0DF91CF911F910F91FF90EF90ED
:100E0000DF90CF90BF90AF909F908F900895EF921A
:100E1000FF920F931F93CF93DF938C01EB01FC01A3
:100E20004281538164817581CE010E9488067C01D4
:100E3000F8014681578160857185CE018E0D9F1D19
:100E40000E948806E80EF91EF801428553856485E4
:100E50007585CE018E0D9F1D0E9488068E0D9F1DEB
:100E6000DF91CF911F910F91FF90EF900895EF9236
:100E7000FF920F931F93CF93DF938C017B01029618
:100E80000E940707EC01B701680F791FC80140965F
:100E90000E9407078C0F9D1FDF91CF911F910F912B
:100EA000FF90EF9008950F931F93FC01DB010381E6
:100EB00002950695077010E020E030E00D931D9339
:100EC0002D933C931397448150E060E070E083E001
:100ED000440F551F661F771F8A95D1F7402B512B62
:100EE000622B732B4D935D936D937C9313970581C8
:100EF00010E020E030E09BE0000F111F221F331FA5
:100F00009A95D1F7042B152B262B372B0D931D9378
:100F10002D933C93139746814F7050E060E070E052
:100F200083E1440F551F661F771F8A95D1F7402B29
:100F3000512B622B732B4D935D936D937C93139781
:100F4000868182958F7007810F7710E020E030E076
:100F500094E0000F111F221F331F9A95D1F7082B21
:100F60000115110521053105A1F000581340210993
:100F7000310997E1000F111F221F331F9A95D1F7F6
:100F8000042B152B262B372B0D931D932D933C9360
:100F900013970781007810E020E030E0302F2227FF
:100FA000112700274D915D916D917C911397402BF6
:100FB000512B622B732B4D935D936D937C93139701
:100FC00088E090E01F910F910895EF92FF920F93A8
:100FD0001F93CF93DF938C01EB01BC016E5F7F4FBA
:100FE000CE010E9453077C01B8016A5F7F4FCE019A
:100FF0008E0D9F1D0E945307E80EF91EB801665F13
:101000007F4FCE018E0D9F1D0E9453078E0D9F1D99
:10101000DF91CF911F910F91FF90EF900895EF9284
:10102000FF920F931F93CF93DF938C017B01029666
:101030000E94E507EC01B701680F791FC8014096CF
:101040000E94E5078C0F9D1FDF91CF911F910F919B
:10105000FF90EF9008950F931F93CF93DF93EC01D0
:101060008C010A5F1F4FC8010E940F08ECA1FDA16F
:10107000C801DF91CF911F910F911994DC01ED917F
:10108000FD918081ED91FD919081ED91FD916C91AB
:1010900063708E2309F064609F2309F06860EBE5BC
:1010A000F8E0E60FF11D659565956D936D917D9165
:1010B0008D919D91099423C01AC012C016C010C012
:1010C0001EC009C014C013C006C019C009C00DC09D
:1010D00007C00DC014C062507040804090400BC0EB
:1010E000615070408040904006C06E5F01C06F5FED
:1010F0007F4F8F4F9F4F9E938E937E936E93089555
:101100008091E70C9091E80C0C943E088091E50CDE
:101110009091E60C0C943E088091E30C9091E40CC5
:101120000C943E088091E10C9091E20C0C943E08E6
:101130008091DF0C9091E00C0C943E088091DD0CC6
:101140009091DE0C0C943E08823109F440C078F492
:101150008230E1F0833009F044C07093E00C60937A
:10116000DF0C41E050E068E978E081E02CC0843198
:10117000B9F000F18531A9F57093E20C6093E10CB0
:1011800041E050E062E978E082E01DC07093DE0C3F
:101190006093DD0C41E050E06EE978E080E013C040
:1011A0007093E40C6093E30C41E050E06CE878E06D
:1011B00083E009C07093E60C6093E50C41E050E0D9
:1011C00066E878E084E00E94DA0F81E00895709389
:1011D000E80C6093E70C41E050E060E878E085E0DF
:1011E000F2CF80E008950F931F93CF93DF93EC012C
:1011F000062F142F62E0802F0E94DF1262E0812F01
:101200000E94DF12202F30E0F901E85CFE4FE491EC
:10121000F0E0EE0FFF1FE258FE4F459154915983C5
:101220004883F901EE50FF4F24912C83212F30E0A9
:10123000F901E85CFE4FE491F0E0EE0FFF1FE25889
:10124000FE4FA591B491BB83AA83F901EE50FF4FE5
:1012500024912D831F82188619861A8680ED97E0C7
:101260000E947212E881F98190818C81982381E03B
:1012700009F480E0EA81FB8190812D81922309F0BD
:1012800082608E83BE01802F0E94A4088B87BE01DE
:10129000812F0E94A4082B8590E0820F911D8B87DF
:1012A000DF91CF911F910F91089540917B0550914F
:1012B0007C0560917D0570917E0580917905909106
:1012C0007A050E94B5151092F0091092EF0910925C
:1012D000F2091092F1091092F6091092F509109294
:1012E000F4091092F309EDEBF9E080E090E0219130
:1012F0003191232B81F4FC01EE0FFF1FE354F64FD5
:1013000022E434E0318320838C599F4F909345042D
:101310008093440404C001968931910541F7EBE8BC
:10132000F9E080E090E021913191232BB1F4FC01B0
:10133000EE0FFF1FE557F64F2AE234E0318320839A
:1013400083589F4F90932F0480932E0487E795E056
:10135000909331048093300404C001968931910543
:1013600011F726E240E05BE460E070E089E79AE094
:101370000C9436160F931F93CF93DF93CDB7DEB740
:101380002A970FB6F894DEBF0FBECDBF8C0188EA56
:1013900093E09A8389831B821C821D821E821F8296
:1013A000188619861A86D801ED91FC910190F0817A
:1013B000E02DAE014F5F5F4F6AE070E0C801199504
:1013C0000E941D12F80160877187828793872A9691
:1013D0000FB6F894DEBF0FBECDBFDF91CF911F9146
:1013E0000F9108954F925F926F927F928F929F928A
:1013F000AF92BF92CF92DF92EF92FF920F931F9323
:10140000CF93DF93CDB7DEB72E970FB6F894DEBF3C
:101410000FBECDBF8C0184EB93E09A8389831C823D
:101420001B8280E793E09E838D8398878F839A87C2
:1014300089871B861C861D861E86580182E3A80E9E
:10144000B11C7801412CF2E05F2E612C712C6701F8
:10145000ACEECA1AABEFDA0AD601ED91FC913097E7
:10146000B9F1848195819C838B83808191819E8356
:101470008D8382819381DC01ED91FC910480F58163
:10148000E02D199598878F83D601ED91FC9182818B
:101490009381DC01ED91FC910680F781E02D199597
:1014A0009A8789874B865C866D867E86F801808167
:1014B0009181F601A081B18118966D917C91199767
:1014C000DC01ED91FC91AE014F5F5F4FC8011995B2
:1014D000B2E0EB0EF11CEA14FB0409F0B8CF78017E
:1014E000412CE2E05E2E612C712C6701EAEBCE1AF2
:1014F000EBEFDE0AF601A081B1811097E1F11296BF
:101500008D919C9113979C838B8314968D919C91C4
:1015100015979E838D83ED91FC9111970480F58141
:10152000E02DCD01199598878F83D6018D919C91DF
:10153000DC01ED91FC910680F781E02D19959A87E9
:1015400089874B865C866D867E86D801ED91FC91FD
:1015500080809180F60180819181DC01ED91FC9188
:101560000280F381E02D1995AE014F5F5F4FBC0102
:10157000C801F4011995F2E0EF0EF11CEA14FB0426
:1015800009F0B3CFF801EE57FB4F81E080832E9630
:101590000FB6F894DEBF0FBECDBFDF91CF911F9184
:1015A0000F91FF90EF90DF90CF90BF90AF909F9002
:1015B0008F907F906F905F904F9008958F929F9241
:1015C000AF92BF92CF92DF92EF92FF920F931F9351
:1015D000CF93DF93CDB7DEB72A970FB6F894DEBF6F
:1015E0000FBECDBF8C015B0188EA93E09A838983AB
:1015F0001B821C821D821E821F82188619861A86F3
:101600000E941D126B017C01F80180859185A285E5
:10161000B385C81AD90AEA0AFB0AB501CE010196B8
:101620000E94A901A8EE8A2EA3E09A2EA12CB12C2B
:10163000C701B601A50194010E945B1C69017A01F2
:101640009B01AC018B819C81AD81BE818C0D9D1D68
:10165000AE1DBF1D8B839C83AD83BE8360E472E4AB
:101660008FE090E00E94231CCF80D884E984FA8424
:10167000C60ED71EE81EF91ECF82D886E986FA86E6
:101680000E941D12CB80DC80ED80FE80F1E0CF1A3D
:10169000D108E108F108A50194010E945B1C4901F1
:1016A0005A019B01AC01C818D908EA08FB08F801E7
:1016B000C486D586E686F786CF80D884E984FA8406
:1016C000F6E3DF1AF5E6EF0AF4ECFF0A60E472E4F1
:1016D0008FE090E00E94231CC61AD70AE80AF90A94
:1016E000F801C08AD18AE28AF38AB801605F7F4F2D
:1016F000C8010C960E9427180E941D12F801E95794
:10170000FB4F60837183828393832A960FB6F8948C
:10171000DEBF0FBECDBFDF91CF911F910F91FF9024
:10172000EF90DF90CF90BF90AF909F908F900895F3
:101730002F923F924F925F926F927F928F929F92E1
:10174000AF92BF92CF92DF92EF92FF920F931F93CF
:10175000CF93DF93CDB7DEB760970FB6F894DEBFB7
:101760000FBECDBF4C010E941D126B017C01940184
:1017700029573B4F3E832D83F90180819181A281BE
:10178000B381A7019601281B390B4A0B5B0BDA01C9
:10179000C901893F9A42A105B10520F0F401EE5735
:1017A000FB4F1082A40148585B4F588B4F87DA01DA
:1017B0008D919C91892B79F0F401E557FB4F808145
:1017C0009181A281B3818C159D05AE05BF0518F4EA
:1017D000FA01118210823401F0E86F1AFBEF7F0AE0
:1017E000940124583B4F3A832983A4014E575B4F01
:1017F00058874F83940120573B4F3C872B87A40188
:1018000041575B4F5E874D87840106581B4F160179
:10181000270154E1250E311C411C511C540184E167
:10182000A80EB11C940122583B4F3C832B83A4018A
:1018300045575B4F5A874987D40112968D919C91E9
:101840001397DC01ED91FC910680F781E02D19954D
:101850009C0197FD2DC1F30180819181820F931F1F
:1018600091838083AF85B8894D915C914730510554
:10187000E1F4EB81FC8180819181AC014F5F5F4F8E
:1018800051834083F401E80FF91F248BD8018D9117
:101890009C91119701978D939C93892B09F0BECF52
:1018A00028E030E0EF85F88987C04115510519F52A
:1018B0002F3F310569F481E090E0AF85B8898D93C1
:1018C0009C93E985FA852082318242825382B4CF8B
:1018D0000E941D126C197D098E099F0966307105E1
:1018E0008105910508F49ACFF401EE57FB4F108261
:1018F0008EEF9FEF03C14130510599F42E3F310522
:1019000019F482E090E02FC0EF85F88911821082EF
:10191000AF81B8858C91811181CFC4010E94BA0931
:101920008BCF4230510589F4F80131832083AB819C
:10193000BC811D921C9283E090E0EF85F889918331
:101940008083D3012D933C9377CF4330510581F4AD
:10195000322F2227F80180819181820F931F91837A
:10196000808384E090E0AF85B8898D939C9364CFA9
:101970004430510599F460E071E00E94471C8F3FAC
:10198000910539F485E090E0EF85F88991838083B3
:1019900053CFAF85B8891D921C924ECF453051056B
:1019A00071F4E981FA813183208386E090E0AF858C
:1019B000B8898D939C93F301318320833DCF4630CA
:1019C0005105D1F4322F2227A981BA818D919C91A2
:1019D0001197820F931F8D939C9327E030E0EF8542
:1019E000F88931832083D8018D919C91892B09F04E
:1019F00015CF28E030E0E0CF4830510509F00ECF98
:101A0000AF85B8891D921C9260E071E00E94471C6E
:101A10008F3F910509F002CFA981BA81ED91FC9128
:101A20003097B1F4C4010E94BA09C4010E94F209BE
:101A3000F401ED57FB4FC082D182E282F382ED8147
:101A4000FE81C082D182E282F3828FEF9FEF56C087
:101A5000EA30F10529F4B501C4010E94DE0AECCE9A
:101A6000E630F10551F4B5018B859C850E94C204D6
:101A700081E0AD85BE858C93DFCEEB30F10521F49E
:101A8000EF81F8851082D8CEE154FE4FEE0FFF1F94
:101A9000E80DF91D80819181009709F4BFCEDC012A
:101AA000ED91FC910190F081E02DB5011995C4CE26
:101AB000F401EE57FB4F80818823F1F084010D572C
:101AC0001B4FF80180819181A281B381A70196010A
:101AD000281B390B4A0B5B0BDA01C901853C994085
:101AE000A105B10548F0C4010E94BA09D801CD9200
:101AF000DD92ED92FC92139780E090E060960FB635
:101B0000F894DEBF0FBECDBFDF91CF911F910F9133
:101B1000FF90EF90DF90CF90BF90AF909F908F900D
:101B20007F906F905F904F903F902F90089580EF3F
:101B300093E090937805809377058BE99AE09093F2
:101B40007A058093790580E091EEA0E0B0E0809383
:101B50007B0590937C05A0937D05B0937E05109244
:101B6000F9098CEC93E09093080A8093070A10928D
:101B7000090A10920F0A10920E0A1092100A10927F
:101B8000160A1092150A1092170A10921B0A109248
:101B90001A0AEBE8F9E01192119289E0ED3BF8079F
:101BA000D1F7EDEBF9E01192119289E0EF3EF807E1
:101BB000D1F7EBE8F5E0119287E0EB38F807D9F7B9
:101BC000EBE8F7E0119289E0EB38F807D9F72091BC
:101BD000060230910702409108025091090260917B
:101BE0000A0270910B0280910C0290910D020E94EA
:101BF000751A60936C0470936D0480936E049093D7
:101C00006F048AEF93E0909343048093420484EE40
:101C100093E0909349048093480488ED93E0909377
:101C20004B0480934A0410924C0410924D0410927D
:101C30004E0410924F0410925004109251041092CE
:101C400052041092530410925404109255041092AE
:101C5000560410925704909359048093580410929C
:101C60005A0410925B0410925C0410925D0410926E
:101C70005E0410925F04109260041092610410924E
:101C800062041092630410926404109265042FE2BF
:101C900033E0309367042093660421E030E0309312
:101CA00069042093680421E733E0309347042093CC
:101CB00046049093350480933404109236041092B5
:101CC0003704109238041092390410923A0410929A
:101CD0003B0410923C0410923D0410923E0410927A
:101CE0003F0410924004109241048AE793E09093DD
:101CF0002B0480932A0484E394E090932D04809332
:101D00002C04109233041092320444E165E18EE118
:101D100094E00E94F30843E062E082E194E00C94D6
:101D2000F3088F929F92AF92BF92CF92DF92EF9281
:101D3000FF921F93CF93DF93209175053091760525
:101D40008091730590917405253631053CF42C394A
:101D50004FEF34072CF42CE93FEF02C024E630E0CB
:101D6000853691053CF48C39AFEF9A072CF48CE959
:101D70009FEF02C084E690E09AE69093740420936B
:101D8000750480937604109277049CE09093780415
:101D90002A58280F209520937904C4E7D4E069914C
:101DA00089E79AE00E947213B4E0CA37DB07B9F7FB
:101DB00080912904823030F4F8948EE194E00E94FE
:101DC0003E0801C0F8948090250490902604A090CD
:101DD0002704B0902804789480911D04823030F458
:101DE000F89482E194E00E943E0801C0F894C0900B
:101DF0001904D0901A04E0901B04F0901C0478940D
:101E000080916A0490916B04019690936B04809387
:101E10006A04449709F0B9C094016091720470910A
:101E200073048616970609F4ACC0C601C09170040D
:101E3000D0917104CC16DD0609F4A3C068157905AC
:101E40002CF4261B370BB90120E00AC08616970632
:101E500024F46819790921E003C020E060E070E013
:101E6000C817D90734F4C6018C1B9D0BEC0110E098
:101E70000AC08C179D0724F4CC19DD0911E003C0BA
:101E800010E0C0E0D0E0882777FD8095982F2223CE
:101E9000C1F00E94101B20916C0430916D044091A0
:101EA0006E0450916F040E94C01BDC01CB01B0583E
:101EB0008093360490933704A0933804B093390488
:101EC00014C00E94101B20916C0430916D0440914D
:101ED0006E0450916F040E94C01B6093360470938F
:101EE00037048093380490933904BE01882777FD26
:101EF0008095982F1123C1F00E94101B20916C0433
:101F000030916D0440916E0450916F040E94C01B8B
:101F1000DC01CB01B05880933A0490933B04A0932A
:101F20003C04B0933D0414C00E94101B20916C042B
:101F300030916D0440916E0450916F040E94C01B5B
:101F400060933A0470933B0480933C0490933D0467
:101F50009092730480927204D0927104C0927004C3
:101F60008091300490913104DC01ED91FC916091FD
:101F70002E0470912F040190F081E02D44E354E091
:101F8000199510926B0410926A0487E795E00E94FD
:101F9000980B64E170E080E090E0DF91CF911F91B9
:101FA000FF90EF90DF90CF90BF90AF909F908F9079
:101FB0000C944C12883008F06DC0E82FF0E0EE0F62
:101FC000FF1FE45EF54F7183608390E0FC01319761
:101FD000E730F10590F5EE58FF4F0C947D1C809191
:101FE00069008C7F842B80936900E89A0895809122
:101FF0006900440F551F440F551F837F842B809326
:102000006900E99A08958091690074E0440F551FB2
:102010007A95E1F78F7C842B80936900EA9A089582
:102020008091690066E0440F551F6A95E1F78F7350
:10203000842B80936900EB9A089580916A008C7FCD
:10204000842B80936A00EC9A089580916A00440F73
:10205000551F440F551F837F842B80936A00ED9A90
:10206000089580916A0024E0440F551F2A95E1F7F6
:102070008F7C842B80936A00EE9A089580916A0089
:1020800096E0440F551F9A95E1F78F73842B809348
:102090006A00EF9A08951F920F920FB60F921124C3
:1020A0000BB60F922F933F934F935F936F937F9352
:1020B0008F939F93AF93BF93EF93FF938091200AE9
:1020C0009091210A892B29F0E091200AF091210AB0
:1020D0001995FF91EF91BF91AF919F918F917F9152
:1020E0006F915F914F913F912F910F900BBE0F9089
:1020F0000FBE0F901F9018951F920F920FB60F9260
:1021000011240BB60F922F933F934F935F936F93CE
:102110007F938F939F93AF93BF93EF93FF938091A0
:10212000220A9091230A892B29F0E091220AF0914A
:10213000230A1995FF91EF91BF91AF919F918F91D4
:102140007F916F915F914F913F912F910F900BBEB7
:102150000F900FBE0F901F9018951F920F920FB601
:102160000F9211240BB60F922F933F934F935F93CF
:102170006F937F938F939F93AF93BF93EF93FF934F
:102180008091240A9091250A892B29F0E091240A54
:10219000F091250A1995FF91EF91BF91AF919F9111
:1021A0008F917F916F915F914F913F912F910F9000
:1021B0000BBE0F900FBE0F901F9018951F920F929D
:1021C0000FB60F9211240BB60F922F933F934F939C
:1021D0005F936F937F938F939F93AF93BF93EF938F
:1021E000FF938091260A9091270A892B29F0E0918C
:1021F000260AF091270A1995FF91EF91BF91AF91AF
:102200009F918F917F916F915F914F913F912F910E
:102210000F900BBE0F900FBE0F901F9018951F923E
:102220000F920FB60F9211240BB60F922F933F937C
:102230004F935F936F937F938F939F93AF93BF93CE
:10224000EF93FF9380911C0A90911D0A892B29F02E
:10225000E0911C0AF0911D0A1995FF91EF91BF9131
:10226000AF919F918F917F916F915F914F913F912E
:102270002F910F900BBE0F900FBE0F901F901895CF
:102280001F920F920FB60F9211240BB60F922F933D
:102290003F934F935F936F937F938F939F93AF93EE
:1022A000BF93EF93FF9380911E0A90911F0A892B91
:1022B00029F0E0911E0AF0911F0A1995FF91EF9104
:1022C000BF91AF919F918F917F916F915F914F914E
:1022D0003F912F910F900BBE0F900FBE0F901F904C
:1022E00018951F920F920FB60F9211240BB60F92F2
:1022F0002F933F934F935F936F937F938F939F930E
:10230000AF93BF93EF93FF938091280A9091290A8E
:10231000892B29F0E091280AF091290A1995FF915B
:10232000EF91BF91AF919F918F917F916F915F914D
:102330004F913F912F910F900BBE0F900FBE0F90BA
:102340001F9018951F920F920FB60F9211240BB683
:102350000F922F933F934F935F936F937F938F933E
:102360009F93AF93BF93EF93FF9380912A0A90912D
:102370002B0A892B29F0E0912A0AF0912B0A199552
:10238000FF91EF91BF91AF919F918F917F916F914D
:102390005F914F913F912F910F900BBE0F900FBE09
:1023A0000F901F9018951F920F920FB60F92112445
:1023B0002F933F938F939F93AF93BF9380912D0A59
:1023C00090912E0AA0912F0AB091300A30912C0AD8
:1023D00023E0230F2D3720F40196A11DB11D05C068
:1023E00026E8230F0296A11DB11D20932C0A80938D
:1023F0002D0A90932E0AA0932F0AB093300A809151
:10240000310A9091320AA091330AB091340A0196B0
:10241000A11DB11D8093310A9093320AA093330A13
:10242000B093340ABF91AF919F918F913F912F91BB
:102430000F900FBE0F901F9018952FB7F8946091D2
:102440002D0A70912E0A80912F0A9091300A2FBF89
:1024500008953FB7F8948091310A9091320AA09183
:10246000330AB091340A26B5A89B05C02F3F19F056
:102470000196A11DB11D3FBF6627782F892F9A2F86
:10248000620F711D811D911D42E0660F771F881F2D
:10249000991F4A95D1F70895CF92DF92EF92FF925C
:1024A000CF93DF936B017C010E942912EB01C114D1
:1024B000D104E104F10479F00E9429126C1B7D0B18
:1024C000683E7340A0F381E0C81AD108E108F10822
:1024D000C851DC4FECCFDF91CF91FF90EF90DF90B0
:1024E000CF9008950197009739F0880F991F880FB2
:1024F000991F02970197F1F70895789484B5826047
:1025000084BD84B5816084BD85B5826085BD85B597
:10251000816085BDEEE6F0E0808181608083E1E846
:10252000F0E010828081826080838081816080837E
:10253000E0E8F0E0808181608083E1EBF0E0808181
:1025400084608083E0EBF0E0808181608083E1E95A
:10255000F0E0808182608083808181608083E0E917
:10256000F0E0808181608083E1EAF0E08081826038
:102570008083808181608083E0EAF0E080818160F7
:102580008083E1E2F1E080818260808380818160EC
:102590008083E0E2F1E0808181608083EAE7F0E01F
:1025A000808184608083808182608083808181607B
:1025B00080838081806880831092C1000895CF93CA
:1025C000DF9390E0FC01EE50FF4F2491FC01E85CAA
:1025D000FE4F8491882349F190E0880F991FFC01F8
:1025E000EE54FE4FA591B49188569E4FFC01C591C3
:1025F000D4919FB7611108C0F8948C9120958223E3
:102600008C93888182230AC0623051F4F8948C91B3
:10261000322F309583238C938881822B888304C04A
:10262000F8948C91822B8C939FBFDF91CF9108956A
:10263000FC0124853585F901E05CFF4F80819181A3
:10264000F901EE5BFF4F20813181821B930B8F7369
:1026500099270895FC0184859585FC01E05CFF4F76
:1026600040815181FC01EE5BFF4F20813181421797
:10267000530741F00190F081E02DE80FF91F8081B0
:1026800090E008958FEF9FEF0895FC018485958574
:10269000FC01E05CFF4F40815181FC01EE5BFF4F8C
:1026A000208131814217530779F0A081B181A80FB1
:1026B000B91F8C91208131812F5F3F4F2F733327BA
:1026C0003183208390E008958FEF9FEF0895FC0100
:1026D00081A1882329F0A489B5898C9186FFFBCF3D
:1026E00011A20895CF93DF93FC0126853785D90188
:1026F000A05CBF4F8D919C91119701968F73992784
:10270000E901CE5BDF4F4881598184179507D9F3E2
:102710000D90BC91A02DA20FB31F6C93A685B78519
:10272000A05CBF4F11969C938E93A689B7892C917C
:1027300081E090E0078C02C0880F991F0A94E2F7AD
:10274000282B2C9381E081A30488F589E02D8081DA
:102750008064808381E090E0DF91CF910895FB0158
:10276000E05CFF4F208131812F5F3F4F2F73332774
:10277000DB01AE5BBF4F4D915C912417350739F0FB
:10278000A081B181A60FB71F8C9331832083089558
:1027900008951F920F920FB60F9211240BB60F924D
:1027A0002F933F934F935F936F937F938F939F9359
:1027B000AF93BF93EF93FF938091C00082FD07C05A
:1027C0008091C60069E97CE00E94AF1302C080914D
:1027D000C600FF91EF91BF91AF919F918F917F9133
:1027E0006F915F914F913F912F910F900BBE0F9082
:1027F0000FBE0F901F90189508951F920F920FB65D
:102800000F9211240BB60F922F933F934F935F9328
:102810006F937F938F939F93AF93BF93EF93FF93A8
:102820008091C80082FD07C08091CE0061E17CE00C
:102830000E94AF1302C08091CE00FF91EF91BF9133
:10284000AF919F918F917F916F915F914F913F9148
:102850002F910F900BBE0F900FBE0F901F901895E9
:1028600008951F920F920FB60F9211240BB60F927C
:102870002F933F934F935F936F937F938F939F9388
:10288000AF93BF93EF93FF938091D00082FD07C079
:102890008091D60069E87BE00E94AF1302C080916E
:1028A000D600FF91EF91BF91AF919F918F917F9152
:1028B0006F915F914F913F912F910F900BBE0F90B1
:1028C0000FBE0F901F90189508951F920F920FB68C
:1028D0000F9211240BB60F922F933F934F935F9358
:1028E0006F937F938F939F93AF93BF93EF93FF93D8
:1028F0008091300182FD07C08091360161E07BE06C
:102900000E94AF1302C080913601FF91EF91BF91F9
:10291000AF919F918F917F916F915F914F913F9177
:102920002F910F900BBE0F900FBE0F901F90189518
:102930008BE99AE00E941813892B11F00E94C813AA
:1029400089E79AE00E941813892B11F00E94FC136A
:1029500087E59AE00E941813892B11F00E94301429
:1029600085E39AE00E941813892B11F00C946414EB
:1029700008951F920F920FB60F9211240BB60F926B
:102980002F933F938F939F93EF93FF932091950CF9
:102990003091960C8091970C9091980C28173907DC
:1029A00031F48091C1008F7D8093C10014C0E0910B
:1029B000970CF091980CEB5AF34F20818091970C73
:1029C0009091980C01968F7399279093980C80930F
:1029D000970C2093C600FF91EF919F918F913F91AB
:1029E0002F910F900BBE0F900FBE0F901F90189558
:1029F0001F920F920FB60F9211240BB60F922F93C6
:102A00003F938F939F93EF93FF9320910D0C309101
:102A10000E0C80910F0C9091100C2817390731F48F
:102A20008091C9008F7D8093C90014C0E0910F0C84
:102A3000F091100CE353F44F208180910F0C909192
:102A4000100C01968F7399279093100C80930F0CA4
:102A50002093CE00FF91EF919F918F913F912F9105
:102A60000F900BBE0F900FBE0F901F9018951F92E6
:102A70000F920FB60F9211240BB60F922F933F9324
:102A80008F939F93EF93FF932091850B3091860B4B
:102A90008091870B9091880B2817390731F480912A
:102AA000D1008F7D8093D10014C0E091870BF0910D
:102AB000880BEB5BF44F20818091870B9091880B02
:102AC00001968F7399279093880B8093870B20939F
:102AD000D600FF91EF919F918F913F912F910F9091
:102AE0000BBE0F900FBE0F901F9018951F920F9264
:102AF0000FB60F9211240BB60F922F933F938F9323
:102B00009F93EF93FF932091FD0A3091FE0A8091ED
:102B1000FF0A9091000B2817390731F48091310199
:102B20008F7D8093310114C0E091FF0AF091000B7A
:102B3000E354F54F20818091FF0A9091000B01969C
:102B40008F7399279093000B8093FF0A209336018F
:102B5000FF91EF919F918F913F912F910F900BBE1D
:102B60000F900FBE0F901F901895CF92DF92EF92AB
:102B7000FF92CF93DF93EC016A017B01411581EE57
:102B8000580761057105F9F0EC89FD8981E090E055
:102B900008A002C0880F991F0A94E2F7808360E0C2
:102BA00079E08DE390E0A70196010E945B1C215023
:102BB00031094109510956954795379527952115B2
:102BC00080E1380798F0EC89FD89108260E874E8AC
:102BD0008EE190E0A70196010E945B1C2150310913
:102BE000410951095695479537952795E889F989FF
:102BF0003083EA89FB89208319A2EE89FF8940810D
:102C000081E090E09C010C8C02C0220F331F0A94DB
:102C1000E2F7422B4083EE89FF8940819C010D8CB5
:102C200002C0220F331F0A94E2F7422B4083EE8941
:102C3000FF8940819C010E8C02C0220F331F0A9431
:102C4000E2F7422B4083EE89FF8920810F8C02C07E
:102C5000880F991F0A94E2F7809582238083DF9181
:102C6000CF91FF90EF90DF90CF900895BF92CF92D9
:102C7000DF92EF92FF92CF93DF93EC016A017B0129
:102C8000B22E411581EE580761057105F9F0EC8906
:102C9000FD8981E090E008A002C0880F991F0A9486
:102CA000E2F7808360E079E08DE390E0A701960190
:102CB0000E945B1C215031094109510956954795E5
:102CC00037952795211580E1380798F0EC89FD8923
:102CD000108260E874E88EE190E0A70196010E94FE
:102CE0005B1C21503109410951095695479537958B
:102CF0002795E889F9893083EA89FB892083E88D63
:102D0000F98DB082EE89FF89408181E090E09C01DD
:102D10000C8C02C0220F331F0A94E2F7422B40832F
:102D2000EE89FF8940819C010D8C02C0220F331F68
:102D30000A94E2F7422B4083EE89FF8940819C018F
:102D40000E8C02C0220F331F0A94E2F7422B4083FD
:102D5000EE89FF8920810F8C02C0880F991F0A9489
:102D6000E2F7809582238083DF91CF91FF90EF90EF
:102D7000DF90CF90BF900895CF9310929E0A10924B
:102D80009D0A88EE93E0A0E0B0E080939F0A9093C4
:102D9000A00AA093A10AB093A20A26E034E03093DF
:102DA0009C0A20939B0A49E95CE05093A80A40934F
:102DB000A70A45E55CE05093AA0A4093A90A45ECAE
:102DC00050E05093AC0A4093AB0A44EC50E050936F
:102DD000AE0A4093AD0A40EC50E05093B00A4093E5
:102DE000AF0A41EC50E05093B20A4093B10A42EC72
:102DF00050E05093B40A4093B30A46EC50E050932D
:102E0000B60A4093B50AC4E0C093B70AF3E0F09362
:102E1000B80AE7E0E093B90A75E07093BA0A61E096
:102E20006093BB0A10927C0A10927B0A80937D0A01
:102E300090937E0AA0937F0AB093800A30937A0A17
:102E40002093790A41E15CE05093860A4093850A19
:102E50004DEC5BE05093880A4093870A4DEC50E0BC
:102E600050938A0A4093890A4CEC50E050938C0AA4
:102E700040938B0A48EC50E050938E0A40938D0AA1
:102E800049EC50E05093900A40938F0A4AEC50E08E
:102E90005093920A4093910A4EEC50E05093940A5A
:102EA0004093930AC093950AF093960AE093970A89
:102EB0007093980A6093990A10925A0A1092590ACC
:102EC00080935B0A90935C0AA0935D0AB0935E0ABC
:102ED0003093580A2093570A49E85BE05093640AFC
:102EE0004093630A45E45BE05093660A4093650AA9
:102EF00045ED50E05093680A4093670A44ED50E076
:102F000050936A0A4093690A40ED50E050936C0A6E
:102F100040936B0A41ED50E050936E0A40936D0A66
:102F200042ED50E05093700A40936F0A46ED50E036
:102F30005093720A4093710AC093730AF093740A13
:102F4000E093750A7093760A6093770A1092380AB4
:102F50001092370A8093390A90933A0AA0933B0A59
:102F6000B0933C0A3093360A2093350A81E09BE007
:102F70009093420A8093410A8DEB9AE09093440A21
:102F80008093430A85E391E09093460A8093450A33
:102F900084E391E09093480A8093470A80E391E0AC
:102FA00090934A0A8093490A81E391E090934C0AF6
:102FB00080934B0A82E391E090934E0A80934D0AEE
:102FC00086E391E09093500A80934F0AC093510A90
:102FD000F093520AE093530A7093540A6093550A8F
:102FE000CF9108950E947D120E945509C8E9D4E14D
:102FF0000E94910E2097E1F30E949814F9CFCF928E
:10300000DF92EF92FF920F931F93CF93DF936C01A8
:103010007A01EB01E60EF71E00E010E0CE15DF05A9
:1030200061F06991D601ED91FC910190F081E02D64
:10303000C6011995080F191FF1CFC801DF91CF9173
:103040001F910F91FF90EF90DF90CF900895CF9256
:10305000DF92EF92FF920F931F93CF93DF938C0138
:10306000EB01688179818A819B8120E03AEC4AE911
:103070005BE30E945B1CF801C080D180E280F3809A
:10308000C20ED31EE41EF51EC082D182E282F382FC
:10309000688379838A839B83DF91CF911F910F91FE
:1030A000FF90EF90DF90CF900895CF93DF93823021
:1030B000910510F482E090E0E091EB0CF091EC0CC3
:1030C00020E030E0A0E0B0E0309739F1408151815C
:1030D00048175907B8F04817590771F4828193814E
:1030E000109729F013969C938E9312972CC090936F
:1030F000EC0C8093EB0C27C02115310531F0421701
:10310000530718F0A901DB0101C0EF019A01BD01CD
:10311000DF010280F381E02DD7CF21153105F9F0D1
:10312000281B390B2430310580F48A819B8161157D
:10313000710521F0FB019383828304C09093EC0C12
:103140008093EB0CFE01329644C0FE01E20FF31FA8
:103150008193919322503109398328833AC0209179
:10316000E90C3091EA0C232B41F4209102023091BA
:1031700003023093EA0C2093E90C20910002309175
:1031800001022115310541F42DB73EB740910402EB
:1031900050910502241B350BE091E90CF091EA0CEB
:1031A000E217F307A0F42E1B3F0B2817390778F01E
:1031B000AC014E5F5F4F2417350748F04E0F5F1F7D
:1031C0005093EA0C4093E90C8193919302C0E0E0A4
:1031D000F0E0CF01DF91CF910895CF93DF93009777
:1031E00009F487C0FC01329713821282C091EB0C64
:1031F000D091EC0C209781F420813181280F391F68
:103200008091E90C9091EA0C8217930779F5F0937D
:10321000EA0CE093E90C6DC0DE0120E030E0AE176F
:10322000BF0750F412964D915C9113979D01411583
:10323000510509F1DA01F3CFB383A28340815181B3
:10324000840F951F8A179B0771F48D919C9111979C
:10325000840F951F02969183808312968D919C9185
:103260001397938382832115310529F4F093EC0C95
:10327000E093EB0C3EC0D9011396FC93EE931297AA
:103280004D915D91A40FB51FEA17FB0779F480817A
:103290009181840F951F0296D90111969C938E936C
:1032A0008281938113969C938E931297E0E0F0E0D5
:1032B0008A819B81009719F0FE01EC01F9CFCE01C4
:1032C000029628813981820F931F2091E90C309159
:1032D000EA0C2817390769F4309729F41092EC0C9E
:1032E0001092EB0C02C013821282D093EA0CC093AE
:1032F000E90CDF91CF9108956F927F928F929F9208
:10330000AF92BF92CF92DF92EF92FF920F931F93F3
:10331000CF93DF93EC01CB01209781F4DF91CF9124
:103320001F910F91FF90EF90DF90CF90BF90AF90E3
:103330009F908F907F906F900C945518FE01E60F30
:10334000F71F9E0122503109E217F30708F4ACC0C1
:10335000D9010D911C91119706171707B8F0053088
:10336000110508F49FC0A80144505109461757079A
:1033700008F498C002501109061B170B0193119312
:103380006D937C93CF010E94ED188CC05B01A01A55
:10339000B10A4E01800E911EA091EB0CB091EC0C85
:1033A000612C712C60E070E0109709F449C0A815F9
:1033B000B905C9F5ED90FC901197670142E0C40E84
:1033C000D11CCA14DB0478F147018A189B086401F8
:1033D00042E0C40ED11C1296BC9012971396AC9189
:1033E000B5E0CB16D10440F0B282A38391828082F3
:1033F000D9018D939C9309C00E5F1F4F0E0D1F1DA9
:10340000F90111830083EB2DFA2F6115710531F05D
:10341000DB011396FC93EE93129744C0F093EC0CEF
:10342000E093EB0C3FC06D917C9111976616770687
:1034300008F43B01BD0112960D90BC91A02DB4CFB4
:103440006091E90C7091EA0C68157905E9F4681649
:103450007906D0F4409100025091010241155105C6
:1034600041F44DB75EB76091040270910502461BAE
:10347000570BE417F507C0F4F093EA0CE093E90C5E
:10348000F901918380830EC00E9455187C0100973A
:1034900059F0A801BE010E94681ACE010E94ED18E1
:1034A000C70104C0CE0102C080E090E0DF91CF915F
:1034B0001F910F91FF90EF90DF90CF90BF90AF9052
:1034C0009F908F907F906F900895F8940C94A11C1A
:1034D000FB01DC0102C001900D9241505040D8F731
:1034E0000895D9D008F481E008950CD00FC107D118
:1034F00040F0FED030F021F45F3F19F0F0C05111E0
:1035000039C1F3C014D198F39923C9F35523B1F30A
:10351000951B550BBB27AA2762177307840738F042
:103520009F5F5F4F220F331F441FAA1FA9F333D0A1
:103530000E2E3AF0E0E830D091505040E695001C55
:10354000CAF729D0FE2F27D0660F771F881FBB1F11
:10355000261737074807AB07B0E809F0BB0B802DEB
:10356000BF01FF2793585F4F2AF09E3F510568F037
:10357000B6C000C15F3FECF3983EDCF386957795CB
:103580006795B795F7959F5FC9F7880F911D969539
:10359000879597F90895E1E0660F771F881FBB1F95
:1035A000621773078407BA0720F0621B730B840B42
:1035B000BA0BEE1F88F7E095089504D06894B11116
:1035C000D9C00895BCD088F09F5790F0B92F9927A3
:1035D000B751A0F0D1F0660F771F881F991F1AF01E
:1035E000BA95C9F712C0B13081F0C3D0B1E00895E7
:1035F000C0C0672F782F8827B85F39F0B93FCCF368
:10360000869577956795B395D9F73EF49095809513
:10361000709561957F4F8F4F9F4F0895E89409C033
:1036200097FB3EF490958095709561957F4F8F4FF5
:103630009F4F9923A9F0F92F96E9BB279395F6950B
:10364000879577956795B795F111F8CFFAF4BB0F89
:1036500011F460FF1BC06F5F7F4F8F4F9F4F16C0ED
:10366000882311F096E911C0772321F09EE8872F77
:10367000762F05C0662371F096E8862F70E060E033
:103680002AF09A95660F771F881FDAF7880F9695AC
:10369000879597F90895990F0008550FAA0BE0E850
:1036A000FEEF16161706E807F907C0F01216130604
:1036B000E407F50798F0621B730B840B950B39F444
:1036C0000A2661F0232B242B252B21F408950A26AA
:1036D00009F4A140A6958FEF811D811D089597F9EA
:1036E0009F6780E870E060E008959FEF80EC0895A8
:1036F00000240A94161617061806090608950024D1
:103700000A9412161306140605060895092E03944A
:10371000000C11F4882352F0BB0F40F4BF2B11F4BE
:1037200060FF04C06F5F7F4F8F4F9F4F089557FD1D
:103730009058440F551F59F05F3F71F04795880F1F
:1037400097FB991F61F09F3F79F0879508951216B6
:1037500013061406551FF2CF4695F1DF08C0161662
:1037600017061806991FF1CF869571056105089413
:103770000895E894BB2766277727CB0197F908952A
:103780000BD0C4CFB5DF28F0BADF18F0952309F0CD
:10379000A6CFABCF1124EECFCADFA0F3959FD1F314
:1037A000950F50E0551F629FF001729FBB27F00DEF
:1037B000B11D639FAA27F00DB11DAA1F649F662744
:1037C000B00DA11D661F829F2227B00DA11D621F93
:1037D000739FB00DA11D621F839FA00D611D221F4D
:1037E000749F3327A00D611D231F849F600D211D31
:1037F000822F762F6A2F11249F5750408AF0E1F0D4
:1038000088234AF0EE0FFF1FBB1F661F771F881F1C
:1038100091505040A9F79E3F510570F060CFAACF5C
:103820005F3FECF3983EDCF3869577956795B79507
:10383000F795E7959F5FC1F7FE2B880F911D969531
:10384000879597F90895DB018F939F930E94831CBE
:10385000BF91AF91A29F800D911DA39F900DB29F2C
:10386000900D11240895AA1BBB1B51E107C0AA1F8C
:10387000BB1FA617B70710F0A61BB70B881F991F11
:103880005A95A9F780959095BC01CD01089597FBB5
:10389000072E16F4009407D077FD09D00E94331C40
:1038A00007FC05D03EF4909581959F4F0895709543
:1038B00061957F4F0895A1E21A2EAA1BBB1BFD0143
:1038C0000DC0AA1FBB1FEE1FFF1FA217B307E407FF
:1038D000F50720F0A21BB30BE40BF50B661F771F57
:1038E000881F991F1A9469F7609570958095909537
:1038F0009B01AC01BD01CF010895EE0FFF1F0590A4
:10390000F491E02D19940E94921CA59F900DB49FF4
:10391000900DA49F800D911D112408950790F6919C
:10392000E02D1994A29FB001B39FC001A39F700D19
:10393000811D1124911DB29F700D811D1124911DB7
:063940000895F894FFCF8A
:103946000000ED0C20000000FA430000DC42737416
:10395600645F6D7367732F54696D650063643731F7
:1039660036366337346335353263333131666263F5
:1039760063326665356137626332383900726F7358
:1039860073657269616C5F6D7367732F546F7069CD
:1039960063496E666F003061643531663838666338
:1039A6003434383932663863313036383430373764
:1039B60036343630303500726F7373657269616CF8
:1039C6005F6D7367732F4C6F6700313161626437C7
:1039D6003331633235393333323631636436313815
:1039E60033626431326436323935003966306539CE
:1039F600386264613635393831393836646466354B
:103A060033616661376134306534390067656F6DDF
:103A1600657472795F6D7367732F566563746F7221
:103A260033003461383432623635663431333038F7
:103A360034646332623130666234383465613766C5
:103A460031370067656F6D657472795F6D73677383
:103A56002F547769737400396631393566383831D1
:103A660032343666646661323739386431643365B8
:103A760065626361383461004D6573736167652003
:103A860066726F6D206465766963652064726F7017
:103A96007065643A206D657373616765206C617249
:103AA600676572207468616E206275666665722E3F
:103AB600002F636D645F76656C00776865656C5F83
:103AC600656E636F64657200726F737365726961A8
:103AD6006C5F6D7367732F52657175657374506192
:103AE60072616D00000000008701A901EF01F2017B
:103AF600000000006403F501CD02D00200000000C2
:103B0600EC03D30217031A03000000001804C204D2
:103B16001D032003000000000707E5072303260313
:103B26000000000037070F0829032C0300000000DF
:103B3600D605980B5F03000000002B0855035903B8
:103B46005C03000000007213FF17181345132A13B5
:023B56006713F3
:00000001FF
