:100000000C9469010C9491010C9491010C94A60C30
:100010000C94CA0C0C94EE0C0C9491010C9491016C
:100020000C9491010C9491010C9491010C94910108
:100030000C9491010C9491010C9491010C949101F8
:100040000C946F020C9491010C9497030C94D103BF
:100050000C9491010C9491010C9491010C949101D8
:100060000C948B0F0C949101210A2E0A320A380A43
:100070003E0A530A5C0A630A680A6E0A6E0A6E0A2E
:100080006E0A6E0A6E0A6E0A6E0A6E0A6E0A6E0AB0
:100090006E0A6E0A6E0A6E0A6E0A6E0A6E0A6E0AA0
:1000A0006E0A6E0A6E0A6E0A210A270A2E0A320AA0
:1000B000380A3E0A440A480A4D0A4E6F20475053F8
:1000C0002064657465637465643A20636865636B76
:1000D00020776972696E672E0000C201000100116D
:1000E0000011000C0000E100000A0025002500219D
:1000F00000009600001900390039003600127A001D
:10010000001F004600460044008070000022004DA1
:10011000004D004A00004B0000360075007500726B
:1001200000403800004A009C009C00990080250097
:10013000007200EC00EC00E900C0120000E900DAF7
:1001400001DA01D70160090000D701B603B603B395
:1001500003B0040000B3036E076E076B075802007C
:10016000006E07DC0EDC0ED80E2C010000DC0EC188
:100170001DC11DBE1D000000070002010000030498
:1001800006000000000000000001020408102040EA
:100190008001020408102001020408102004040455
:1001A0000404040404020202020202030303030320
:1001B00003000000002300260029000000000025A5
:1001C0000028002B0000000000240027002A000067
:1001D000407A10F35A00A0724E18090010A5D4E816
:1001E0000000E87648170000E40B54020000CA9AA9
:1001F0003B000000E1F505000080969800000040FB
:10020000420F000000A0860100000010270000003F
:1002100000E803000000006400000000000A000085
:100220000000000100000000002C76D888DC674F39
:100230000823DFC1DFAE59E1B1B796E5E3E453C669
:100240003AE651997696E8E6C28426EB898C9B6261
:10025000ED407C6FFCEFBC9C9F40F2BAA56FA5F40B
:1002600090055A2AF75C936B6CF9676DC11BFCE033
:10027000E40D47FEF520E6B500D0ED902E03009486
:100280003577050080841E080000204E0A0000001B
:10029000C80C333333330F986E12831141EF8D2125
:1002A00014893BE65516CFFEE6DB18D1844B381B8C
:1002B000F77C1D901DA4BBE424203284725E228151
:1002C00000C9F124ECA1E53D270015028D04480684
:1002D000200211241FBECFEFD8E0DEBFCDBF11E05A
:1002E000A0E0B1E0E4EFF2E302C005900D92A83780
:1002F000B107D9F713E0A8E7B1E001C01D92AC3F08
:10030000B107E1F712E0C0EDD2E004C02297FE0190
:100310000E945A19CA3CD107C9F70E9424020C94C2
:1003200027120C9400000F931F93CF93DF93CDB748
:10033000DEB7C258D1090FB6F894DEBF0FBECDBFED
:1003400084E991E00E9412088E010C581F4F27E0AB
:100350004BE00E94B81084E991E00E943E088E01B3
:100360000B591F4F27E04BE00E94B8101092FD017F
:10037000E2E0F2E083818F9382818F9381818F937A
:1003800080818F9386E091E09F938F938E010F5F22
:100390001F4F1F930F930E946912BE016C587F4F2D
:1003A000C8010E942A1268E071E0C8010E942A1266
:1003B000BE016B597F4FC8010E942A12B8018AE41E
:1003C00092E00E94730561E070E084EF92E00E9489
:1003D0003006F80101900020E9F7AF0141505109C2
:1003E000401B510BE091F402F091F5020280F38181
:1003F000E02DB80184EF92E0099584EF92E00E942D
:100400004506C8010E9471110FB6F894DEBF0FBEF9
:10041000CDBFCE57DF4F0FB6F894DEBF0FBECDBFB6
:10042000DF91CF911F910F91089584E991E00E948F
:100430004C0620E043E064E088E791E00C94600D16
:1004400088E791E00C94520E0E94C50240E855E204
:1004500060E070E08AE492E00E940C046AE071E0DF
:100460008AE492E00E94730584EF92E00E941C06E9
:1004700040E855E260E070E088E791E00E94900D6E
:1004800088E791E00E94720B1816190674F488E749
:1004900091E00E94370B682F84E991E00E94AA0A3C
:1004A000882371F30E949301EBCF0E94B90269384F
:1004B00073418105910520F38091310290913202C0
:1004C000A0913302B09134020A97A105B105C0F69C
:1004D0006AEB70E08AE492E00E946105FFCF1F9210
:1004E0000F920FB60F9211242F933F938F939F93E8
:1004F000AF93BF938091420290914302A091440236
:10050000B09145023091410223E0230F2D3720F4B2
:100510000196A11DB11D05C026E8230F0296A11D5D
:10052000B11D209341028093420290934302A09315
:100530004402B09345028091460290914702A091F7
:100540004802B09149020196A11DB11D8093460257
:1005500090934702A0934802B0934902BF91AF9194
:100560009F918F913F912F910F900FBE0F901F90F1
:1005700018952FB7F89460914202709143028091D0
:100580004402909145022FBF0895789484B582600B
:1005900084BD84B5816084BD85B5826085BD85B527
:1005A000816085BDEEE6F0E0808181608083E1E8D6
:1005B000F0E010828081826080838081816080830E
:1005C000E0E8F0E0808181608083E1EBF0E0808111
:1005D00084608083E0EBF0E0808181608083EAE7E3
:1005E000F0E080818460808380818260808380816C
:1005F000816080838081806880831092C10008952B
:10060000FC0124853585F901E05CFF4F80819181F3
:10061000F901EE5BFF4F20813181821B930B8F73B9
:1006200099270895FC0184859585FC01E05CFF4FC6
:1006300040815181FC01EE5BFF4F208131814217E7
:10064000530741F00190F081E02DE80FF91F808100
:1006500090E008958FEF9FEF0895FC0184859585C4
:10066000FC01E05CFF4F40815181FC01EE5BFF4FDC
:10067000208131814217530779F0A081B181A80F01
:10068000B91F8C91208131812F5F3F4F2F7333270A
:100690003183208390E008958FEF9FEF0895FC0150
:1006A00081A1882329F0A489B5898C9186FFFBCF8D
:1006B00011A20895CF93DF93FC0126853785D901D8
:1006C000A05CBF4F8D919C91119701968F739927D4
:1006D000E901CE5BDF4F4881598184179507D9F333
:1006E0000D90BC91A02DA20FB31F6C93A685B7856A
:1006F000A05CBF4F11969C938E93A689B7892C91CD
:1007000081E090E0078C02C0880F991F0A94E2F7FD
:10071000282B2C9381E081A30488F589E02D80812A
:100720008064808381E090E0DF91CF9108951F92F3
:100730000F920FB60F9211242F933F934F938F93E5
:100740009F93EF93FF938091C00082FD1CC0409166
:10075000C6008091F0029091F10201968F73992763
:100760002091F2023091F3028217930771F0E09129
:10077000F002F091F102E055FD4F40839093F102B9
:100780008093F00202C08091C600FF91EF919F918B
:100790008F914F913F912F910F900FBE0F901F900F
:1007A00018951F920F920FB60F9211242F933F931B
:1007B0008F939F93EF93FF932091AC023091AD0202
:1007C0008091AE029091AF022817390731F48091E1
:1007D000C1008F7D8093C10014C0E091AE02F09102
:1007E000AF02E459FD4F20818091AE029091AF029B
:1007F00001968F7399279093AF028093AE02209356
:10080000C600FF91EF919F918F913F912F910F9093
:100810000FBE0F901F901895CF92DF92EF92FF922C
:10082000CF93DF93EC016A017B01411581EE5807FC
:1008300061057105F9F0EC89FD8981E090E008A07F
:1008400002C0880F991F0A94E2F7808360E079E084
:100850008DE390E0A70196010E94FF182150310915
:10086000410951095695479537952795211580E1FE
:10087000380798F0EC89FD89108260E874E88EE111
:1008800090E0A70196010E94FF182150310941090B
:1008900051095695479537952795E889F989308309
:1008A000EA89FB89208319A2EE89FF89408181E0D2
:1008B00090E09C010C8C02C0220F331F0A94E2F7D7
:1008C000422B4083EE89FF8940819C010D8C02C040
:1008D000220F331F0A94E2F7422B4083EE89FF89EF
:1008E00040819C010E8C02C0220F331F0A94E2F754
:1008F000422B4083EE89FF8920810F8C02C0880F34
:10090000991F0A94E2F7809582238083DF91CF912B
:10091000FF90EF90DF90CF90089510924D021092CB
:100920004C0288EE93E0A0E0B0E080934E029093FA
:100930004F02A0935002B09351028BE191E090934B
:100940004B0280934A0280EB92E09093570280938F
:1009500056028CE692E0909359028093580285ECFF
:1009600090E090935B0280935A0284EC90E0909325
:100970005D0280935C0280EC90E090935F02809334
:100980005E0281EC90E0909361028093600282ECC1
:1009900090E0909363028093620286EC90E09093E3
:1009A00065028093640284E08093660283E0809312
:1009B000670287E08093680285E08093690281E0A6
:1009C00080936A020895CF92DF92EF92FF920F9385
:1009D0001F93CF93DF936C017A01EB01E60EF71EB4
:1009E00000E010E0CE15DF0561F06991D601ED91D0
:1009F000FC910190F081E02DC6010995080F191FA7
:100A0000F1CFC801DF91CF911F910F91FF90EF902F
:100A1000DF90CF9008956115710581F0DB010D9095
:100A20000020E9F7AD0141505109461B570BDC018D
:100A3000ED91FC910280F381E02D099480E090E03B
:100A40000895EF92FF920F931F93CF93DF938C0142
:100A5000FB01C0E0D0E064917F018FEFE81AF80A53
:100A6000662361F0D801ED91FC910190F081E02DB9
:100A7000C8010995C80FD91FF701EDCFCE01DF914D
:100A8000CF911F910F91FF90EF900895DC01ED91B0
:100A9000FC910190F081E02D09940F931F93CF9367
:100AA000DF93EC016DE00E9446058C016AE0CE0107
:100AB0000E944605800F911FDF91CF911F910F91EA
:100AC00008950F931F93CF93DF93EC010E942105AC
:100AD0008C01CE010E944D05800F911FDF91CF91B7
:100AE0001F910F9108950F931F93CF93DF93EC0104
:100AF0000E940B058C01CE010E944D05800F911FB5
:100B0000DF91CF911F910F9108958091240390E080
:100B100020912503821B910908952091250380913E
:100B20002403281750F4E22FF0E0EA5DFC4F8081A7
:100B300090E02F5F2093250308958FEF9FEF089596
:100B4000E091250380912403E81730F4F0E0EA5D9A
:100B5000FC4F808190E008958FEF9FEF08950895F6
:100B6000CF92DF92EF92FF920F931F93CF93DF9379
:100B70007C01CB018A0120910003222389F0EB0143
:100B80006B01C40ED51ECC15DD0569F06991D70146
:100B9000ED91FC910190F081E02DC7010995F3CF13
:100BA000642F0E94620FC801DF91CF911F910F91B6
:100BB000FF90EF90DF90CF900895CF93DF931F9237
:100BC000CDB7DEB76983209100032223D1F02091B5
:100BD0000103203240F021E030E0FC013383228326
:100BE00080E090E015C080910203E82FF0E0ED5F17
:100BF000FC4F998190838F5F809302038093010360
:100C000005C061E0CE0101960E94620F81E090E094
:100C10000F90DF91CF910895FC011382128248EE6C
:100C200053E060E070E044835583668377838BE212
:100C300091E09183808308951092250310922403FC
:100C400010920203109201030C94F10E81E0809344
:100C5000000360932303109202031092010308958E
:100C60000C9426060F93062F21E04091010363E0C8
:100C700073E0809123030E940F0F109202031092E1
:100C80000103109200030F91089561E00C94320665
:100C900084EF92E00C940C06FC0110821182138206
:100CA000128214821582168217821086128611868D
:100CB00013861486158616861786118A108A128A5C
:100CC000138A148A158A168A108E178A118E128E2C
:100CD000138E148E158E12A213A214A215A216A2A0
:100CE00017A210AA11AA12AA13AA14AA15AA16AE1C
:100CF00017AEDC01AC5BBF4F1D921D921D921C9282
:100D00001397DC01A45BBF4F1C9211961C921197A4
:100D100016961D921D921D921C921997DC01A65ADF
:100D2000BF4F1C9211961C92119716961D921D9200
:100D30001D921C921997DC01A859BF4F1C92119665
:100D40001C92119716961D921D921D921C92199736
:100D5000DC01AA58BF4F1C9211961C92119716964F
:100D60001D921D921D921C921997DC01AC57BF4F2A
:100D70001C92DC01AB57BF4F1C92DC01AB56BF4F3E
:100D800082E08C93DF01AA56BF4F1C92DF01A95667
:100D9000BF4F1C92DF01A856BF4F1C92DF01A75620
:100DA000BF4F1D921C92DF01A556BF4F1D921C9292
:100DB000DF01A356BF4F1D921D921D921C921397E7
:100DC000DF01AF55BF4F1D921D921D921C921397CC
:100DD000DF01AB55BF4F1D921D921D921C921397C0
:100DE000DF01A755BF4F1D921D921D921C921397B4
:100DF000EA57FF4F108208952FEB260F862F992771
:100E000087FD9095263010F4C79708956156663097
:100E100018F4875591090895C0970895FF920F938C
:100E20001F93CF93DF93EC01FF24F39488818D32DD
:100E300011F0F12C01C02196CE010E9400129B01FD
:100E4000AC01A4E6B0E00E94B418FE014991242F41
:100E5000332727FD3095205331092A303105A8F377
:100E60004E3241F52181332727FD3095205331093A
:100E70002A303105F8F44AE0429F8001439F100D6B
:100E80001124222717FD2095322F600F711F821F1A
:100E9000931F0281112707FD1095005311090A3095
:100EA000110540F4222717FD2095322F600F711F86
:100EB000821F931FFF2039F0909580957095619562
:100EC0007F4F8F4F9F4FDF91CF911F910F91FF90D9
:100ED00008952F923F924F925F926F927F928F92DE
:100EE0009F92AF92BF92CF92DF92EF92FF920F93B9
:100EF0001F93CF93DF93D82FC92F8B010E9400122D
:100F000024E630E040E050E00E94FF1849015A0119
:100F10009B01AC0160E876E988E990E00E94C7187F
:100F20006B017C01F80191828082ED2FFC2F2191D1
:100F3000822F992787FD9095C0970A97C0F32E328C
:100F400039F51F0180E8882E86E9982E88E9A82EB9
:100F5000B12C9AE0492E512C612C712CF101C191D8
:100F60001F01DD27C7FDD095E097CA30D10580F479
:100F7000C501B401A30192010E94FF1849015A0161
:100F8000DE010E94BF18C60ED71EE81EF91EE6CF6E
:100F9000A5E0B0E0A70196010E94B4186F5F7F4FF3
:100FA0008F4F9F4F23E030E040E050E00E94FF1859
:100FB000F80122833383448355831682DF91CF91D6
:100FC0001F910F91FF90EF90DF90CF90BF90AF9067
:100FD0009F908F907F906F905F904F903F902F9059
:100FE0000895CF93DF93EC0187E0FE017096DE0158
:100FF000129601900D928A95E1F787E0FE017796AF
:10100000DE01199601900D928A95E1F70E94B902CE
:101010006E8F7F8F88A399A381E089838883DF9176
:10102000CF910895CF92DF92EF92FF92CF93DF930B
:10103000EC0119826A817B8180E090E00E94581364
:101040006B017C016C817D818E819F810E94581390
:1010500028E23BE64EE65EE40E94F0129B01AC0102
:10106000C701B6010E948C12288521119058DF918A
:10107000CF91FF90EF90DF90CF900895CF92DF92C5
:10108000EF92FF92CF93DF93EC01198269857A8505
:1010900080E090E00E9458136B017C016B857C8599
:1010A0008D859E850E94581328E23BE64EE65EE45D
:1010B0000E94F0129B01AC01C701B6010E948C1284
:1010C0002F8521119058DF91CF91FF90EF90DF9005
:1010D000CF900895CF93DF93EC014E815F816885B7
:1010E00079854A835B836C837D830E94B9026A871A
:1010F0007B878C879D8781E089838883DF91CF916F
:101100000895CF93DF93EC014E815F8168857985E7
:101110004A835B836C837D830E94B9026A877B87E5
:101120008C879D8781E089838883DF91CF910895A3
:10113000CF93DF93EC01CB010E940E076E837F8378
:1011400088879987DF91CF910895CF93DF93EC0142
:10115000CB010E9400126E837F8388879987DF917D
:10116000CF910895CF93DF93EC014A855B856C8521
:101170007D854E835F83688779870E94B9026A8381
:101180007B838C839D8381E089838883DF91CF91EA
:101190000895CF93DF93EC01CB010E940E076A877D
:1011A0007B878C879D87DF91CF910895CF93DF93C5
:1011B000EC014A855B856C857D854E835F836887FE
:1011C00079870E94B9026A837B838C839D8381E047
:1011D00089838883DF91CF910895CF93DF93EC01CA
:1011E000CB010E9400126A877B878C879D87DF91E5
:1011F000CF910895CF93DF93EC01BC0140960E94FC
:101200003E120E94B90268A379A38AA39BA381E03E
:101210008DA38CA3DF91CF91089540E150E00C9411
:101220004512AF92BF92CF92DF92FF920F931F931E
:10123000CF93DF93EC01FC01EB57FF4FF080FF20D1
:1012400009F4A2C0FC01EA57FF4F60810E94FC062E
:10125000182FFE01E957FF4F6081CE010E94FC0666
:1012600040E1149F800D1124FE01EC57FF4F908147
:1012700089137AC0FE01E755FF4F40815181628199
:1012800073814F5F5F4F6F4F7F4F40835183628306
:1012900073838E0108561F4FD8018C91882379F0F3
:1012A000FE01EF55FF4F40815181628173814F5F95
:1012B0005F4F6F4F7F4F4083518362837383FE0183
:1012C000EB56FF4F80818823C9F0813089F5CE012C
:1012D00082960E946A08CE01C0960E948108F80199
:1012E0008081882329F1CE010E94F107CE01CE969C
:1012F0000E94B208CE01845B9F4F18C0CE01C096F9
:101300000E948108D8018C91882341F0CE010E946F
:10131000F107CE01865A9F4F0E94B208CE0188592C
:101320009F4F0E94D608CE018A589F4F0E94B20854
:101330008E0105561F4FF801C081D181209709F415
:10134000FEC0D801ED91FC9166A177A18EA19FA16D
:101350000E943512892B09F0F2C0CE010E94FA08D2
:101360000AA4DBA5C02DEACFCB55DF4F48815981B8
:101370006A817B814F5F5F4F6F4F7F4F48835983F7
:101380006A837B83F12CDBC06C01B6E9CB0ED11CE8
:10139000F60130818B569F4F5C018E0105561F4F21
:1013A000311134C06E0196E8C90ED11C67E371E0BB
:1013B000C6010E943512892B11F481E00BC06DE348
:1013C00071E0C6010E943512892B19F4F5011082D3
:1013D00003C082E0D5018C93C756DF4F8881998185
:1013E000F80191838083F801C081D181209709F4AD
:1013F000A6C0B6018EA19FA10E94351297FF9AC088
:101400008AA59BA5D8018D939C93EDCFDC01EC912F
:10141000E23009F463C0CE018A579F4FDC012C9162
:10142000222309F45BC0B0E2EB9FF0011124E32B0F
:101430003197E932F10508F051C0EC5CFF4F0C9494
:101440005819BC01CE01C0960E94980847C0FE0101
:10145000E856FF4F81E0213461F52CC0BE01605F8A
:101460007F4F09C081E0233509F080E08E8B36C0C4
:10147000BE01695E7F4F0E94690730C081E0273559
:1014800009F080E08D8F2AC0BC01CE01CE9624C029
:10149000BC01CE01845B9F4F1FC0BC01CE01829670
:1014A0000E94A5081BC0FE01E856FF4F81E02133D2
:1014B0000CF480E0808312C0BC01CE0188599F4F9C
:1014C0000E94ED080BC0BC01CE018A589F4F04C09A
:1014D000BC01CE01865A9F4F0E94C908F801A08026
:1014E000B180CA57DF4FA114B10449F1D801ED9181
:1014F000FC9166A177A1F50186A197A10E94351202
:10150000892BE9F4D50198962D913C919997F60194
:10151000808190E08217930794F02817390721F40F
:10152000BE01C5010E940D09D5019A96AD90BC90EF
:101530009B97D9CF892B19F0D8011D921C928F2D22
:10154000DF91CF911F910F91FF90DF90CF90BF90CF
:10155000AF900895CF92DF92EF92FF920F931F9377
:10156000CF93DF931F92CDB7DEB76C01262FFC011E
:10157000E356FF4F40815181628173814F5F5F4F1E
:101580006F4F7F4F40835183628373838C01095671
:101590001F4F8B579F4F7C01243281F134F42A3046
:1015A00071F02D3009F040C00AC02A3241F02C32CF
:1015B000D9F5F601EC57FF4F808182278083F8012F
:1015C00080818F3060F4F601E80FF11DEA57FF4F7C
:1015D0001082C60129830E941109298101C080E07F
:1015E000F601EA56FF4F90819F5F9083F8011082C9
:1015F00091E02A3209F090E0F7012CC0F801108246
:10160000F601EA56FF4F1082F601EC57FF4F1082A9
:10161000F601EB56FF4F82E08083F7011082F6015E
:10162000E856FF4F108218C0F80180818E3048F4D0
:1016300091E0980F9083F601E80FF11DEA57FF4FF4
:101640002083F7018081811107C0F601EC57FF4F1D
:1016500090819227908301C080E00F90DF91CF911D
:101660001F910F91FF90EF90DF90CF900895209100
:1016700088033091890328173907B9F490914603FC
:1016800080914703981789F0E0914603F0E0E85B0A
:10169000FC4F80812091460330E02F5F3F4F2F7336
:1016A00033272093460390E008958FEF9FEF08952E
:1016B00020918803309189032817390781F490918C
:1016C000460380914703981751F0E0914603F0E0FC
:1016D000E85BFC4F8081992787FD909508958FEFF7
:1016E0009FEF0895209188033091890328173907C7
:1016F00071F4809147032091460390E0805C9F4FF6
:10170000821B910960E470E00E94EB18089580E06C
:1017100090E00895209188033091890328173907B4
:1017200039F48FB7F89410924703109246038FBF95
:101730000895DC015196ED91FC91529720815096CD
:101740008C91809582238083089520E001972FEF6C
:101750008F3F9207D9F7089520918803309189032C
:101760002817390789F0FC01238D2E7F238F2FB78F
:10177000F894109247031092460390938903809344
:1017800088032FBF81E0089580E00895EF92FF92D3
:101790000F931F93CF93DF93EC018B8DEE85FF8525
:1017A0009D8581FF04C08081892329F447C0808101
:1017B000892309F043C08B899C890E94A50B08E00E
:1017C00010E0EE24E394F12C8D899E890E94A50BF4
:1017D000EE85FF8580819D85892311F0FE2803C059
:1017E0008E2D8095F822EE0C01501109011511057E
:1017F00059F78F89988D0E94A50B8B8D81FDF094F0
:10180000809147032091460390E001968F739927BA
:1018100030E08217930779F0E0914703F0E0E85B4E
:10182000FC4FF0828091470390E001968F739927D7
:101830008093470303C08B8D81608B8FDF91CF91A5
:101840001F910F91FF90EF900895611102C00C94C9
:10185000990BDC015196ED91FC91529720815096A5
:101860008C91282B20830895DF92EF92FF920F93A3
:101870001F93CF93DF93EC01E62E898D9A8D892BF0
:1018800039F481E090E09B838A8380E090E04DC052
:10189000DFB6F8946B8D66956170CE010E94250CC1
:1018A000898D9A8D05960E94A50B8B8D08E010E01E
:1018B000FF24F39481FF19C08F2D8E2121F0CE01DA
:1018C0000E94990B04C061E0CE010E94250C898D15
:1018D0009A8D0E94A50BFF0C0150110901151105ED
:1018E00059F7CE010E94990B19C08F2D8E2129F036
:1018F00061E0CE010E94250C03C0CE010E94990B2D
:10190000898D9A8D0E94A50BFF0C015011090115BC
:10191000110559F761E0CE010E94250CDFBE898DCB
:101920009A8D0E94A50B81E090E0DF91CF911F91ED
:101930000F91FF90EF90DF90089580918803909130
:101940008903009711F00C94C60B08951F920F9213
:101950000FB60F9211242F933F934F935F936F9382
:101960007F938F939F93AF93BF93EF93FF930E94C7
:101970009D0CFF91EF91BF91AF919F918F917F91BE
:101980006F915F914F913F912F910F900FBE0F90EC
:101990001F9018951F920F920FB60F9211242F933C
:1019A0003F934F935F936F937F938F939F93AF93E7
:1019B000BF93EF93FF930E949D0CFF91EF91BF9116
:1019C000AF919F918F917F916F915F914F913F91D7
:1019D0002F910F900FBE0F901F9018951F920F928E
:1019E0000FB60F9211242F933F934F935F936F93F2
:1019F0007F938F939F93AF93BF93EF93FF930E9437
:101A00009D0CFF91EF91BF91AF919F918F917F912D
:101A10006F915F914F913F912F910F900FBE0F905B
:101A20001F9018951F93CF93DF93EC01162F61E061
:101A3000812F0E94820E61E0812F0E94BB0E812FB8
:101A400090E0FC01E757FE4FE491E88BFC01E35680
:101A5000FE4FE491F0E0EE0FFF1FE554FE4F85913D
:101A600094919A8B898BDF91CF911F9108951F9349
:101A7000CF93DF93EC01162F60E0812F0E94820E3E
:101A80008B8D81FD04C061E0812F0E94BB0E1C87FD
:101A9000812F90E0FC01E757FE4FE491ED87FC01B8
:101AA000E356FE4FE491F0E0EE0FFF1FEF54FE4FC0
:101AB000859194919F878E87DF91CF911F91089593
:101AC000FF920F931F93CF93DF93EC01F62E522FCB
:101AD0001B821A8208EE13E020E030E00C831D83A5
:101AE0002E833F838BE691E0998388831C8A1B8A2F
:101AF0001E8A1D8A188E1F8A1A8E198E8B8D8E7FD4
:101B000050FB81F98B8F642FCE010E94120D6F2D37
:101B1000CE01DF91CF911F910F91FF900C94370D63
:101B20000F931F93CF93DF93EC011A8E198E188EAB
:101B30001F8A1E8A1D8AA9EDB0E080E090E0FD01B9
:101B4000059115912591349104171507260737073C
:101B500019F54CE0489F9001499F300D1124F9017F
:101B6000E352FF4F859194919C8B8B8BF901E1524D
:101B7000FF4F859194919E8B8D8BF901EF51FF4F13
:101B800085919491988F8F8B2D513F4FF9018591BD
:101B900094919A8F898F08C001961C968D3091057B
:101BA00009F0CDCF1C8A1B8A8F89988D892B09F467
:101BB00043C08C858631E0F520916800883050F074
:101BC00091E08E3008F490E081E001C0880F9A9592
:101BD000EAF701C084E0822B809368002C852830CE
:101BE00038F02E3040F0263148F0E0E0F0E008C058
:101BF000EDE6F0E005C0EBE6F0E002C0ECE6F0E078
:101C00003081283030F481E001C0880F2A95EAF74E
:101C10000DC0822F90E02E3010F4089701C00E976F
:101C200091E001C0990F8A95EAF7892F832B808371
:101C3000898D9A8D0E94A50BCE01DF91CF911F91C6
:101C40000F910C94AC0BFC014485463150F54830A3
:101C500028F04E3030F4EBE6F0E005C0EDE6F0E0C1
:101C600002C0ECE6F0E05081483040F481E090E0C2
:101C7000042E01C0880F0A94EAF710C0242F30E028
:101C80004E3018F42850310902C02E50310981E03D
:101C900090E0022E01C0880F0A94EAF78095852310
:101CA000808308952BE631E0FC01318320830C947E
:101CB000230E833081F028F4813099F08230A1F036
:101CC00008958630A9F08730B9F08430D1F480913E
:101CD00080008F7D03C0809180008F77809380008B
:101CE000089584B58F7702C084B58F7D84BD089533
:101CF0008091B0008F7703C08091B0008F7D80937A
:101D0000B0000895CF93DF9390E0FC01E757FE4FBA
:101D10002491FC01E356FE4F8491882349F190E021
:101D2000880F991FFC01EB53FE4FA591B491855488
:101D30009E4FFC01C591D4919FB7611108C0F894E2
:101D40008C91209582238C93888182230AC06230F3
:101D500051F4F8948C91322F309583238C938881A1
:101D6000822B888304C0F8948C91822B8C939FBF24
:101D7000DF91CF9108950F931F93CF93DF931F921D
:101D8000CDB7DEB7282F30E0F901EB58FE4F849134
:101D9000F901E757FE4F1491F901E356FE4F049104
:101DA0000023C9F0882321F069830E94590E6981BC
:101DB000E02FF0E0EE0FFF1FE554FE4FA591B49128
:101DC0009FB7F8948C91611103C01095812301C0D5
:101DD000812B8C939FBF0F90DF91CF911F910F911B
:101DE00008951092F70381E08093F5031092F403B5
:101DF00061E082E10E94BB0E61E083E10E94BB0EC4
:101E0000E9EBF0E080818E7F808380818D7F80830D
:101E100088E48093B80085E48093BC0008950F9314
:101E2000413208F046C09091F7039111FCCF92E047
:101E30009093F7030093F5039FEF90938A0310921A
:101E4000CF034093CE03FB0160ED73E0DB019A2FDB
:101E5000961B941718F491919D93F9CF1092F60365
:101E60009091F603880F892B8093F6038091F403F9
:101E7000813041F41092F4038091F6038093BB000B
:101E800085EC01C085EE8093BC00222321F0809177
:101E9000F7038230E1F380918A038F3F61F08091F4
:101EA0008A03803251F080918A03803341F483E0C9
:101EB00007C081E005C080E003C082E001C084E08B
:101EC0000F910895613298F42091F703243089F43A
:101ED0006093AC03FC018EEA93E0DC012A2F281BFF
:101EE000261718F421912D93F9CF80E0089581E011
:101EF000089582E0089585ED8093BC008091BC0038
:101F000084FDFCCF1092F703089585EC8093BC000C
:101F10001092F70308951F920F920FB60F9211249B
:101F20002F933F934F935F936F937F938F939F93E1
:101F3000AF93BF93EF93FF938091B900887F803672
:101F400009F49CC068F5883209F45BC090F48031D4
:101F500009F454C038F4882309F4F5C0883009F432
:101F60004DC0F5C0883109F44CC0803209F45DC021
:101F7000EEC0803409F468C048F4803309F455C0D9
:101F8000883309F0E4C080938A03A8C0803509F43F
:101F90004FC0883509F45DC0883409F0D8C0D5C079
:101FA000883909F4C6C0A8F4883709F467C038F442
:101FB000883609F463C0803709F460C0C8C0883827
:101FC00009F4B7C0803909F45FC0803809F0BFC098
:101FD0005BC0803B09F485C038F4803A09F466C0E0
:101FE000883A09F47EC0B3C0803C09F4A6C0883C9E
:101FF00009F4A3C0883B09F489C0A9C08091F60305
:1020000010C09091CF038091CE03981770F5E091A6
:10201000CF0381E08E0F8093CF03F0E0E053FC4FBD
:1020200080818093BB0085EC85C080938A038DC03E
:10203000E091CF0381E08E0F8093CF038091BB00AE
:10204000F0E0E053FC4F80839091CF038091CE036A
:102050006DC0E091CF0381E08E0F8093CF0380911C
:10206000BB00F0E0E053FC4F80838091F5038111C9
:102070006CC081E08093F40384EA60C083E08093C5
:10208000F70310928B03CFCF80918B03803208F03F
:1020900050C0E0918B0381E08E0F80938B03809181
:1020A000BB00F0E0E457FC4F8083BDCF80918B03F1
:1020B000803230F4E0918B03F0E0E457FC4F108263
:1020C0000E947B0F60918B0370E0E091F003F09130
:1020D000F1038CE893E0099510928B030E94850F21
:1020E00036C084E08093F7031092AD031092AC03E6
:1020F000E091F203F091F30309958091AC03811113
:1021000005C081E08093AC031092AE03E091AD0373
:1021100081E08E0F8093AD03F0E0E255FC4F8081AB
:102120008093BB009091AD038091AC03981708F4A5
:102130007ACF85E88093BC000AC085EC8093BC0010
:102140001092F70304C010928A030E947B0FFF9144
:10215000EF91BF91AF919F918F917F916F915F911F
:102160004F913F912F910F900FBE0F901F90189598
:10217000EF920F931F93CF93DF93E80147FF02C0C5
:1021800034E101C034E0E42FFF27E7FDF095F7FFCD
:1021900003C0F195E195F109E32E022F2E2FAE0138
:1021A0000E94B815CE01DF91CF911F910F91EF9052
:1021B0000895CF93DF938230910510F482E090E090
:1021C000E091FA03F091FB0320E030E0A0E0B0E002
:1021D000309739F14081518148175907B8F04817B5
:1021E000590771F482819381109729F013969C937B
:1021F0008E9312972CC09093FB038093FA0327C011
:102200002115310531F04217530718F0A901DB0100
:1022100001C0EF019A01BD01DF010280F381E02DD1
:10222000D7CF21153105F9F0281B390B24303105A2
:1022300080F48A819B816115710521F0FB019383F4
:10224000828304C09093FB038093FA03FE013296CD
:1022500044C0FE01E20FF31F819391932250310994
:10226000398328833AC02091F8033091F903232B56
:1022700041F420910201309103013093F90320933E
:10228000F80320910001309101012115310541F43D
:102290002DB73EB74091040150910501241B350B29
:1022A000E091F803F091F903E217F307A0F42E1B75
:1022B0003F0B2817390778F0AC014E5F5F4F2417AA
:1022C000350748F04E0F5F1F5093F9034093F80312
:1022D0008193919302C0E0E0F0E0CF01DF91CF91D4
:1022E0000895CF93DF93009709F487C0FC013297DC
:1022F00013821282C091FA03D091FB03209781F4DC
:1023000020813181280F391F8091F8039091F903C2
:102310008217930779F5F093F903E093F8036DC002
:10232000DE0120E030E0AE17BF0750F412964D9169
:102330005C9113979D014115510509F1DA01F3CF25
:10234000B383A28340815181840F951F8A179B0715
:1023500071F48D919C911197840F951F0296918332
:10236000808312968D919C9113979383828321157C
:10237000310529F4F093FB03E093FA033EC0D90141
:102380001396FC93EE9312974D915D91A40FB51F98
:10239000EA17FB0779F480819181840F951F0296DB
:1023A000D90111969C938E938281938113969C936D
:1023B0008E931297E0E0F0E08A819B81009719F0FC
:1023C000FE01EC01F9CFCE01029628813981820FFE
:1023D000931F2091F8033091F9032817390769F406
:1023E000309729F41092FB031092FA0302C0138273
:1023F0001282D093F903C093F803DF91CF9108952F
:102400001F93FC0199278827BC01E8941191103291
:10241000E9F3193010F01E30C8F31B3251F01D32B1
:1024200049F4689406C00E945412610F711D811D09
:10243000911D119110531A30B0F33EF49095809590
:10244000709561957F4F8F4F9F4F1F910895F8941E
:102450000C946D19FB01DC010D900020E9F7119738
:1024600001900D920020E1F70895FB01DC018D91B0
:10247000019080190110D9F3990B0895FB01DC013B
:1024800001900D920020E1F70895FB01DC0141501D
:10249000504048F001900D920020C9F701C01D92F4
:1024A00041505040E0F70895592F482F372F262FDD
:1024B000660F771F881F991F660F771F881F991F48
:1024C000620F731F841F951F660F771F881F991F48
:1024D0000895AEE0B0E0EFE6F2E10C942F190D891B
:1024E0001E8986E08C831A8309838FEF9FE79E8382
:1024F0008D83AE01475E5F4F6F89788DCE01019667
:102500000E94E613EF81F885E00FF11F10822E96EE
:10251000E4E00C944B195058BB27AA270ED01CC1DD
:102520000DD130F012D120F031F49F3F11F41EF4A0
:1025300002C10EF4E095E7FBF8C0E92F1ED180F34D
:10254000BA17620773078407950718F071F49EF5B0
:1025500036C10EF4E0950B2EBA2FA02D0B01B90158
:1025600090010C01CA01A0011124FF27591B99F009
:10257000593F50F4503E68F11A16F040A22F232F15
:10258000342F4427585FF3CF469537952795A79565
:10259000F0405395C9F77EF41F16BA0B620B730B0C
:1025A000840BBAF09150A1F0FF0FBB1F661F771F7D
:1025B000881FC2F70EC0BA0F621F731F841F48F432
:1025C000879577956795B795F7959E3F08F0B3CFB8
:1025D0009395880F08F09927EE0F979587950895A2
:1025E0000CD0BAC0B2D040F0A9D030F021F45F3F97
:1025F00019F09BC05111E4C09EC0BFD098F399233D
:10260000C9F35523B1F3951B550BBB27AA276217B6
:102610007307840738F09F5F5F4F220F331F441FFB
:10262000AA1FA9F333D00E2E3AF0E0E830D0915033
:102630005040E695001CCAF729D0FE2F27D0660F20
:10264000771F881FBB1F261737074807AB07B0E85F
:1026500009F0BB0B802DBF01FF2793585F4F2AF075
:102660009E3F510568F061C0ABC05F3FECF3983E00
:10267000DCF3869577956795B795F7959F5FC9F7D2
:10268000880F911D9695879597F90895E1E0660F5B
:10269000771F881FBB1F621773078407BA0720F0D4
:1026A000621B730B840BBA0BEE1F88F7E09508953D
:1026B000E89409C097FB3EF49095809570956195DC
:1026C0007F4F8F4F9F4F9923A9F0F92F96E9BB2792
:1026D0009395F695879577956795B795F111F8CF0E
:1026E000FAF4BB0F11F460FF1BC06F5F7F4F8F4F79
:1026F0009F4F16C0882311F096E911C0772321F06F
:102700009EE8872F762F05C0662371F096E8862F06
:1027100070E060E02AF09A95660F771F881FDAF75D
:10272000880F9695879597F9089597F99F6780E8A0
:1027300070E060E008959FEF80EC089500240A9413
:102740001616170618060906089500240A9412168C
:102750001306140605060895092E0394000C11F4BF
:10276000882352F0BB0F40F4BF2B11F460FF04C06C
:102770006F5F7F4F8F4F9F4F089557FD9058440FC5
:10278000551F59F05F3F71F04795880F97FB991FD0
:1027900061F09F3F79F0879508951216130614068D
:1027A000551FF2CF4695F1DF08C01616170618061A
:1027B000991FF1CF86957105610508940895E894F5
:1027C000BB2766277727CB0197F90895ACE0B0E0E7
:1027D000ECEEF3E10C9421197C016B018A01FC0100
:1027E00017821682838181FFBDC1CE0101964C0103
:1027F000F7019381F60193FD859193FF81916F011C
:10280000882309F4ABC1853239F493FD859193FF98
:1028100081916F01853229F4B70190E00E9424185C
:10282000E7CF512C312C20E02032A0F48B3269F01C
:1028300030F4803259F0833269F420612CC08D323B
:1028400039F0803339F4216026C02260246023C02F
:10285000286021C027FD27C030ED380F3A3078F4CA
:1028600026FF06C0FAE05F9E300D1124532E13C0E0
:102870008AE0389E300D1124332E20620CC08E3237
:1028800021F426FD6BC1206406C08C3611F420684B
:1028900002C0883641F4F60193FD859193FF819142
:1028A0006F018111C1CF982F9F7D9554933028F4EB
:1028B0000C5F1F4FFFE3F9830DC0833631F0833780
:1028C00071F0833509F05BC022C0F80180818983F3
:1028D0000E5F1F4F44244394512C540115C03801FE
:1028E000F2E06F0E711CF801A080B18026FF03C0DA
:1028F000652D70E002C06FEF7FEFC5012C870E944D
:1029000019182C0183012C852F77222E17C038012E
:10291000F2E06F0E711CF801A080B18026FF03C0A9
:10292000652D70E002C06FEF7FEFC5012C870E941C
:102930000E182C012C852068222E830123FC1BC03D
:10294000832D90E048165906B0F4B70180E290E07C
:102950000E9424183A94F4CFF50127FC859127FEB4
:1029600081915F01B70190E00E94241831103A94E0
:10297000F1E04F1A51084114510471F7E5C0843653
:1029800011F0893639F5F80127FF07C060817181A0
:10299000828193810C5F1F4F08C0608171818827FD
:1029A00077FD8095982F0E5F1F4F2F76B22E97FFE1
:1029B00009C090958095709561957F4F8F4F9F4F7F
:1029C0002068B22E2AE030E0A4010E945618A82EFA
:1029D000A81844C0853729F42F7EB22E2AE030E0B3
:1029E00025C0F22FF97FBF2E8F36C1F018F488353D
:1029F00079F0B4C0803719F0883721F0AFC02F2F9D
:102A00002061B22EB4FE0DC08B2D8460B82E09C09B
:102A100024FF0AC09F2F9660B92E06C028E030E040
:102A200005C020E130E002C020E132E0F801B7FE4D
:102A300007C060817181828193810C5F1F4F06C046
:102A40006081718180E090E00E5F1F4FA4010E94C1
:102A50005618A82EA818FB2DFF77BF2EB6FE0BC068
:102A60002B2D2E7FA51450F4B4FE0AC0B2FC08C072
:102A70002B2D2E7E05C07A2C2B2D03C07A2C01C065
:102A8000752C24FF0DC0FE01EA0DF11D80818033FD
:102A900011F4297E09C022FF06C07394739404C008
:102AA000822F867809F0739423FD13C020FF06C09F
:102AB0005A2C731418F4530C5718732C731468F4AD
:102AC000B70180E290E02C870E94241873942C8533
:102AD000F5CF731410F4371801C0312C24FF12C045
:102AE000B70180E390E02C870E9424182C8522FFF8
:102AF00017C021FF03C088E590E002C088E790E09E
:102B0000B7010CC0822F867859F021FD02C080E207
:102B100001C08BE227FD8DE2B70190E00E942418EE
:102B2000A51438F4B70180E390E00E9424185A9469
:102B3000F7CFAA94F401EA0DF11D8081B70190E06E
:102B40000E942418A110F5CF332009F451CEB7010B
:102B500080E290E00E9424183A94F6CFF701868133
:102B6000978102C08FEF9FEF2C96E2E10C943D1904
:102B70006F927F929F92AF92BF92CF92DF92EF922D
:102B8000FF920F931F93CF93DF93CDB7DEB72997B3
:102B90000FB6F894DEBF0FBECDBF6A01B22E102F64
:102BA0000C3320F4FF24F394F00E02C04CE3F42E17
:102BB0000F2D27E0AE014F5F5F4F0E9436177981DE
:102BC000272F2970213031F0E1FC06C0E0FC06C05F
:102BD00060E005C06DE203C06BE201C060E2AE2DB3
:102BE000A07173FF36C0662311F084E001C083E05A
:102BF0008B1510F4B81A01C0B12CA1110BC0F6014D
:102C00008B2D90E2882319F091938150FBCFCB0C50
:102C1000D11CB12C662331F0F601608396012F5F41
:102C20003F4F6901C6010396E2FE05C02EE4F6019E
:102C3000208331E404C02EE6F601208331E631839F
:102C40002283FC012B2D30E22223F1F1319321501C
:102C5000FBCF72FF40C0662311F084E001C083E027
:102C60008B1510F4B81A01C0B12CA1110BC0F601DC
:102C70008B2D90E2882319F091938150FBCFCB0CE0
:102C8000D11CB12C662331F0F601608396012F5FD1
:102C90003F4F6901C6010396E2FE07C029E4F60131
:102CA00020832EE4218326E406C029E6F601208352
:102CB0002EE6218326E62283FC012B2D30E22223FF
:102CC00019F031932150FBCFFC01EB0DF11D108267
:102CD0008EEF9FEFB7C0B1E0611101C0B0E04B2FA4
:102CE00050E01816190624F49C012F5F3F4F02C0D4
:102CF00021E030E0240F351F112329F0412F50E04F
:102D00004F5F5F4F02C040E050E0420F531F2B2D3A
:102D100030E04217530714F4B41A01C0B12C2E2D21
:102D2000287159F4F6012B2D30E2222319F031934A
:102D30002150FBCFCB0CD11CB12CBB2331F0F601C1
:102D4000608396012F5F3F4F6901A1110BC0F6010F
:102D50002B2D30E3222319F031932150FBCFCB0CE4
:102D6000D11CB12CF80E0A81372F3071A32E74FFBD
:102D700003C0013309F4FA941F142CF42F2D2930C9
:102D800018F028E001C021E0682F392F97FF02C01A
:102D900060E030E0462F532F612C712C3EE2932EE1
:102DA000BC01621B71099B01DC01A41BB50BE1E0B6
:102DB000F0E0EC0FFD1FAE0FBF1FE12EF12CF194E0
:102DC000E194F1084F3FFFEF5F0731F4F601908285
:102DD000B6016F5F7F4F6B01841795074CF0241786
:102DE000350734F4BD01660D771DFB01118101C06B
:102DF00010E341505109FFEF6F1A7F0AB6016F5F70
:102E00007F4F4E155F0524F0F60110836B01DACF7A
:102E10004817590739F4063320F4053319F4A11083
:102E200001C011E3F6011083FB018B2D90E2882392
:102E300019F091938150FBCFFB01EB0DF11D108236
:102E400080E090E029960FB6F894DEBF0FBECDBFAC
:102E5000DF91CF911F910F91FF90EF90DF90CF9076
:102E6000BF90AF909F907F906F900895283008F0AA
:102E700027E03327DA01990F311D87FD9160009615
:102E80006105710539F432602E5F3D9330E32A9578
:102E9000E1F708959F3F30F080387105610509F032
:102EA0003C5F3C5F3D93913008F08068911DDF935B
:102EB000CF931F930F93FF92EF92192F987F9695C0
:102EC000E92F96959695E90FFF27E75DFD4F992726
:102ED0003327EE24FF24A701E70105900894079407
:102EE00028F4360FE71EF81E491F511D660F771F85
:102EF000881F991F0694A1F70590079428F4E70E00
:102F0000F81E491F561FC11D770F881F991F661F86
:102F10000694A1F70590079428F4F80E491F561F50
:102F2000C71FD11D880F991F661F771F0694A1F731
:102F30000590079420F4490F561FC71FD81F990FFB
:102F4000661F771F881F0694A9F784911095177044
:102F500041F0D695C79557954795F794E7941A95FC
:102F6000C1F7EFECF1E068941590159135916591FA
:102F7000959105907FE27395E118F10A430B560B8A
:102F8000C90BD009C0F7E10CF11E431F561FC91F22
:102F9000D01D7EF4703311F48A95E6CFE894015089
:102FA00030F0080F0AF40027021708F4202F2395A9
:102FB000022F7A3328F079E37D932A95E9F710C040
:102FC0007D932A9589F60694979567953795179579
:102FD0001794E118F10A430B560BC90BD00998F06E
:102FE00023957E9173957A3308F070E37C932013D8
:102FF000B8F77E9170617D9330F0839571E37D9396
:1030000070E32A95E1F71124EF90FF900F911F9143
:10301000CF91DF91992787FD90950895FC01059048
:10302000615070400110D8F7809590958E0F9F1FCA
:103030000895FC016150704001900110D8F780950F
:1030400090958E0F9F1F08950F931F93CF93DF933B
:10305000182F092FEB018B8181FD03C08FEF9FEFAC
:1030600020C082FF10C04E815F812C813D814217BC
:1030700053077CF4E881F9819F012F5F3F4F39832B
:103080002883108306C0E885F985812F0995892B4F
:1030900029F72E813F812F5F3F4F3F832E83812F62
:1030A000902FDF91CF911F910F910895FA01AA27D8
:1030B000283051F1203181F1E8946F936E7F6E5F7B
:1030C0007F4F8F4F9F4FAF4FB1E03ED0B4E03CD029
:1030D000670F781F891F9A1FA11D680F791F8A1F0C
:1030E000911DA11D6A0F711D811D911DA11D20D073
:1030F00009F468943F912AE0269F11243019305D2D
:103100003193DEF6CF010895462F4770405D41931D
:10311000B3E00FD0C9F7F6CF462F4F70405D4A336A
:1031200018F0495D31FD4052419302D0A9F7EACF32
:10313000B4E0A6959795879577956795BA95C9F761
:1031400000976105710508959B01AC010A2E069454
:103150005795479537952795BA95C9F7620F731F0D
:10316000841F951FA01D08950E945E19A59F900DB4
:10317000B49F900DA49F800D911D11240895B7FF59
:103180000C94B4180E94B418821B930B0895DB01B1
:103190008F939F930E94B418BF91AF91A29F800D0F
:1031A000911DA39F900DB29F900D11240895AA1B0D
:1031B000BB1B51E107C0AA1FBB1FA617B70710F022
:1031C000A61BB70B881F991F5A95A9F78095909554
:1031D000BC01CD01089597FB072E16F4009407D08B
:1031E00077FD09D00E94D71807FC05D03EF49095D2
:1031F00081959F4F0895709561957F4F0895A1E245
:103200001A2EAA1BBB1BFD010DC0AA1FBB1FEE1F60
:10321000FF1FA217B307E407F50720F0A21BB30BAB
:10322000E40BF50B661F771F881F991F1A9469F727
:1032300060957095809590959B01AC01BD01CF0183
:1032400008952F923F924F925F926F927F928F924A
:103250009F92AF92BF92CF92DF92EF92FF920F9325
:103260001F93CF93DF93CDB7DEB7CA1BDB0B0FB62F
:10327000F894DEBF0FBECDBF09942A8839884888EC
:103280005F846E847D848C849B84AA84B984C88482
:10329000DF80EE80FD800C811B81AA81B981CE0F79
:1032A000D11D0FB6F894DEBF0FBECDBFED0108955E
:1032B000EE0FFF1F0590F491E02D0994A29FB0013D
:1032C000B39FC001A39F700D811D1124911DB29F5A
:1032D000700D811D1124911D089512E0C0EDD2E002
:1032E00004C0FE010E945A192296C23DD107C9F7B7
:0432F000F894FFCF80
:1032F4000000FC03200025642C007374617274695F
:103304006E672E2E2E2E00000000005A03E30400E8
:10331400032D0312034F0300000000DD05B00585F3
:10332400058D05A005AF054750524D430047504752
:103334004741004E004E4E4500454E45004553451D
:1033440000535345005300535357005753570057E6
:103354004E57004E4E570000000000340CE3047238
:083364000B370B580B8A0B001C
:00000001FF
