:100000000C9468000C94C1120C94EE120C949000A5
:100010000C9490000C9490000C9490000C94900020
:100020000C9490000C9490000C9490000C94900010
:100030000C9490000C9490000C9490000C94900000
:100040000C941B130C9490000C94D1140C94141564
:100050000C9490000C9490000C9490000C949000E0
:100060000C9490000C94900005A84CCDB2D44EB9DD
:100070003836A9020C50B9918688083CA6AAAA2A4B
:10008000BE000000803F01020408102040800102F1
:1000900004081020010204081020040404040404CD
:1000A000040402020202020203030303030300002A
:1000B0000000230026002900000000002500280081
:1000C0002B0000000000240027002A009E0F561677
:1000D00011241FBECFEFD8E0DEBFCDBF14E0A0E0FB
:1000E000B1E0E0EFF7E302C005900D92A237B1074F
:1000F000D9F719E0A2E7B4E001C01D92A43EB10710
:10010000E1F710E0C0EDD0E004C02297FE010E94AC
:10011000E31BCC3CD107C9F70E94AC160C94001924
:100120000C940000FC01DB0182818C938381119689
:100130008C931197848112968C93129785811396D4
:100140008C931397868114968C93149787811596B8
:100150008C931597808516968C93169781851796A4
:100160008C9388E090E00895FC01DB014C9150E015
:1001700060E070E0428353836483758311968C91B1
:100180001197582B428353836483758312968C9105
:100190001297682B428353836483758313968C91E3
:1001A0001397782B428353836483758314964C9101
:1001B000149750E060E070E0468357836087718752
:1001C00015968C911597582B4683578360877187B6
:1001D00016968C911697682B468357836087718794
:1001E00017968C91782B468357836087718788E0B8
:1001F00090E008958BE191E0089589E291E00895FF
:100200006F927F928F929F92AF92BF92CF92DF9226
:10021000EF92FF920F931F93CF93DF93FC01DB01CB
:100220008C9190E09383828311962C911197922B5D
:100230009383828312964D915D916D917C91159778
:100240005D0186E0A80EB11C8A019B010A5F1F4F69
:100250002F4F3F4F6501CA1ADB0AE12CF12CC01663
:10026000D106E206F30640F4E501F9905E01CE0105
:100270000297EC01F882EECFED01C40FD51F1D826D
:10028000CD01059695838483ED01C40FD51FCE80E3
:10029000DF80E884F984465F5F4F3D01640E751E80
:1002A0008A01222717FD2095322F0C0D1D1D2E1DB2
:1002B0003F1D43018A1A9B0AA12CB12C801691067E
:1002C000A206B30640F4E30169913E01CE01029714
:1002D000EC016883EECFC40ED51E9D012C0D3D1D93
:1002E000C9010197EC011882415051094A0F5B1F67
:1002F00057834683E901088119812A813B81D4E033
:10030000CD0ED11C3D016C0C7D1CA601662757FD4E
:100310006095762F400F511F621F731F43018A1A89
:100320009B0AA12CB12C84169506A606B70640F4AC
:10033000E301F9903E01CE010297EC01F882EECF85
:100340000C0D1D1D9D01200F311FC9010197EC01EE
:100350001882D1E0CD1AD108CA0EDB1ED186C08624
:10036000D90111968C91119712964C91129750E0E9
:1003700060E070E0BA0155274427582B8C91482B38
:1003800013968C91782B4287538764877587C801B1
:100390000496DF91CF911F910F91FF90EF90DF9026
:1003A000CF90BF90AF909F908F907F906F90089567
:1003B0008AE491E0089583E691E00895AF92BF92B8
:1003C000CF92DF92EF92FF921F93CF93DF939C0126
:1003D000FB018081D90112968C9381819281A38146
:1003E000B4815B01C5E0AC0EB11CAC01BD014B5F3B
:1003F0005F4F6F4F7F4F6501CE1ADF0AE12CF12C62
:10040000C416D506E606F70650F4E501D9905E015C
:100410007E01D2E0ED1AF108E701D882ECCFEF01BE
:10042000C80FD91F1C823496E901FC83EB83059623
:10043000DF91CF911F91FF90EF90DF90CF90BF9011
:10044000AF90089584E891E0089587E991E00895D8
:100450008BEA93E0089588EB91E0089589ED91E0AF
:1004600008958FEE91E0089580E192E0089584E28E
:1004700092E00895CF92DF92EF92FF920F931F9335
:10048000CF93DF938C01EB01888190E0A0E0B0E096
:10049000F80182839383A483B5832981922B82837D
:1004A0009383A483B5832A81A22B82839383A4831D
:1004B000B5832B81B22B82839383A483B5838C81F4
:1004C00090E0A0E0B0E086839783A087B1872D817C
:1004D000922B86839783A087B1872E81A22B868358
:1004E0009783A087B1872F81B22B86839783A087BC
:1004F000B187488550E060E070E0428753876487A9
:1005000075878985582B42875387648775878A85C5
:10051000682B42875387648775878B85782B428742
:100520005387648775878C859D85AE85BF859E01C1
:10053000205F3F4FAC01BD01405F5F4F6F4F7F4F6A
:100540006901CC1ADD0AE12CF12CC416D506E606A9
:10055000F70650F4F901D1909F017F01F2E0EF1A04
:10056000F108F701D082ECCF9E01280F391FF90165
:1005700017862F96F801D787C6874096DF91CF91CF
:100580001F910F91FF90EF90DF90CF90089585E439
:1005900092E0089585E592E0089586E792E0089557
:1005A0008FE892E0089580EB92E0089588EC92E065
:1005B000089589EE92E0089588E093E00895DF922F
:1005C000EF92FF920F931F93CF93DF937C01EB0188
:1005D000DC0112968C91888319821A821B82D12C9D
:1005E00004E010E0F7018281D816B0F4F70181AD84
:1005F00092ADF6E3DF9E800D911D1124DC01ED919B
:10060000FC91BE01600F711F0190F081E02D0995F2
:10061000080F191FD394E6CFC801DF91CF911F9126
:100620000F91FF90EF90DF90089589E293E0089595
:1006300086E393E00895CF93DF93EC0120E030E070
:1006400048EC52E46C817D818E819F810E94981AD2
:100650000E94781970934F0660934E0620E030E0B8
:1006600048EC52E46A8D7B8D8C8D9D8D0E94981A8A
:100670000E94781970934D0660934C06DF91CF91DC
:100680000895FC0186A197A1089580E192E0089564
:1006900084E292E008958E549D4FFC01808108957C
:1006A000AF92BF92CF92DF92EF92FF920F931F9380
:1006B000CF93DF93EC017B018A81DB018C938B81EB
:1006C00011968C93EC81FD81DF010D900020E9F7FC
:1006D000CD0101976C01CE1ADF0AC601A0E0B0E09F
:1006E000FB0182839383A483B5836C817D81A60102
:1006F000C70106960E940319EE81FF81DF010D906C
:100700000020E9F7CD0101975C01AE1ABF0AF7019D
:10071000EC0DFD1D850120E030E006831783208766
:1007200031879AE0C90ED11C6E817F81A501C70176
:100730008C0D9D1D0E940319CA0CDB1CE885F985F0
:10074000DF010D900020E9F7CD0101975C01AE1AA1
:10075000BF0AF701EC0DFD1D850120E030E00083AC
:1007600011832283338394E0C90ED11C6885798577
:10077000A501C7018C0D9D1D0E940319AC0CBD1C69
:100780003A852B859C858D85F701EA0DFB1D30830D
:10079000218392838383C5010496DF91CF911F91BA
:1007A0000F91FF90EF90DF90CF90BF90AF900895A2
:1007B0000F931F93CF93DF93DC01FB0112968C9173
:1007C0001297808313968D919C911497EC01099058
:1007D0000020E9F72197C81BD90B8E0120E030E0FB
:1007E000018312832383348313966D917C91149734
:1007F000AE01CF0105960E940319CE010596DF9147
:10080000CF911F910F910895BF92CF92DF92EF92F7
:10081000FF920F931F93CF93DF93EC017B018A81AB
:10082000DB018C9311961C92119712961C921297D1
:1008300013961C92FB01379640E024E030E05A8189
:10084000C90104964517F0F4AF81B88524E0429FB2
:10085000A00DB11D11246C9111965C911197129607
:100860003C91129713962C91DF0113976C93DF0143
:1008700012975C93DF0111973C9320839C014F5F9B
:100880003496DDCF4985F701E20FF31F40831182D3
:100890001282138220E03985F701E80FF91F0496D0
:1008A0002317B0F4AE85BF8534E0239FA00DB11DA2
:1008B00011246C9111965C91119712964C9112979C
:1008C00013963C9160835183428333832F5FE3CF40
:1008D00028892083118212821382B12C2889B216B2
:1008E00098F54B2D50E0440F551FEB89FC89E40F20
:1008F000F51F0190F081E02DDF010D900020E9F758
:100900009D01215031096901CE1ADF0AF701E80F74
:10091000F91F860120E030E00083118322833383B6
:100920008C010C5F1F4FEB89FC89E40FF51F608180
:100930007181A601C701800F911F0E940319C60192
:10094000800F911FB394CACFDF91CF911F910F9168
:10095000FF90EF90DF90CF90BF9008950F931F937B
:10096000CF93DF93DC01FB0112968C911297808369
:1009700013968C911397818314968C91149782838C
:1009800015968C911597838316968C911697848370
:1009900017968C911797858318968C911897868354
:1009A00019968C91199787831A968C911A9780873C
:1009B0001B968C911B9781871C968C911C97828724
:1009C0001D968C911D9783871E968D919C911F97E4
:1009D000EC0109900020E9F72197C81BD90B8E0183
:1009E00020E030E004871587268737871E966D91B3
:1009F0007C911F97AE01CF0140960E940319CE0152
:100A00004096DF91CF911F910F9108954F925F9281
:100A10007F928F929F92AF92BF92CF92DF92EF928E
:100A2000FF920F931F93CF93DF93EC018B01DB01B8
:100A3000FC908A818F1550F4B4E0FB9EB001112424
:100A40008F8198850E94361898878F83FA82F801E3
:100A50003796F12C44E050E09E012D5F3F4F8A8194
:100A6000BA016C5F7F4F6B01F81670F5408150E062
:100A700060E070E0742F662755274427DF01139745
:100A80008C91482BDF0112978C91582BDF01119725
:100A90008C91682B4B835C836D837E83A6016F8171
:100AA000788584E0F89E600D711D1124D9018D9028
:100AB0009D90AD90BC90DB018D929D92AD92BC92C9
:100AC0001397F3943496CBCFF801E40FF51FF08021
:100AD00089858F1550F484E0F89EB00111248E852D
:100AE0009F850E9436189F878E879601F98680E041
:100AF000FE013A969985D801A20FB31FA9014C5F58
:100B00005F4F6A01891748F511969C9111971296CB
:100B10004C91129750E060E070E0BA0155274427ED
:100B2000592B9C91492B13969C91792B4A875B8773
:100B30006C877D879601AE85BF8594E0899FA00D67
:100B4000B11D112440815181628173814D935D9368
:100B50006D937C9313978F5FCDCFFC9088898F1511
:100B600050F46F2D70E0660F771F8B899C890E946F
:100B700036189C8B8B8BC601F88A712C2E0151E1A3
:100B8000450E511C2889721608F044C0F801E80F80
:100B9000F91FC080D180E280F3800496F801E80F4D
:100BA000F91FAC01662757FD6095762F4C0D5D1D32
:100BB0006E1D7F1D9F01201B310B4901A12CB12C03
:100BC00084169506A606B70638F4B1909F01225008
:100BD0003109D901BC92EECFC80ED91EF801EC0D37
:100BE000FD1D319710829C0121503109200F311FCA
:100BF0003A8B298BC6013B892C89E32FF22FE70D15
:100C0000F11DE70DF11DD2012D913C91318320831F
:100C10007394B8CFDF91CF911F910F91FF90EF9018
:100C2000DF90CF90BF90AF909F908F907F905F901C
:100C30004F900895AF92BF92CF92DF92EF92FF92C2
:100C40000F931F93CF93DF9300D000D01F92CDB7A7
:100C5000DEB78C016B01643671053CF0FC01EE548B
:100C6000FD4F8081882309F485C0DA01ED91FC9164
:100C70000190F081E02DB8016D5C7E4FCA010995AD
:100C80007C015801B4EDAB1ABEEFBB0A2FEFF501A2
:100C900020832EEFF801E35DFE4F2083F801E25D33
:100CA000FE4F8083F801E15DFE4F9083890F8095B0
:100CB000F801E05DFE4F8083F801EF5CFE4FC082DB
:100CC000F801EE5CFE4FD08285E090E020E030E05D
:100CD000A701495F5F4F8417950750F4F801E80FAB
:100CE000F91FE45DFE4F6081260F311D0196F3CFA1
:100CF000F8E0EF0EF11C400F511FFA01E45DFE4FCA
:100D00002095208329E1E21621E0F206C8F465016E
:100D1000C6018A199B098E159F0584F4D801129685
:100D20008D919C911397F60161916F01DC01ED911A
:100D3000FC910190F081E02D0995EACFC7011CC01C
:100D400083EE93E09A83898383E08B8387E593E046
:100D50009D838C83D801ED91FC910190F081E02D71
:100D6000AE014F5F5F4F67E070E0C80109958FEFFC
:100D70009FEF02C080E090E00F900F900F900F90D7
:100D80000F90DF91CF911F910F91FF90EF90DF9027
:100D9000CF90BF90AF9008958F929F92AF92BF92E5
:100DA000CF92DF92EF92FF920F931F93CF93DF9337
:100DB000EC01CB01BA018B019C01B7E13595279578
:100DC00017950795BA95D1F71127222733270115D3
:100DD00011052105310521F000581C4F2F4F3F4FC1
:100DE000188219821A826B017C01B5E0CC0CDD1CE3
:100DF000EE1CFF1CBA95D1F7CB826B017C0143E05E
:100E0000F594E794D794C7944A95D1F7CC826B01B7
:100E10007C015BE0F594E794D794C7945A95D1F799
:100E2000CD8268017901E4E0CC0CDD1CEE1CFF1CD6
:100E3000EA95D1F74B015C01F3E1B594A79497943F
:100E40008794FA95D1F7482D4F704C294E8368014D
:100E50007901A4E0F594E794D794C794AA95D1F7C3
:100E600020E030E0A9010E94711987FD02C0CF8205
:100E700003C08C2D80688F8388E090E0DF91CF9154
:100E80001F910F91FF90EF90DF90CF90BF90AF90A8
:100E90009F908F900895EF92FF920F931F93CF939F
:100EA000DF938C01EB01FC014281538164817581E8
:100EB000CE010E94CC067C01F801468157816085F5
:100EC0007185CE018E0D9F1D0E94CC06E80EF91E85
:100ED000F8014285538564857585CE018E0D9F1D71
:100EE0000E94CC068E0D9F1DDF91CF911F910F9117
:100EF000FF90EF900895EF92FF920F931F93CF937F
:100F0000DF938C017B0102960E944B07EC01B70135
:100F1000680F791FC80140960E944B078C0F9D1FD8
:100F2000DF91CF911F910F91FF90EF900895EF9275
:100F3000FF920F931F93CF93DF938C01EB01FC0182
:100F40004281538164817581CE010E94CC067C016F
:100F5000F8014681578160857185CE018E0D9F1DF8
:100F60000E94CC06E80EF91EF8014285538564857F
:100F70007585CE018E0D9F1D0E94CC06E80EF91ED0
:100F8000F8014685578560897189CE018E0D9F1DB8
:100F90000E94CC068E0D9F1DDF91CF911F910F9166
:100FA000FF90EF900895EF92FF920F931F93CF93CE
:100FB000DF938C017B0102960E944B07EC01B70185
:100FC000680F791FC80140960E9497078C0F9D1FDC
:100FD000DF91CF911F910F91FF90EF900895CF92E5
:100FE000DF92EF92FF920F931F93CF93DF937C01D9
:100FF0006B0102960E94AE04D7015296ED91FC91CE
:101000005397EF0109900020E9F72197CE1BDF0BE2
:10101000F601E80FF91F8E0120E030E00083118314
:10102000228333838C010C5F1F4F52966D917C910C
:101030005397AE01C601800F911F0E940319C00F84
:10104000D11FB6016C0F7D1FC70144960E94D307C4
:101050008C0F9D1FDF91CF911F910F91FF90EF900B
:10106000DF90CF9008950F931F93FC01DB01038164
:1010700002950695077010E020E030E00D931D9377
:101080002D933C931397448150E060E070E083E03F
:10109000440F551F661F771F8A95D1F7402B512BA0
:1010A000622B732B4D935D936D937C931397058106
:1010B00010E020E030E09BE0000F111F221F331FE3
:1010C0009A95D1F7042B152B262B372B0D931D93B7
:1010D0002D933C93139746814F7050E060E070E091
:1010E00083E1440F551F661F771F8A95D1F7402B68
:1010F000512B622B732B4D935D936D937C931397C0
:10110000868182958F7007810F7710E020E030E0B4
:1011100094E0000F111F221F331F9A95D1F7082B5F
:101120000115110521053105A1F0005813402109D1
:10113000310997E1000F111F221F331F9A95D1F734
:10114000042B152B262B372B0D931D932D933C939E
:1011500013970781007810E020E030E0302F22273D
:10116000112700274D915D916D917C911397402B34
:10117000512B622B732B4D935D936D937C9313973F
:1011800088E090E01F910F910895EF92FF920F93E6
:101190001F93CF93DF938C01EB01BC016E5F7F4FF8
:1011A000CE010E9433087C01B8016A5F7F4FCE01F7
:1011B0008E0D9F1D0E943308E80EF91EB801665F70
:1011C0007F4FCE018E0D9F1D0E9433088E0D9F1DF7
:1011D000DF91CF911F910F91FF90EF900895EF92C3
:1011E000FF920F931F93CF93DF938C017B010296A5
:1011F0000E94C508EC01B701680F791FC80140962D
:101200000E94C5088C0F9D1FDF91CF911F910F91F8
:10121000FF90EF9008950F931F93CF93DF93EC010E
:101220008C010A5F1F4FC8010E94EF08ECA1FDA1CD
:10123000C801DF91CF911F910F910994EF92FF9216
:101240000F931F93CF93DF938C01EB01BC016E5F73
:101250007F4FCE010E9433087C01B8016A5F7F4F47
:10126000CE018E0D9F1D0E943308E80EF91EB801B5
:10127000665F7F4FCE018E0D9F1D0E943308E80EE2
:10128000F91EB801625F7F4FCE018E0D9F1D0E9437
:1012900033088E0D9F1DDF91CF911F910F91FF900D
:1012A000EF900895EF92FF920F931F93CF93DF93E8
:1012B0008C017B0102960E94C508EC01B701680F02
:1012C000791FC80140960E941E098C0F9D1FDF9157
:1012D000CF911F910F91FF90EF9008958F929F9261
:1012E000AF92BF92CF92DF92EF92FF920F931F9334
:1012F000CF93DF937C01EB0102960E943A02FE013C
:10130000E80FF91F00811181228133816C0144E0D3
:10131000C40ED11CDE01AC0DBD1DA601662757FD14
:101320006095762F400F511F621F731F4D018C1A5D
:101330009D0AA12CB12C84169506A606B70630F49A
:10134000BD90CD010297FC01B082F0CF0C0D1D1DA8
:10135000BE01600F711FDB0111971C92F6013197DE
:10136000EC0FFD1FD7015396FC93EE935297C701E4
:1013700044960E945209800F911FDF91CF911F91D7
:101380000F91FF90EF90DF90CF90BF90AF909F9024
:101390008F900895AF92BF92CF92DF92EF92FF921B
:1013A0000F931F93CF93DF93EC017B01FB0110811F
:1013B0008A81811750F4F6E31F9FB001112489AD93
:1013C0009AAD0E9436189AAF89AF1A83B12C04E007
:1013D00010E06E0183E0C80ED11C26E3A22E8A81A4
:1013E000B816B8F4B701600F711FC6010E946E09EC
:1013F000080F191FA9ADBAADE6E3BE9EA00DB11D41
:101400001124F6018A2D01900D928A95E1F7B3948B
:10141000E6CFC801DF91CF911F910F91FF90EF9020
:10142000DF90CF90BF90AF900895CF93DF93AB0143
:10143000EC01AE81BF81ED91FC9111976C817D81B2
:101440000190F081E02DCD01DF91CF910994DC0175
:10145000ED91FD918081ED91FD919081ED91FD9156
:101460006C9163708E2309F064609F2309F06860BB
:10147000E4E4FAE0E60FF11D659565956D936D91D5
:101480007D918D919D91099423C01AC012C016C000
:1014900010C01EC009C014C013C006C019C009C0C6
:1014A0000DC007C00DC014C0625070408040904015
:1014B0000BC0615070408040904006C06E5F01C01C
:1014C0006F5F7F4F8F4F9F4F9E938E937E936E9350
:1014D00008958091DE099091DF090C94270A80918C
:1014E000DC099091DD090C94270A823061F0833089
:1014F000B9F47093DF096093DE0941E050E069E6DA
:101500007AE081E009C07093DD096093DC0941E075
:1015100050E06FE67AE080E00E94A11281E0089539
:1015200080E008950F931F93CF93DF93EC01062F74
:10153000142F62E0802F0E94001462E0812F0E942D
:101540000014202F30E0F901E656FF4FE491F0E05F
:10155000EE0FFF1FE255FF4F459154915983488389
:10156000F901EA57FF4F24912C83212F30E0F90134
:10157000E656FF4FE491F0E0EE0FFF1FE255FF4FFC
:10158000A591B491BB83AA83F901EA57FF4F249137
:101590002D831F82188619861A8680ED97E00E9497
:1015A000BA13E881F98190818C81982381E009F454
:1015B00080E0EA81FB8190812D81922309F0826095
:1015C0008E83BE01802F0E94750A8B87BE01812FFA
:1015D0000E94750A2B8590E0820F911D8B87DF9109
:1015E000CF911F910F910895FC0187E394E09183BF
:1015F000808383E194E09383828314821582168230
:101600001782108611861286138614861586168612
:1016100017868FE893E0918B808B938B828B8BE284
:1016200094E0958B848B8BEF93E0978B868B108E59
:10163000118E128E138E148E158E168E178E10A28A
:1016400011A212A213A28FE194E095A384A316A283
:1016500017A210A611A612A613A614A615A616A6C2
:1016600017A610AA11AA12AA13AA14AA15AA0895B5
:101670004091540650915506609156067091570658
:1016800080915206909153060E944F151092F908CE
:101690001092F8081092FB081092FA081092FF08B6
:1016A0001092FE081092FD081092FC08E6ECF8E09B
:1016B00080E090E021913191232B81F4FC01EE0F29
:1016C000FF1FEA53F74F2DE135E0318320838C591A
:1016D0009F4F9093200580931F0504C00196893188
:1016E000910541F7E4E9F8E080E090E02191319143
:1016F000232BB1F4FC01EE0FFF1FEC56F74F2AE845
:1017000034E03183208383589F4F90938F048093DC
:101710008E0480E596E0909391048093900404C039
:1017200001968931910511F7E4E9F8E080E090E055
:1017300021913191232BB1F4FC01EE0FFF1FEC56E8
:10174000F74F2FEC34E03183208383589F4F9093E1
:10175000D4048093D30480E596E09093D6048093DC
:10176000D50404C001968931910511F726E240E0C5
:101770005BE460E070E082E399E00C94D0150F9395
:101780001F93CF93DF93CDB7DEB72A970FB6F894A8
:10179000DEBF0FBECDBF8C018BEC93E09A838983B3
:1017A0001B821C821D821E821F82188619861A8641
:1017B000D801ED91FC910190F081E02DAE014F5FD9
:1017C0005F4F6AE070E0C80109950E946513F80157
:1017D00060877187828793872A960FB6F894DEBF59
:1017E0000FBECDBFDF91CF911F910F9108954F9202
:1017F0005F926F927F928F929F92AF92BF92CF92A1
:10180000DF92EF92FF920F931F93CF93DF93CDB7A9
:10181000DEB72E970FB6F894DEBF0FBECDBF8C019A
:1018200087ED93E09A8389831C821B828FE893E083
:101830009E838D8398878F839A8789871B861C86D2
:101840001D861E86580182E3A80EB11C780188E12E
:10185000482E55245394612C712C6701ACEBCA1AA5
:10186000ADEFDA0AD601ED91FC913097B9F18481A0
:1018700095819C838B83808191819E838D838281DE
:101880009381DC01ED91FC910480F581E02D0995B7
:1018900098878F83D601ED91FC9182819381DC0141
:1018A000ED91FC910680F781E02D09959A87898753
:1018B0004B865C866D867E86F80180819181F6017B
:1018C000A081B18118966D917C911997DC01ED9101
:1018D000FC91AE014F5F5F4FC8010995B2E0EB0E7E
:1018E000F11CEA14FB0409F0B8CF7801B8E14B2EE3
:1018F00055245394612C712C6701EAE8CE1AEDEF60
:10190000DE0AF601A081B1811097E1F112968D9166
:101910009C9113979C838B8314968D919C91159722
:101920009E838D83ED91FC9111970480F581E02DCC
:10193000CD01099598878F83D6018D919C91DC010B
:10194000ED91FC910680F781E02D09959A878987B2
:101950004B865C866D867E86D801ED91FC918080F9
:101960009180F60180819181DC01ED91FC910280F2
:10197000F381E02D0995AE014F5F5F4FBC01C801B7
:10198000F4010995F2E0EF0EF11CEA14FB0409F0F2
:10199000B3CFF801EE54FD4F81E080832E960FB651
:1019A000F894DEBF0FBECDBFDF91CF911F910F9195
:1019B000FF90EF90DF90CF90BF90AF909F908F906F
:1019C0007F906F905F904F9008958F929F92AF920B
:1019D000BF92CF92DF92EF92FF920F931F93CF931C
:1019E000DF93CDB7DEB72A970FB6F894DEBF0FBEF0
:1019F000CDBF8C015B018BEC93E09A8389831B82C2
:101A00001C821D821E821F82188619861A860E94D9
:101A100065136B017C01F80180859185A285B385F2
:101A2000C81AD90AEA0AFB0AB501CE0101960E943A
:101A3000B40098EE892E93E0992EA12CB12CC70109
:101A4000B601A50194010E947D1B69017A019B01E9
:101A5000AC018B819C81AD81BE818C0D9D1DAE1D25
:101A6000BF1D8B839C83AD83BE8360E472E48FE0F3
:101A700090E00E94451BCF80D884E984FA84C60E8A
:101A8000D71EE81EF91ECF82D886E986FA860E9404
:101A90006513CB80DC80ED80FE80F1E0CF1AD108A9
:101AA000E108F108A50194010E947D1B49015A013A
:101AB0009B01AC01C818D908EA08FB08F801C486E4
:101AC000D586E686F786CF80D884E984FA84F6E363
:101AD000DF1AF5E6EF0AF4ECFF0A60E472E48FE047
:101AE00090E00E94451BC61AD70AE80AF90AF801D5
:101AF000C08AD18AE28AF38AB801605F7F4FC80149
:101B00000C960E94E1160E946513F801E954FD4FFE
:101B100060837183828393832A960FB6F894DEBF25
:101B20000FBECDBFDF91CF911F910F91FF90EF902E
:101B3000DF90CF90BF90AF909F908F9008952F929D
:101B40003F924F925F926F927F928F929F92AF924D
:101B5000BF92CF92DF92EF92FF920F931F93CF939A
:101B6000DF93CDB7DEB760970FB6F894DEBF0FBE38
:101B7000CDBF4C010E9465136B017C019401295477
:101B80003D4F3E832D83F90180819181A281B381F4
:101B9000A7019601281B390B4A0B5B0BDA01C9011F
:101BA000893F9A42A105B10520F0F401EE54FD4FA2
:101BB0001082A40148555D4F588B4F87DA018D91F3
:101BC0009C91892B79F0F401E554FD4F808191813E
:101BD000A281B3818C159D05AE05BF0518F4FA01ED
:101BE000118210823401F0E56F1AFDEF7F0A940133
:101BF00024553D4F3A832983A4014E545D4F5887A5
:101C00004F83940120543D4F3C872B87A4014154BE
:101C10005D4F5E874D87840106551D4F16012701D4
:101C200054E1250E311C411C511C540184E1A80EC5
:101C3000B11C940122553D4F3C832B83A401455494
:101C40005D4F5A874987D40112968D919C911397C5
:101C5000DC01ED91FC910680F781E02D09959C0156
:101C600097FD2DC1F30180819181820F931F918394
:101C70008083AF85B8894D915C9147305105E1F47F
:101C8000EB81FC8180819181AC014F5F5F4F51837B
:101C90004083F401E80FF91F248BD8018D919C91AA
:101CA000119701978D939C93892B09F0BECF28E063
:101CB00030E0EF85F88987C04115510519F52F3FB0
:101CC000310569F481E090E0AF85B8898D939C93EC
:101CD000E985FA852082318242825382B4CF0E9404
:101CE00065136C197D098E099F09663071058105A0
:101CF000910508F49ACFF401EE54FD4F10828EEF57
:101D00009FEF03C14130510599F42E3F310519F47D
:101D100082E090E02FC0EF85F88911821082AF81B8
:101D2000B8858C91811181CFC4010E94BF0B8BCFEC
:101D30004230510589F4F80131832083AB81BC81A5
:101D40001D921C9283E090E0EF85F8899183808357
:101D5000D3012D933C9377CF4330510581F4322F3B
:101D60002227F80180819181820F931F91838083C4
:101D700084E090E0AF85B8898D939C9364CF443024
:101D8000510599F460E071E00E94691B8F3F910555
:101D900039F485E090E0EF85F8899183808353CF13
:101DA000AF85B8891D921C924ECF4530510571F414
:101DB000E981FA813183208386E090E0AF85B8899C
:101DC0008D939C93F301318320833DCF46305105A1
:101DD000D1F4322F2227A981BA818D919C9111973C
:101DE000820F931F8D939C9327E030E0EF85F88955
:101DF00031832083D8018D919C91892B09F015CFD7
:101E000028E030E0E0CF4830510509F00ECFAF8533
:101E1000B8891D921C9260E071E00E94691B8F3F9F
:101E2000910509F002CFA981BA81ED91FC9130971B
:101E3000B1F4C4010E94BF0BC4010E94F70BF4016E
:101E4000ED54FD4FC082D182E282F382ED81FE81AA
:101E5000C082D182E282F3828FEF9FEF56C0EA30D8
:101E6000F10529F4B501C4010E94E50CECCEE63081
:101E7000F10551F4B5018B859C850E94060581E032
:101E8000AD85BE858C93DFCEEB30F10521F4EF817B
:101E9000F8851082D8CEE952FF4FEE0FFF1FE80DF4
:101EA000F91D80819181009709F4BFCEDC01ED918D
:101EB000FC910190F081E02DB5010995C4CEF401AB
:101EC000EE54FD4F80818823F1F084010D541D4FA5
:101ED000F80180819181A281B381A7019601281B1D
:101EE000390B4A0B5B0BDA01C901853C9940A1050E
:101EF000B10548F0C4010E94BF0BD801CD92DD921C
:101F0000ED92FC92139780E090E060960FB6F89403
:101F1000DEBF0FBECDBFDF91CF911F910F91FF901C
:101F2000EF90DF90CF90BF90AF909F908F907F9079
:101F30006F905F904F903F902F9008958FE494E0C2
:101F4000909351068093500682E399E09093530654
:101F50008093520680E091EEA0E0B0E080935406BA
:101F600090935506A0935606B09357061092020917
:101F70008FEE93E09093110980931009109212094B
:101F800010921809109217091092190910921F093E
:101F900010921E0910922009109224091092230910
:101FA000E4E9F8E01192119288E0E63CF807D1F7F5
:101FB000E6ECF8E01192119288E0E83FF807D1F7DB
:101FC000E4E6F6E0119287E0EC37F807D9F7ECE7A2
:101FD000F7E0119288E0E439F807D9F789E594E051
:101FE00090931E0580931D0587E094E0909324054F
:101FF000809323058BEF93E090932605809325052E
:1020000010922705109228051092290510922A0592
:1020100010922B0510922C0510922D0510922E0572
:1020200010922F0510923005109231051092320552
:102030009093340580933305109235051092360540
:1020400010923705109238051092390510923A0512
:1020500010923B0510923C0510923D0510923E05F2
:1020600010923F05109240052BE133E0309342057A
:102070002093410521E030E030934405209343054F
:1020800020E933E030932205209321059093100539
:1020900080930F05109211051092120510921305EE
:1020A000109214051092150510921605109217053E
:1020B000109218051092190510921A0510921B051E
:1020C00010921C0589ED94E00E94F40A83E494E0E8
:1020D00090939504809394041092960487E994E079
:1020E0000E94F40A1092CE041092CD0489E993E084
:1020F0009093D0048093CF0484E994E09093D20429
:102100008093D1041092D8041092D7048DE993E003
:1021100090938B0480938A048FE095E090938D04D4
:1021200080938C04109293041092920444E165E130
:102130008EE794E00E94920A43E062E082E794E036
:102140000C94920A4F925F926F927F928F929F921D
:10215000AF92BF92CF92DF92EF92FF920F931F93B5
:10216000CF93DF93CDB7DEB760970FB6F894DEBF9D
:102170000FBECDBF20914E0630914F0680914C0688
:1021800090914D06253631053CF42C394FEF34073C
:102190002CF42CE93FEF02C024E630E085369105AF
:1021A0003CF48C39EFEF9E072CF48CE99FEF02C0D2
:1021B00084E690E09AE690934D0520934E05809337
:1021C0004F05109250059CE0909351052A58280F16
:1021D0002095209352050DE415E0F80161918F01DF
:1021E00082E399E00E949314F5E003351F07A9F7F5
:1021F00080918904823030F4F8948EE794E00E9454
:10220000270A01C0F894609185047091860480913A
:1022100087049091880478940E94AB19609311050B
:1022200070931205809313059093140580917D049B
:10223000823030F4F89482E794E00E94270A01C0CB
:10224000F8946091790470917A0480917B04909164
:102250007C0478940E94AB19609315057093160561
:102260008093170590931805C0901105D090120522
:10227000E0901305F0901405C0924905D0924A05EC
:10228000E0924B05F0924C0560934505709346052E
:1022900080934705909348056FE075E08AE894E0E5
:1022A0000E94150AC0900601D0900701E090080135
:1022B000F0900901C701B6010E9475192DEC3CECA4
:1022C0004CE45EE30E94981A2DEC3CEC4CEC5DE390
:1022D0000E94981A2091490530914A0540914B057A
:1022E00050914C050E940D192B013C01609349054A
:1022F00070934A0580934B0590934C05C701B60136
:102300000E94FB1A2DEC3CEC4CE45EE30E94981A10
:102310002DEC3CEC4CEC5DE30E94981A20914505B5
:102320003091460540914705509148050E940D198E
:102330004B015C016093450570934605809347050A
:10234000909348052DEB34E743E95CE3C701B60100
:102350000E940D196B017C0123EC35EF48E450E439
:102360000E94941A18164CF0C0920601D0920701F0
:10237000E0920801F09209010CC083EC95EFA8E40B
:10238000B0EC8093060190930701A0930801B093ED
:1023900009018AE091E09093EA048093E90480E1E6
:1023A00091E09093EC048093EB044092F1045092FE
:1023B000F2046092F3047092F4048092F504909217
:1023C000F604A092F704B092F80420E030E040E078
:1023D0005FE360910601709107018091080190917F
:1023E00009010E94981A6B017C010E94FB1A4B01A3
:1023F0005C01C701B6010E9475191092FF0410928A
:10240000000510920105109202051092030510922A
:10241000040510920505109206058092070590921A
:102420000805A0920905B0920A0560930B05709308
:102430000C0580930D0590930E050E94651328EE00
:1024400033E040E050E00E947D1B69017A019B016E
:10245000AC0180915C0690915D06A0915E06B09102
:102460005F068C0D9D1DAE1DBF1D89879A87AB87AA
:10247000BC8760E472E48FE090E00E94451BC0904E
:102480006006D0906106E0906206F09063066C0DE5
:102490007D1D8E1D9F1D6D877E878F87988BBE014A
:1024A000635F7F4FCE0109960E94E11688E0FE012E
:1024B0003996DE01119601900D928A95E1F788E038
:1024C000FE013196DE01199601900D928A95E1F791
:1024D00088E0FE013996A1EEB4E001900D928A9554
:1024E000E1F781E08093960489ED94E09093CE0427
:1024F0008093CD0464E974E08FEC94E00E94150AA7
:1025000080E596E00E949F0D64E170E080E090E03D
:102510000E94941360960FB6F894DEBF0FBECDBF35
:10252000DF91CF911F910F91FF90EF90DF90CF90AF
:10253000BF90AF909F908F907F906F905F904F90E3
:1025400008958230E8F4E82FF0E0EE0FFF1FEB5D16
:10255000F64F71836083813041F0809169008C7FF8
:10256000842B80936900E89A089580916900440F54
:10257000551F440F551F837F842B80936900E99A70
:1025800008951F920F920FB60F9211242F933F932D
:102590004F935F936F937F938F939F93AF93BF936B
:1025A000EF93FF938091250990912609892B29F0BB
:1025B000E0912509F09126090995FF91EF91BF91CE
:1025C000AF919F918F917F916F915F914F913F91CB
:1025D0002F910F900FBE0F901F9018951F920F9282
:1025E0000FB60F9211242F933F934F935F936F93E6
:1025F0007F938F939F93AF93BF93EF93FF938091BC
:10260000270990912809892B29F0E0912709F09159
:1026100028090995FF91EF91BF91AF919F918F91FB
:102620007F916F915F914F913F912F910F900FBECE
:102630000F901F9018951F920F920FB60F921124B2
:102640002F933F938F939F93AF93BF9380912A09CA
:1026500090912B09A0912C09B0912D093091290955
:1026600023E0230F2D3720F40196A11DB11D05C0D5
:1026700026E8230F0296A11DB11D209329098093FE
:102680002A0990932B09A0932C09B0932D098091CE
:102690002E0990912F09A0913009B091310901962E
:1026A000A11DB11D80932E0990932F09A09330098D
:1026B000B0933109BF91AF919F918F913F912F912D
:1026C0000F900FBE0F901F9018952FB7F894609140
:1026D0002A0970912B0980912C0990912D092FBF07
:1026E00008953FB7F89480912E0990912F09A091F9
:1026F0003009B091310926B5A89B05C02F3F19F0CC
:102700000196A11DB11D3FBF6627782F892F9A2FF3
:10271000620F711D811D911D42E0660F771F881F9A
:10272000991F4A95D1F70895CF92DF92EF92FF92C9
:10273000CF93DF936B017C010E947113EB01C114F5
:10274000D104E104F10479F00E9471136C1B7D0B3C
:10275000683E7340A0F381E0C81AD108E108F1088F
:10276000C851DC4FECCFDF91CF91FF90EF90DF901D
:10277000CF9008950197009739F0880F991F880F1F
:10278000991F02970197F1F70895789484B58260B4
:1027900084BD84B5816084BD85B5826085BD85B505
:1027A000816085BDEEE6F0E0808181608083E1E8B4
:1027B000F0E01082808182608083808181608083EC
:1027C000E0E8F0E0808181608083E1EBF0E08081EF
:1027D00084608083E0EBF0E0808181608083EAE7C1
:1027E000F0E080818460808380818260808380814A
:1027F000816080838081806880831092C100089509
:10280000CF93DF9390E0FC01EA57FF4F2491FC0146
:10281000E656FF4F8491882349F190E0880F991F75
:10282000FC01EE53FF4FA591B49188549F4FFC01DA
:10283000C591D4919FB7611108C0F8948C912095EF
:1028400082238C93888182230AC0623051F4F894E9
:102850008C91322F309583238C938881822B8883AF
:1028600004C0F8948C91822B8C939FBFDF91CF9101
:102870000895FC0124853585F901E05CFF4F8081D6
:102880009181F901EE5BFF4F20813181821B930B17
:102890008F7399270895FC0184859585FC01E05C80
:1028A000FF4F40815181FC01EE5BFF4F2081318160
:1028B0004217530741F00190F081E02DE80FF91F16
:1028C000808190E008958FEF9FEF0895FC0184854B
:1028D0009585FC01E05CFF4F40815181FC01EE5B7E
:1028E000FF4F208131814217530779F0A081B181D8
:1028F000A80FB91F8C91208131812F5F3F4F2F731B
:1029000033273183208390E008958FEF9FEF089560
:10291000FC0181A1882329F0A489B5898C9186FFC7
:10292000FBCF11A20895CF93DF93FC012685378555
:10293000D901A05CBF4F8D919C91119701968F7327
:102940009927E901CE5BDF4F4881598184179507AC
:10295000D9F30D90BC91A02DA20FB31F6C93A68547
:10296000B785A05CBF4F11969C938E93A689B789BB
:102970002C9181E090E0078C02C0880F991F0A9487
:10298000E2F7282B2C9381E081A30488F589E02DC0
:1029900080818064808381E090E0DF91CF91089511
:1029A00008951F920F920FB60F9211242F933F9309
:1029B0004F938F939F93EF93FF938091C00082FD7D
:1029C0001CC04091C6008091D8099091D909019608
:1029D0008F7399272091DA093091DB0982179307C9
:1029E00071F0E091D809F091D909E856F64F40838B
:1029F0009093D9098093D80902C08091C600FF91B5
:102A0000EF919F918F914F913F912F910F900FBE1A
:102A10000F901F90189582E399E00E943914892B3A
:102A200011F00C94D01408951F920F920FB60F92CC
:102A300011242F933F938F939F93EF93FF932091B4
:102A400094093091950980919609909197092817DA
:102A5000390731F48091C1008F7D8093C10014C08B
:102A6000E0919609F0919709EC5AF64F20818091F8
:102A700096099091970901968F73992790939709DA
:102A8000809396092093C600FF91EF919F918F91BB
:102A90003F912F910F900FBE0F901F901895CF92DE
:102AA000DF92EF92FF92CF93DF93EC016A017B01FB
:102AB000411581EE580761057105F9F0EC89FD8932
:102AC00081E090E008A002C0880F991F0A94E2F705
:102AD000808360E079E08DE390E0A70196010E9499
:102AE0007D1B21503109410951095695479537956C
:102AF0002795211580E1380798F0EC89FD8910822F
:102B000060E874E88EE190E0A70196010E947D1BC9
:102B10002150310941095109569547953795279517
:102B2000E889F9893083EA89FB89208319A2EE8933
:102B3000FF89408181E090E09C010C8C02C0220F53
:102B4000331F0A94E2F7422B4083EE89FF894081CC
:102B50009C010D8C02C0220F331F0A94E2F7422B16
:102B60004083EE89FF8940819C010E8C02C0220FB8
:102B7000331F0A94E2F7422B4083EE89FF892081BC
:102B80000F8C02C0880F991F0A94E2F78095822368
:102B90008083DF91CF91FF90EF90DF90CF900895E9
:102BA000BF92CF92DF92EF92FF92CF93DF93EC012F
:102BB0006A017B01B22E411581EE5807610571054E
:102BC000F9F0EC89FD8981E090E008A002C0880F4F
:102BD000991F0A94E2F7808360E079E08DE390E04A
:102BE000A70196010E947D1B21503109410951091D
:102BF0005695479537952795211580E1380798F028
:102C0000EC89FD89108260E874E88EE190E0A7010C
:102C100096010E947D1B21503109410951095695A9
:102C2000479537952795E889F9893083EA89FB89A3
:102C30002083E88DF98DB082EE89FF89408181E0A3
:102C400090E09C010C8C02C0220F331F0A94E2F723
:102C5000422B4083EE89FF8940819C010D8C02C08C
:102C6000220F331F0A94E2F7422B4083EE89FF893B
:102C700040819C010E8C02C0220F331F0A94E2F7A0
:102C8000422B4083EE89FF8920810F8C02C0880F80
:102C9000991F0A94E2F7809582238083DF91CF9178
:102CA000FF90EF90DF90CF90BF900895109235097C
:102CB0001092340988EE93E0A0E0B0E080933609EA
:102CC00090933709A0933809B093390985E694E0C9
:102CD000909333098093320988E999E090933F09F2
:102CE00080933E0984E599E09093410980934009DF
:102CF00085EC90E0909343098093420984EC90E046
:102D0000909345098093440980EC90E090934709A3
:102D10008093460981EC90E090934909809348099B
:102D200082EC90E090934B0980934A0986EC90E006
:102D300090934D0980934C0984E080934E0983E081
:102D400080934F0987E08093500985E08093510973
:102D500081E08093520908950E94C5130E94380BA8
:102D6000CBE0D5E10E94A2102097E1F30E940B1561
:102D7000F9CFCF92DF92EF92FF920F931F93CF93F1
:102D8000DF936C017A01EB01E60EF71E00E010E024
:102D9000CE15DF0561F06991D601ED91FC910190AE
:102DA000F081E02DC6010995080F191FF1CFC80168
:102DB000DF91CF911F910F91FF90EF90DF90CF9017
:102DC0000895CF92DF92EF92FF920F931F93CF93CC
:102DD000DF938C01EB01688179818A819B8120E0FE
:102DE0003AEC4AE95BE30E947D1BF801C080D18088
:102DF000E280F380C20ED31EE41EF51EC082D18293
:102E0000E282F382688379838A839B83DF91CF9107
:102E10001F910F91FF90EF90DF90CF900895CF9387
:102E2000DF938230910510F482E090E0E091E209B6
:102E3000F091E30920E030E0A0E0B0E0309739F114
:102E40004081518148175907B8F04817590771F464
:102E500082819381109729F013969C938E931297F9
:102E60002CC09093E3098093E20927C02115310516
:102E700031F04217530718F0A901DB0101C0EF013F
:102E80009A01BD01DF010280F381E02DD7CF21152A
:102E90003105F9F0281B390B2430310580F48A8183
:102EA0009B816115710521F0FB019383828304C02E
:102EB0009093E3098093E209FE01329644C0FE013B
:102EC000E20FF31F819391932250310939832883B4
:102ED0003AC02091E0093091E109232B41F420917F
:102EE0000201309103013093E1092093E009209120
:102EF0000001309101012115310541F42DB73EB794
:102F00004091040150910501241B350BE091E0092B
:102F1000F091E109E217F307A0F42E1B3F0B2817ED
:102F2000390778F0AC014E5F5F4F2417350748F042
:102F30004E0F5F1F5093E1094093E00981939193F5
:102F400002C0E0E0F0E0CF01DF91CF910895CF9390
:102F5000DF93009709F487C0FC0132971382128235
:102F6000C091E209D091E309209781F42081318159
:102F7000280F391F8091E0099091E109821793078A
:102F800079F5F093E109E093E0096DC0DE0120E0FE
:102F900030E0AE17BF0750F412964D915C91139735
:102FA0009D014115510509F1DA01F3CFB383A283E5
:102FB00040815181840F951F8A179B0771F48D9171
:102FC0009C911197840F951F02969183808312968E
:102FD0008D919C911397938382832115310529F458
:102FE000F093E309E093E2093EC0D9011396FC9304
:102FF000EE9312974D915D91A40FB51FEA17FB0751
:1030000079F480819181840F951F0296D9011196E0
:103010009C938E938281938113969C938E931297A7
:10302000E0E0F0E08A819B81009719F0FE01EC015D
:10303000F9CFCE01029628813981820F931F20910A
:10304000E0093091E1092817390769F4309729F42C
:103050001092E3091092E20902C013821282D09307
:10306000E109C093E009DF91CF910895A0E0B0E0BD
:10307000ECE3F8E10C94A31BEC01CB01209719F4CD
:103080000E940F17B8C0FE01E60FF71F9E012250E5
:103090003109E217F30708F4ACC0D9010D911C9176
:1030A000119706171707B8F00530110508F49FC0EF
:1030B000A801445051094617570708F498C0025018
:1030C0001109061B170B019311936D937C93CF018C
:1030D0000E94A7178CC05B01A01AB10A4E01800E96
:1030E000911EA091E209B091E309612C712C60E07E
:1030F00070E0109709F449C0A815B905C9F5ED901D
:10310000FC901197670142E0C40ED11CCA14DB0485
:1031100078F147018A189B08640142E0C40ED11C73
:103120001296BC9012971396AC91B5E0CB16D104D1
:1031300040F0B282A38391828082D9018D939C93C7
:1031400009C00E5F1F4F0E0D1F1DF9011183008373
:10315000EB2DFA2F6115710531F0DB011396FC930D
:10316000EE93129744C0F093E309E093E2093FC065
:103170006D917C9111976616770608F43B01BD01AD
:1031800012960D90BC91A02DB4CF6091E009709182
:10319000E10968157905E9F468167906D0F44091DB
:1031A0000001509101014115510541F44DB75EB741
:1031B0006091040170910501461B570BE417F50758
:1031C000C0F4F093E109E093E009F9019183808371
:1031D0000EC00E940F177C01009759F0A801BE0194
:1031E0000E940319CE010E94A717C70104C0CE0197
:1031F00002C080E090E0CDB7DEB7EEE00C94BF1BDC
:10320000F8940C94F61BFB01DC0102C001900D92B6
:1032100041505040D8F708955058BB27AA270ED0E8
:1032200038C101D130F006D120F031F49F3F11F4C4
:103230001EF4F6C00EF4E095E7FBECC0E92F4BD18D
:1032400080F3BA17620773078407950718F071F4C3
:103250009EF563C10EF4E0950B2EBA2FA02D0B0145
:10326000B90190010C01CA01A0011124FF27591BCB
:1032700099F0593F50F4503E68F11A16F040A22FD1
:10328000232F342F4427585FF3CF46953795279542
:10329000A795F0405395C9F77EF41F16BA0B620B41
:1032A000730B840BBAF09150A1F0FF0FBB1F661F88
:1032B000771F881FC2F70EC0BA0F621F731F841FCB
:1032C00048F4879577956795B795F7959E3F08F0F1
:1032D000B3CF9395880F08F09927EE0F97958795B0
:1032E000089574D008F481E00895ACD0E395E2C06D
:1032F00004D06894B11112C10895F5D088F09F5799
:1033000090F0B92F9927B751A0F0D1F0660F771F31
:10331000881F991F1AF0BA95C9F712C0B13081F011
:10332000FCD0B1E00895F9C0672F782F8827B85FE7
:1033300039F0B93FCCF3869577956795B395D9F772
:103340003EF490958095709561957F4F8F4F9F4F7C
:103350000895E89409C097FB3EF490958095709588
:1033600061957F4F8F4F9F4F9923A9F0F92F96E9D1
:10337000BB279395F695879577956795B795F11146
:10338000F8CFFAF4BB0F11F460FF1BC06F5F7F4FE3
:103390008F4F9F4F16C0882311F096E911C07723F5
:1033A00021F09EE8872F762F05C0662371F096E8FE
:1033B000862F70E060E02AF09A95660F771F881FCD
:1033C000DAF7880F9695879597F90895990F000871
:1033D000550FAA0BE0E8FEEF16161706E807F907E7
:1033E000C0F012161306E407F50798F0621B730B82
:1033F000840B950B39F40A2661F0232B242B252B03
:1034000021F408950A2609F4A140A6958FEF811DA5
:10341000811D089597F99F6780E870E060E0089546
:103420009FEF80EC089500240A94161617061806DC
:103430000906089500240A941216130614060506B8
:103440000895EECF50D0E8F3E894E0E0BB279F5713
:10345000F0F02AED3FE049EC06C0EE0FBB0F661F0F
:10346000771F881F28F0B23A62077307840728F095
:10347000B25A620B730B840BE3959A9572F78038FE
:1034800030F49A95BB0F661F771F881FD2F79048BC
:10349000BAC0092E0394000C11F4882352F0BB0F1C
:1034A00040F4BF2B11F460FF04C06F5F7F4F8F4F5C
:1034B0009F4F0895EF93E0FF06C0A2EA2AED3FE098
:1034C00049EC5FEBBBDEE5DF0F90039401FC905805
:1034D000E8E6F0E0A4C057FD9058440F551F59F09E
:1034E0005F3F71F04795880F97FB991F61F09F3FF1
:1034F00079F087950895121613061406551FF2CF1A
:103500004695F1DF08C0161617061806991FF1CF69
:1035100086957105610508940895E894BB27662790
:103520007727CB0197F9089551DF08F48FEF0895BD
:103530000BD0AFCF78DF28F07DDF18F0952309F0AE
:1035400069CF6ECF1124EACFC6DFA0F3959FD1F3E8
:10355000950F50E0551F629FF001729FBB27F00D41
:10356000B11D639FAA27F00DB11DAA1F649F662796
:10357000B00DA11D661F829F2227B00DA11D621FE5
:10358000739FB00DA11D621F839FA00D611D221F9F
:10359000749F3327A00D611D231F849F600D211D83
:1035A000822F762F6A2F11249F5750408AF0E1F026
:1035B00088234AF0EE0FFF1FBB1F661F771F881F6F
:1035C00091505040A9F79E3F510570F023CFA6CFF0
:1035D0005F3FECF3983EDCF3869577956795B7955A
:1035E000F795E7959F5FC1F7FE2B880F911D969584
:1035F000879597F908959F9325DF0F9007FCEE5F5D
:1036000059CF9F3F31F0915020F48795779567957A
:10361000B795880F911D9695879597F908959F9373
:103620008F937F936F93FF93EF939B01AC0180DFA8
:10363000EF91FF9105D02F913F914F915F9178CFFE
:10364000DF93CF931F930F93FF92EF92DF927B0153
:103650008C01689405C0DA2EEF0176DFFE01E89454
:10366000A5912591359145915591AEF3EF01E6DD98
:10367000FE019701A801DA9479F7DF90EF90FF90AF
:103680000F911F91CF91DF910895DB018F939F934D
:103690000E94D61BBF91AF91A29F800D911DA39F49
:1036A000900DB29F900D11240895AA1BBB1B51E1F0
:1036B00007C0AA1FBB1FA617B70710F0A61BB70BA2
:1036C000881F991F5A95A9F780959095BC01CD0147
:1036D000089597FB072E16F4009407D077FD09D0C4
:1036E0000E94551B07FC05D03EF4909581959F4F95
:1036F0000895709561957F4F0895A1E21A2EAA1B37
:10370000BB1BFD010DC0AA1FBB1FEE1FFF1FA21791
:10371000B307E407F50720F0A21BB30BE40BF50B8E
:10372000661F771F881F991F1A9469F76095709517
:10373000809590959B01AC01BD01CF0108952F921A
:103740003F924F925F926F927F928F929F92AF9231
:10375000BF92CF92DF92EF92FF920F931F93CF937E
:10376000DF93CDB7DEB7CA1BDB0B0FB6F894DEBF15
:103770000FBECDBF09942A88398848885F846E843B
:103780007D848C849B84AA84B984C884DF80EE8085
:10379000FD800C811B81AA81B981CE0FD11D0FB68E
:1037A000F894DEBF0FBECDBFED0108950E94E71B68
:1037B000A59F900DB49F900DA49F800D911D112485
:1037C0000895EE0FFF1F0590F491E02D0994A29F3C
:1037D000B001B39FC001A39F700D811D1124911DE5
:1037E000B29F700D811D1124911D0895F894FFCF93
:1037F0000000E4092000C3F5C83F2F6F646F6D001F
:103800002F626173655F6C696E6B007374645F6DCA
:103810007367732F54696D6500636437313636639F
:103820003734633535326333313166626363326610
:1038300065356137626332383900726F7373657250
:1038400069616C5F6D7367732F546F706963496E44
:10385000666F0030616435316638386663343438F9
:1038600039326638633130363834303737363436AB
:1038700030303500726F7373657269616C5F6D73A0
:1038800067732F4C6F670031316162643733316386
:10389000323539333332363163643631383362642A
:1038A0003132643632393500396630653938626410
:1038B0006136353938313938366464663533616696
:1038C00061376134306534390067656F6D657472D6
:1038D000795F6D7367732F566563746F723300344D
:1038E00061383432623635663431333038346463AB
:1038F00032623130666234383465613766313700A0
:1039000067656F6D657472795F6D7367732F547738
:103910006973740039663139356638383132343676
:103920006664666132373938643164336565626371
:1039300061383461007374645F6D7367732F486519
:103940006164657200323137366465636165636254
:10395000636537386162633362393665663034399E
:1039600066616265640067656F6D657472795F6D2D
:103970007367732F5175617465726E696F6E006144
:103980003737393837396661646630313630373326
:103990003466393036623863313963373030340059
:1039A00067656F6D657472795F6D7367732F54729D
:1039B000616E73666F726D0061633965666634347B
:1039C00061626637313432313431313262303564DC
:1039D00035346133636639620067656F6D65747293
:1039E000795F6D7367732F5472616E73666F726D5A
:1039F0005374616D706564006235373634613333FA
:103A000062666562333538386665626332363832ED
:103A100038353235373962300074662F74664D653B
:103A200073736167650039343831306564646135BA
:103A30003833613530346466646133383239653720
:103A4000306437656563004D657373616765206633
:103A5000726F6D206465766963652064726F707043
:103A600065643A206D657373616765206C61726788
:103A70006572207468616E206275666665722E00DC
:103A80002F636D645F76656C002F746600776865E0
:103A9000656C5F656E636F64657200726F737365EA
:103AA0007269616C5F6D7367732F526571756573B1
:103AB00074506172616D00000000009200B400FA61
:103AC00000FD000000000050030001D801DB0100F0
:103AD000000000D803DE01220225020000000004DD
:103AE00004060528022B02000000004B07C5082E23
:103AF000023102000000007B07EF083402370200A9
:103B0000000000AE043A02C702CA0200000000979B
:103B1000071E09CD02D00200000000D3075209D3CE
:103B200002D60200000000EF076E09D902DC020095
:103B3000000000DF02CA0915031803000000001A84
:103B4000069F0D4B03000000000B0941034503488D
:103B500003000000009314B916391466144B14883E
:023B600014004F
:00000001FF
