:100000000C945A000C9482000C9482000C94820090
:100010000C9482000C9482000C9482000C94820058
:100020000C9482000C9482000C9482000C94820048
:100030000C9482000C9482000C9482000C94820038
:100040000C94870A0C9482000C94F80B0C94320CDC
:100050000C9482000C9482000C9482000C94820018
:100060000C942E0F0C948200000000070002010087
:100070000003040600000000000000000102040864
:100080001020408001020408102001020408102002
:10009000040404040404040402020202020203032E
:1000A0000303030300000000250028002B001A0AA8
:1000B000EE0CA70E11241FBECFEFD8E0DEBFCDBFE0
:1000C00012E0A0E0B1E0E4EDF6E202C005900D928E
:1000D000A43BB107D9F717E0A4EBB2E001C01D9231
:1000E000A737B107E1F710E0C4EBD0E004C02297D6
:1000F000FE010E946413CE3AD107C9F70E949F09FE
:100100000C94AB120C940000FC01DB0182818C93F7
:10011000838111968C931197848112968C931297F8
:10012000858113968C931397868114968C931497DC
:10013000878115968C931597808516968C931697C4
:10014000818517968C9388E090E00895FC01DB018F
:100150004C9150E060E070E0428353836483758388
:1001600011968C911197582B428353836483758326
:1001700012968C911297682B428353836483758304
:1001800013968C911397782B4283538364837583E2
:1001900014964C91149750E060E070E046835783CA
:1001A0006087718715968C911597582B46835783D6
:1001B0006087718716968C911697682B46835783B4
:1001C0006087718717968C91782B46835783608759
:1001D000718788E090E0089586E091E0089584E1D9
:1001E00091E008956F927F928F929F92AF92BF920B
:1001F000CF92DF92EF92FF920F931F93CF93DF93F3
:10020000FC01DB018C9190E09383828311962C9109
:100210001197922B9383828312964D915D916D91EC
:100220007C9115975D0186E0A80EB11C8A019B01A7
:100230000A5F1F4F2F4F3F4F6501CA1ADB0AE12C9F
:10024000F12CC016D106E206F30640F4E501F99060
:100250005E01CE010297EC01F882EECFED01C40FF2
:10026000D51F1D82CD01059695838483ED01C40FB2
:10027000D51FCE80DF80E884F984465F5F4F3D0163
:10028000640E751E8A01222717FD2095322F0C0D52
:100290001D1D2E1D3F1D43018A1A9B0AA12CB12C46
:1002A00080169106A206B30640F4E30169913E016F
:1002B000CE010297EC016883EECFC40ED51E9D01DE
:1002C0002C0D3D1DC9010197EC01188241505109C7
:1002D0004A0F5B1F57834683E901088119812A81F0
:1002E0003B81D4E0CD0ED11C3D016C0C7D1CA601E0
:1002F000662757FD6095762F400F511F621F731FB1
:1003000043018A1A9B0AA12CB12C84169506A606D5
:10031000B70640F4E301F9903E01CE010297EC01EB
:10032000F882EECF0C0D1D1D9D01200F311FC9015C
:100330000197EC011882D1E0CD1AD108CA0EDB1E5C
:10034000D186C086D90111968C91119712964C9145
:10035000129750E060E070E0BA0155274427582B0F
:100360008C91482B13968C91782B42875387648706
:100370007587C8010496DF91CF911F910F91FF906F
:10038000EF90DF90CF90BF90AF909F908F907F9035
:100390006F90089585E391E008958EE491E00895CB
:1003A000AF92BF92CF92DF92EF92FF921F93CF93C3
:1003B000DF939C01FB018081D90112968C9381818E
:1003C0009281A381B4815B01C5E0AC0EB11CAC018C
:1003D000BD014B5F5F4F6F4F7F4F6501CE1ADF0A44
:1003E000E12CF12CC416D506E606F70650F4E5011B
:1003F000D9905E017E01D2E0ED1AF108E701D882C2
:10040000ECCFEF01C80FD91F1C823496E901FC83A1
:10041000EB830596DF91CF911F91FF90EF90DF90D6
:10042000CF90BF90AF9008958FE691E0089582E855
:1004300091E0089582E392E0089583EA91E00895BF
:10044000AF92BF92CF92DF92EF92FF921F93CF9322
:10045000DF935C019B01FB0181919191A191B1918D
:10046000AC01BD014C5F5F4F6F4F7F4F6F01C21AF0
:10047000D30AE12CF12CC416D506E606F70640F4A3
:10048000D1907F0112E0E11AF108E701D882EECFA6
:10049000F901E80FF91F13822D5F3F4FF5013383F8
:1004A00022830496DF91CF911F91FF90EF90DF9010
:1004B000CF90BF90AF90089584EC91E0089584EDC3
:1004C00091E008958E549D4FFC0180810895AF9274
:1004D000BF92CF92DF92EF92FF920F931F93CF9331
:1004E000DF93EC017B018A81DB018C938B81119678
:1004F0008C93EC81FD81DF010D900020E9F7CD01A7
:1005000001976C01CE1ADF0AC601A0E0B0E0FB0142
:1005100082839383A483B5836C817D81A601C70107
:1005200006960E94AE12EE81FF81DF010D90002041
:10053000E9F7CD0101975C01AE1ABF0AF701EC0D96
:10054000FD1D850120E030E0068317832087318779
:100550009AE0C90ED11C6E817F81A501C7018C0D67
:100560009D1D0E94AE12CA0CDB1CE885F985DF01D7
:100570000D900020E9F7CD0101975C01AE1ABF0A8A
:10058000F701EC0DFD1D850120E030E000831183B3
:100590002283338394E0C90ED11C68857985A50137
:1005A000C7018C0D9D1D0E94AE12AC0CBD1C3A857E
:1005B0002B859C858D85F701EA0DFB1D30832183FA
:1005C00092838383C5010496DF91CF911F910F9190
:1005D000FF90EF90DF90CF90BF90AF9008950F9372
:1005E0001F93CF93DF93DC01FB0112968C9112973E
:1005F000808313968D919C911497EC0109900020B3
:10060000E9F72197C81BD90B8E0120E030E0018368
:1006100012832383348313966D917C911497AE01DA
:10062000CF0105960E94AE12CE010596DF91CF91C3
:100630001F910F910895BF92CF92DF92EF92FF9298
:100640000F931F93CF93DF93EC017B018A81DB0132
:100650008C9311961C92119712961C9212971396D6
:100660001C92FB01379640E024E030E05A81C9013A
:1006700004964517F0F4AF81B88524E0429FA00DA1
:10068000B11D11246C9111965C91119712963C91B9
:10069000129713962C91DF0113976C93DF01129739
:1006A0005C93DF0111973C9320839C014F5F34964C
:1006B000DDCF4985F701E20FF31F408311821282DB
:1006C000138220E03985F701E80FF91F04962317FC
:1006D000B0F4AE85BF8534E0239FA00DB11D112479
:1006E0006C9111965C91119712964C9112971396FA
:1006F0003C9160835183428333832F5FE3CF28890A
:100700002083118212821382B12C2889B21698F5A7
:100710004B2D50E0440F551FEB89FC89E40FF51F6A
:100720000190F081E02DDF010D900020E9F79D019F
:10073000215031096901CE1ADF0AF701E80FF91FCC
:10074000860120E030E000831183228333838C0113
:100750000C5F1F4FEB89FC89E40FF51F60817181ED
:10076000A601C701800F911F0E94AE12C601800F23
:10077000911FB394CACFDF91CF911F910F91FF903A
:10078000EF90DF90CF90BF9008950F931F93CF937A
:10079000DF93DC011296ED91FC911397EF01099024
:1007A0000020E9F72197CE1BDF0B8E0120E030E01F
:1007B000FB01019311932193319312966D917C91DA
:1007C0001397AE01CF010E94AE12CE010496DF91C5
:1007D000CF911F910F9108954F925F927F928F92C8
:1007E0009F92AF92BF92CF92DF92EF92FF920F93C0
:1007F0001F93CF93DF93EC018B01DB01FC908A8187
:100800008F1550F4B4E0FB9EB00111248F819885C0
:100810000E94E11198878F83FA82F8013796F12CB4
:1008200044E050E09E012D5F3F4F8A81BA016C5F2A
:100830007F4F6B01F81670F5408150E060E070E08A
:10084000742F662755274427DF0113978C91482B77
:10085000DF0112978C91582BDF0111978C91682B37
:100860004B835C836D837E83A6016F81788584E0F2
:10087000F89E600D711D1124D9018D909D90AD9051
:10088000BC90DB018D929D92AD92BC921397F39434
:100890003496CBCFF801E40FF51FF08089858F15D2
:1008A00050F484E0F89EB00111248E859F850E944B
:1008B000E1119F878E879601F98680E0FE013A96C6
:1008C0009985D801A20FB31FA9014C5F5F4F6A0140
:1008D000891748F511969C91119712964C91129791
:1008E00050E060E070E0BA0155274427592B9C91F5
:1008F000492B13969C91792B4A875B876C877D8760
:100900009601AE85BF8594E0899FA00DB11D11248D
:1009100040815181628173814D935D936D937C938E
:1009200013978F5FCDCFFC9088898F1550F46F2D72
:1009300070E0660F771F8B899C890E94E1119C8B68
:100940008B8BC601F88A712C2E0151E1450E511C8A
:100950002889721608F044C0F801E80FF91FC0801A
:10096000D180E280F3800496F801E80FF91FAC0112
:10097000662757FD6095762F4C0D5D1D6E1D7F1D02
:100980009F01201B310B4901A12CB12C8416950627
:10099000A606B70638F4B1909F0122503109D9015B
:1009A000BC92EECFC80ED91EF801EC0DFD1D31979B
:1009B00010829C0121503109200F311F3A8B298B65
:1009C000C6013B892C89E32FF22FE70DF11DE70DBE
:1009D000F11DD2012D913C91318320837394B8CFC6
:1009E000DF91CF911F910F91FF90EF90DF90CF900B
:1009F000BF90AF909F908F907F905F904F900895A1
:100A0000AC0166EB72E080EB96E00E949A0D81E00B
:100A100090E09093B5028093B4020895AF92BF9294
:100A2000CF92DF92EF92FF920F931F93CF93DF93BA
:100A300000D000D01F92CDB7DEB78C016B016436B9
:100A400071053CF0FC01EE54FD4F8081882309F4D0
:100A500085C0DA01ED91FC910190F081E02DB801A3
:100A60006D5C7E4FCA0109957C015801B4EDAB1A4B
:100A7000BEEFBB0A2FEFF50120832EEFF801E35DF7
:100A8000FE4F2083F801E25DFE4F8083F801E15DB7
:100A9000FE4F9083890F8095F801E05DFE4F8083C3
:100AA000F801EF5CFE4FC082F801EE5CFE4FD08291
:100AB00085E090E020E030E0A701495F5F4F8417B8
:100AC000950750F4F801E80FF91FE45DFE4F6081CF
:100AD000260F311D0196F3CFF8E0EF0EF11C400F09
:100AE000511FFA01E45DFE4F2095208329E1E216B3
:100AF00021E0F206C8F46501C6018A199B098E152A
:100B00009F0584F4D80112968D919C911397F6015C
:100B100061916F01DC01ED91FC910190F081E02D7C
:100B20000995EACFC7011CC08AE692E09A838983BF
:100B300083E08B8385EF91E09D838C83D801ED91D9
:100B4000FC910190F081E02DAE014F5F5F4F67E0B7
:100B500070E0C80109958FEF9FEF02C080E090E040
:100B60000F900F900F900F900F90DF91CF911F91EA
:100B70000F91FF90EF90DF90CF90BF90AF900895CE
:100B80000F931F93CF93DF93CDB7DEB72A970FB69E
:100B9000F894DEBF0FBECDBF8C0182E592E09A8350
:100BA00089831B821C821D821E821F8218861986E1
:100BB0001A86D801ED91FC910190F081E02DAE01F3
:100BC0004F5F5F4F6AE070E0C80109950E94D10A4B
:100BD000F80160877187828793872A960FB6F89409
:100BE000DEBF0FBECDBFDF91CF911F910F91089552
:100BF0004F925F926F927F928F929F92AF92BF922D
:100C0000CF92DF92EF92FF920F931F93CF93DF93D8
:100C1000CDB7DEB72E970FB6F894DEBF0FBECDBFAF
:100C20008C018EE592E09A8389831C821B828DE27F
:100C300092E09E838D8398878F839A8789871B860E
:100C40001C861D861E86580182E3A80EB11C780101
:100C500088E1482E55245394612C712C6701ACEB2C
:100C6000CA1AADEFDA0AD601ED91FC913097B9F1CD
:100C7000848195819C838B83808191819E838D83E8
:100C800082819381DC01ED91FC910480F581E02D5E
:100C9000099598878F83D601ED91FC91828193818C
:100CA000DC01ED91FC910680F781E02D09959A8792
:100CB00089874B865C866D867E86F801808191816E
:100CC000F601A081B18118966D917C911997DC0194
:100CD000ED91FC91AE014F5F5F4FC8010995B2E005
:100CE000EB0EF11CEA14FB0409F0B8CF7801B8E16F
:100CF0004B2E55245394612C712C6701EAE8CE1ACF
:100D0000EDEFDE0AF601A081B1811097E1F11296B4
:100D10008D919C9113979C838B8314968D919C91BC
:100D200015979E838D83ED91FC9111970480F58139
:100D3000E02DCD01099598878F83D6018D919C91E7
:100D4000DC01ED91FC910680F781E02D09959A87F1
:100D500089874B865C866D867E86D801ED91FC91F5
:100D600080809180F60180819181DC01ED91FC9180
:100D70000280F381E02D0995AE014F5F5F4FBC010A
:100D8000C801F4010995F2E0EF0EF11CEA14FB042E
:100D900009F0B3CFF801EE54FD4F81E080832E9629
:100DA0000FB6F894DEBF0FBECDBFDF91CF911F917C
:100DB0000F91FF90EF90DF90CF90BF90AF909F90FA
:100DC0008F907F906F905F904F9008958F929F9239
:100DD000AF92BF92CF92DF92EF92FF920F931F9349
:100DE000CF93DF93CDB7DEB72A970FB6F894DEBF67
:100DF0000FBECDBF8C015B0182E592E09A838983AF
:100E00001B821C821D821E821F82188619861A86EA
:100E10000E94D10A6B017C01F80180859185A28531
:100E2000B385C81AD90AEA0AFB0AB501CE010196B0
:100E30000E94A60098EE892E93E0992EA12CB12C49
:100E4000C701B601A50194010E94FA1269017A0155
:100E50009B01AC018B819C81AD81BE818C0D9D1D60
:100E6000AE1DBF1D8B839C83AD83BE8360E472E4A3
:100E70008FE090E00E94C212CF80D884E984FA8487
:100E8000C60ED71EE81EF91ECF82D886E986FA86DE
:100E90000E94D10ACB80DC80ED80FE80F1E0CF1A89
:100EA000D108E108F108A50194010E94FA12490154
:100EB0005A019B01AC01C818D908EA08FB08F801DF
:100EC000C486D586E686F786CF80D884E984FA84FE
:100ED000F6E3DF1AF5E6EF0AF4ECFF0A60E472E4E9
:100EE0008FE090E00E94C212C61AD70AE80AF90AF7
:100EF000F801C08AD18AE28AF38AB801605F7F4F25
:100F0000C8010C960E94AB0E0E94D10AF801E95468
:100F1000FD4F60837183828393832A960FB6F89482
:100F2000DEBF0FBECDBFDF91CF911F910F91FF901C
:100F3000EF90DF90CF90BF90AF909F908F900895EB
:100F40002F923F924F925F926F927F928F929F92D9
:100F5000AF92BF92CF92DF92EF92FF920F931F93C7
:100F6000CF93DF93CDB7DEB760970FB6F894DEBFAF
:100F70000FBECDBF4C010E94D10A6B017C019401D0
:100F800029543D4F3E832D83F90180819181A281B7
:100F9000B381A7019601281B390B4A0B5B0BDA01C1
:100FA000C901893F9A42A105B10520F0F401EE5430
:100FB000FD4F1082A40148555D4F588B4F87DA01D1
:100FC0008D919C91892B79F0F401E554FD4F80813E
:100FD0009181A281B3818C159D05AE05BF0518F4E2
:100FE000FA01118210823401F0E56F1AFDEF7F0AD9
:100FF000940124553D4F3A832983A4014E545D4FFB
:1010000058874F83940120543D4F3C872B87A40180
:1010100041545D4F5E874D87840106551D4F160173
:10102000270154E1250E311C411C511C540184E15F
:10103000A80EB11C940122553D4F3C832B83A40183
:1010400045545D4F5A874987D40112968D919C91E2
:101050001397DC01ED91FC910680F781E02D099555
:101060009C0197FD2DC1F30180819181820F931F17
:1010700091838083AF85B8894D915C91473051054C
:10108000E1F4EB81FC8180819181AC014F5F5F4F86
:1010900051834083F401E80FF91F248BD8018D910F
:1010A0009C91119701978D939C93892B09F0BECF4A
:1010B00028E030E0EF85F88987C04115510519F522
:1010C0002F3F310569F481E090E0AF85B8898D93B9
:1010D0009C93E985FA852082318242825382B4CF83
:1010E0000E94D10A6C197D098E099F09663071052D
:1010F0008105910508F49ACFF401EE54FD4F10825A
:101100008EEF9FEF03C14130510599F42E3F310519
:1011100019F482E090E02FC0EF85F88911821082E7
:10112000AF81B8858C91811181CFC4010E94C00527
:101130008BCF4230510589F4F80131832083AB8194
:10114000BC811D921C9283E090E0EF85F889918329
:101150008083D3012D933C9377CF4330510581F4A5
:10116000322F2227F80180819181820F931F918372
:10117000808384E090E0AF85B8898D939C9364CFA1
:101180004430510599F460E071E00E94E6128F3F0F
:10119000910539F485E090E0EF85F88991838083AB
:1011A00053CFAF85B8891D921C924ECF4530510563
:1011B00071F4E981FA813183208386E090E0AF8584
:1011C000B8898D939C93F301318320833DCF4630C2
:1011D0005105D1F4322F2227A981BA818D919C919A
:1011E0001197820F931F8D939C9327E030E0EF853A
:1011F000F88931832083D8018D919C91892B09F046
:1012000015CF28E030E0E0CF4830510509F00ECF8F
:10121000AF85B8891D921C9260E071E00E94E612D1
:101220008F3F910509F002CFA981BA81ED91FC9120
:101230003097B1F4C4010E94C005C4010E94F805B2
:10124000F401ED54FD4FC082D182E282F382ED8140
:10125000FE81C082D182E282F3828FEF9FEF56C07F
:10126000EA30F10529F4B501C4010E94E606ECCE8E
:10127000E630F10551F4B5018B859C850E94EC03A5
:1012800081E0AD85BE858C93DFCEEB30F10521F496
:10129000EF81F8851082D8CEE952FF4FEE0FFF1F85
:1012A000E80DF91D80819181009709F4BFCEDC0122
:1012B000ED91FC910190F081E02DB5010995C4CE2E
:1012C000F401EE54FD4F80818823F1F084010D5428
:1012D0001D4FF80180819181A281B381A701960100
:1012E000281B390B4A0B5B0BDA01C901853C99407D
:1012F000A105B10548F0C4010E94C005D801CD92F6
:10130000DD92ED92FC92139780E090E060960FB62C
:10131000F894DEBF0FBECDBFDF91CF911F910F912B
:10132000FF90EF90DF90CF90BF90AF909F908F9005
:101330007F906F905F904F903F902F9008950E9404
:10134000260B61E070E080EB96E00E94A00E60E06A
:1013500075E080EB96E00E94A20E40912C03509124
:101360002D0360912E0370912F0380912A03909199
:101370002B030E946D0C1092D1051092D005109293
:10138000D3051092D2051092D7051092D60510926F
:10139000D5051092D405ECE6F5E080E090E02191CF
:1013A0003191232BC1F4FC01EE0FFF1FE459FA4FDA
:1013B0002AE133E03183208383589F4F90931F03AA
:1013C00080931E0388E293E090932103809320038F
:1013D000C6EBD2E00BC001968931910501F7F8CF39
:1013E00064E670E080E090E00E94000B8091B4021F
:1013F0009091B502892BA1F3D0932703C0932603C4
:101400008091200390912103DC01ED91FC9160918A
:101410001E0370911F030190F081E02D44E253E020
:10142000099588E293E00E94A0071092B5021092FD
:10143000B402D6CF8EE892E09093290380932803DC
:1014400086E096E090932B0380932A0380E091EE50
:10145000A0E0B0E080932C0390932D03A0932E0383
:10146000B0932F031092DA0586E792E09093E90596
:101470008093E8051092EA051092F0051092EF05AE
:101480001092F1051092F7051092F6051092F805EA
:101490001092FC051092FB05ECE6F5E0119211921A
:1014A00085E0EE39F807D1F7EEE9F5E011921192F7
:1014B00085E0E03DF807D1F7ECE3F3E0119284E03A
:1014C000E435F807D9F7E4E5F4E0119285E0EC366D
:1014D000F807D9F782E892E09093250380932403DC
:1014E0008DE292E090932703809326038EE292E0B0
:1014F00090931B0380931A0384E293E090931D035F
:1015000080931C03109223031092220308951F92CC
:101510000F920FB60F9211242F933F938F939F93A7
:10152000AF93BF938091FE059091FF05A0910006B7
:10153000B09101063091FD0523E0230F2D3720F4F3
:101540000196A11DB11D05C026E8230F0296A11D1D
:10155000B11D2093FD058093FE059093FF05A09398
:101560000006B09301068091020690910306A091B7
:101570000406B09105060196A11DB11D80930206D7
:1015800090930306A0930406B0930506BF91AF9114
:101590009F918F913F912F910F900FBE0F901F90B1
:1015A00018952FB7F8946091FE057091FF05809112
:1015B0000006909101062FBF08953FB7F8948091DF
:1015C000020690910306A0910406B091050626B587
:1015D000A89B05C02F3F19F00196A11DB11D3FBF6B
:1015E0006627782F892F9A2F620F711D811D911DFB
:1015F00042E0660F771F881F991F4A95D1F708951B
:10160000CF92DF92EF92FF92CF93DF936B017C0139
:101610000E94DD0AEB01C114D104E104F10479F068
:101620000E94DD0A6C1B7D0B683E7340A0F381E0D5
:10163000C81AD108E108F108C851DC4FECCFDF919E
:10164000CF91FF90EF90DF90CF900895789484B57C
:10165000826084BD84B5816084BD85B5826085BDAE
:1016600085B5816085BDEEE6F0E080818160808394
:10167000E1E8F0E010828081826080838081816077
:101680008083E0E8F0E0808181608083E1EBF0E03E
:10169000808184608083E0EBF0E0808181608083E2
:1016A000EAE7F0E0808184608083808182608083CB
:1016B0008081816080838081806880831092C100F6
:1016C0000895FC0124853585F901E05CFF4F808198
:1016D0009181F901EE5BFF4F20813181821B930BD9
:1016E0008F7399270895FC0184859585FC01E05C42
:1016F000FF4F40815181FC01EE5BFF4F2081318122
:101700004217530741F00190F081E02DE80FF91FD7
:10171000808190E008958FEF9FEF0895FC0184850C
:101720009585FC01E05CFF4F40815181FC01EE5B3F
:10173000FF4F208131814217530779F0A081B18199
:10174000A80FB91F8C91208131812F5F3F4F2F73DC
:1017500033273183208390E008958FEF9FEF089522
:10176000FC0181A1882329F0A489B5898C9186FF89
:10177000FBCF11A20895CF93DF93FC012685378517
:10178000D901A05CBF4F8D919C91119701968F73E9
:101790009927E901CE5BDF4F48815981841795076E
:1017A000D9F30D90BC91A02DA20FB31F6C93A68509
:1017B000B785A05CBF4F11969C938E93A689B7897D
:1017C0002C9181E090E0078C02C0880F991F0A9449
:1017D000E2F7282B2C9381E081A30488F589E02D82
:1017E00080818064808381E090E0DF91CF910895D3
:1017F0001F920F920FB60F9211242F933F934F9386
:101800008F939F93EF93FF938091C00082FD1CC044
:101810004091C6008091AC069091AD0601968F7301
:1018200099272091AE063091AF068217930771F089
:10183000E091AC06F091AD06E459F94F40839093E6
:10184000AD068093AC0602C08091C600FF91EF9177
:101850009F918F914F913F912F910F900FBE0F90BD
:101860001F9018951F920F920FB60F9211242F936D
:101870003F938F939F93EF93FF932091680630914E
:10188000690680916A0690916B062817390731F432
:101890008091C1008F7D8093C10014C0E0916A06E1
:1018A000F0916B06E85DF94F208180916A06909176
:1018B0006B0601968F73992790936B0680936A0647
:1018C0002093C600FF91EF919F918F913F912F91AF
:1018D0000F900FBE0F901F901895CF92DF92EF924E
:1018E000FF92CF93DF93EC016A017B01411581EEFA
:1018F000580761057105F9F0EC89FD8981E090E0F8
:1019000008A002C0880F991F0A94E2F7808360E064
:1019100079E08DE390E0A70196010E94FA12215030
:101920003109410951095695479537952795211554
:1019300080E1380798F0EC89FD89108260E874E84E
:101940008EE190E0A70196010E94FA122150310920
:10195000410951095695479537952795E889F989A1
:101960003083EA89FB89208319A2EE89FF894081AF
:1019700081E090E09C010C8C02C0220F331F0A947E
:10198000E2F7422B4083EE89FF8940819C010D8C58
:1019900002C0220F331F0A94E2F7422B4083EE89E4
:1019A000FF8940819C010E8C02C0220F331F0A94D4
:1019B000E2F7422B4083EE89FF8920810F8C02C021
:1019C000880F991F0A94E2F7809582238083DF9124
:1019D000CF91FF90EF90DF90CF900895109209067D
:1019E0001092080688EE93E0A0E0B0E080930A062B
:1019F00090930B06A0930C06B0930D0688E992E035
:101A000090930706809306068CE696E09093130663
:101A10008093120688E296E0909315068093140650
:101A200085EC90E0909317068093160684EC90E086
:101A3000909319068093180680EC90E090931B0613
:101A400080931A0681EC90E090931D0680931C060B
:101A500082EC90E090931F0680931E0686EC90E047
:101A6000909321068093200684E08093220683E0F1
:101A70008093230687E08093240685E080932506E3
:101A800081E0809326060895CF92DF92EF92FF9235
:101A90000F931F93CF93DF936C017A01EB01E60E56
:101AA000F71E00E010E0CE15DF0561F06991D60168
:101AB000ED91FC910190F081E02DC6010995080F90
:101AC000191FF1CFC801DF91CF911F910F91FF90A6
:101AD000EF90DF90CF9008950F931F93CF93DF93F4
:101AE000EC010E94D10A688779878A879B87E88101
:101AF000F9810680F781E02DCE01099597FF15C089
:101B00000E94D10A088519852A853B85601B710BC7
:101B1000820B930B0C811D812E813F816017710711
:101B20008207930720F38FEF9FEFDF91CF911F91F3
:101B30000F910895CF92DF92EF92FF920F931F9330
:101B4000CF93DF937C016A01EB0100E010E00C15FC
:101B50001D0549F0C7010E946C0D97FD04C08993D3
:101B60000F5F1F4FF4CFC801DF91CF911F910F91ED
:101B7000FF90EF90DF90CF9008958091E30690E082
:101B80002091E406821B910908952091E40680913A
:101B9000E306281750F4E22FF0E0EB51F94F808173
:101BA00090E02F5F2093E40608958FEF9FEF089554
:101BB000E091E4068091E306E81730F4F0E0EB51A1
:101BC000F94F808190E008958FEF9FEF0895089579
:101BD000E091BC06F091BD063097E1F03091E4064B
:101BE0002091E3063217B0F040E0242F30E02617B2
:101BF000370754F4DC01A20FB31F5C91D901AB513C
:101C0000B94F5C934F5FF1CF1092E4066093E30607
:101C1000CB0109940895E091BE06F091BF0630977C
:101C200029F01092C2061092C10609940895CF922D
:101C3000DF92EF92FF920F931F93CF93DF937C017C
:101C4000CB018A012091C006222389F0EB016B01B0
:101C5000C40ED51ECC15DD0569F06991D701ED9153
:101C6000FC910190F081E02DC7010995F3CF642F1D
:101C70000E94FB0EC801DF91CF911F910F91FF9041
:101C8000EF90DF90CF900895CF93DF931F92CDB761
:101C9000DEB769832091C0062223D1F02091C106CE
:101CA000203240F021E030E0FC013383228380E0E9
:101CB00090E015C08091C206E82FF0E0ED53F94F97
:101CC000998190838F5F8093C2068093C10605C07F
:101CD00061E0CE0101960E94FB0E81E090E00F9042
:101CE000DF91CF910895FC011382128248EE53E0F8
:101CF00060E070E0448355836683778388EA92E0EE
:101D00009183808308951092E4061092E306109266
:101D1000C2061092C1060C94D90ECF93DF93EC014A
:101D2000862F0E94F70E8BE09EE00E94190F88EE2E
:101D30009DE00E94140FCE01DF91CF910C94830E91
:101D40000C948D0E7093BD066093BC06089580EBD5
:101D500096E00C94730ECF92DF92EF92FF920F9366
:101D60001F93CF93DF938C01EB01688179818A8186
:101D70009B8120E03AEC4AE95BE30E94FA12F80109
:101D8000C080D180E280F380C20ED31EE41EF51E17
:101D9000C082D182E282F382688379838A839B83C3
:101DA000DF91CF911F910F91FF90EF90DF90CF9037
:101DB00008951092720781E08093700710926F0768
:101DC00061E082E10E94841061E083E10E9484105E
:101DD000E9EBF0E080818E7F808380818D7F80833E
:101DE00088E48093B80085E48093BC000895880F50
:101DF0008093BA000895613298F4209172072430DC
:101E000089F460932707FC0189E297E0DC012A2F1F
:101E1000281B261718F421912D93F9CF80E00895FF
:101E200081E0089582E0089590936C0780936B079A
:101E3000089590936E0780936D07089585ED8093C4
:101E4000BC008091BC0084FDFCCF10927207089505
:101E500085EC8093BC001092720708951F920F9238
:101E60000FB60F9211242F933F934F935F936F936D
:101E70007F938F939F93AF93BF93EF93FF93809143
:101E8000B900887F803609F49CC068F5883209F46F
:101E90005BC090F4803109F454C038F4882309F40D
:101EA000F5C0883009F44DC0F5C0883109F44CC044
:101EB000803209F45DC0EEC0803409F468C048F493
:101EC000803309F455C0883309F0E4C080930507D6
:101ED000A8C0803509F44FC0883509F45DC0883446
:101EE00009F0D8C0D5C0883909F4C6C0A8F488372D
:101EF00009F467C038F4883609F463C0803709F400
:101F000060C0C8C0883809F4B7C0803909F45FC020
:101F1000803809F0BFC05BC0803B09F485C038F44D
:101F2000803A09F466C0883A09F47EC0B3C0803CA8
:101F300009F4A6C0883C09F4A3C0883B09F489C011
:101F4000A9C08091710710C090914A0780914907FC
:101F5000981770F5E0914A0781E08E0F80934A0749
:101F6000F0E0E55BF84F80818093BB0085EC85C095
:101F7000809305078DC0E0914A0781E08E0F809322
:101F80004A078091BB00F0E0E55BF84F80839091B9
:101F90004A07809149076DC0E0914A0781E08E0FA2
:101FA00080934A078091BB00F0E0E55BF84F8083A7
:101FB0008091700781116CC081E080936F0784EA83
:101FC00060C083E08093720710920607CFCF8091A4
:101FD0000607803208F050C0E091060781E08E0FBE
:101FE000809306078091BB00F0E0E95FF84F8083A3
:101FF000BDCF80910607803230F4E0910607F0E013
:10200000E95FF84F10820E941E0F6091060770E092
:10201000E0916B07F0916C0787E097E009951092CB
:1020200006070E94280F36C084E080937207109242
:10203000280710922707E0916D07F0916E07099528
:1020400080912707811105C081E0809327071092B6
:102050002907E091280781E08E0F80932807F0E0A0
:10206000E75DF84F80818093BB00909128078091B5
:102070002707981708F47ACF85E88093BC000AC038
:1020800085EC8093BC001092720704C01092050783
:102090000E941E0FFF91EF91BF91AF919F918F9181
:1020A0007F916F915F914F913F912F910F900FBE54
:1020B0000F901F901895833081F028F4813099F0AB
:1020C0008230A1F008958630A9F08730B9F08430CD
:1020D000D1F4809180008F7D03C0809180008F7744
:1020E00080938000089584B58F7702C084B58F7D7A
:1020F00084BD08958091B0008F7703C08091B000B7
:102100008F7D8093B00008950F931F93CF93DF933B
:102110001F92CDB7DEB7282F30E0F901E859FF4F05
:102120008491F901E458FF4F1491F901E057FF4FF2
:1021300004910023C9F0882321F069830E945B1079
:102140006981E02FF0E0EE0FFF1FEC55FF4FA591E6
:10215000B4919FB7F8948C91611103C010958123BD
:1021600001C0812B8C939FBF0F90DF91CF911F9166
:102170000F910895CF93DF938230910510F482E0A0
:1021800090E0E0917507F091760720E030E0A0E064
:10219000B0E0309739F14081518148175907B8F0C4
:1021A0004817590771F482819381109729F013968B
:1021B0009C938E9312972CC090937607809375070B
:1021C00027C02115310531F04217530718F0A90136
:1021D000DB0101C0EF019A01BD01DF010280F38143
:1021E000E02DD7CF21153105F9F0281B390B24300C
:1021F000310580F48A819B816115710521F0FB0115
:102200009383828304C09093760780937507FE01C1
:10221000329644C0FE01E20FF31F81939193225046
:102220003109398328833AC02091730730917407AC
:10223000232B41F420910201309103013093740764
:102240002093730720910001309101012115310580
:1022500041F42DB73EB74091040150910501241B74
:10226000350BE0917307F0917407E217F307A0F4C0
:102270002E1B3F0B2817390778F0AC014E5F5F4FDC
:102280002417350748F04E0F5F1F50937407409393
:1022900073078193919302C0E0E0F0E0CF01DF91FA
:1022A000CF910895CF93DF93009709F487C0FC0185
:1022B000329713821282C0917507D09176072097CA
:1022C00081F420813181280F391F8091730790910B
:1022D00074078217930779F5F0937407E0937307F7
:1022E0006DC0DE0120E030E0AE17BF0750F412965B
:1022F0004D915C9113979D014115510509F1DA014A
:10230000F3CFB383A28340815181840F951F8A1735
:102310009B0771F48D919C911197840F951F0296E4
:102320009183808312968D919C91139793838283DE
:102330002115310529F4F0937607E09375073EC027
:10234000D9011396FC93EE9312974D915D91A40FD2
:10235000B51FEA17FB0779F480819181840F951FDF
:102360000296D90111969C938E9382819381139644
:102370009C938E931297E0E0F0E08A819B81009716
:1023800019F0FE01EC01F9CFCE01029628813981C6
:10239000820F931F20917307309174072817390714
:1023A00069F4309729F4109276071092750702C0ED
:1023B00013821282D0937407C0937307DF91CF9179
:1023C0000895A0E0B0E0E7EEF1E10C942013EC01F9
:1023D000CB01209719F40E94BA10B8C0FE01E60F95
:1023E000F71F9E0122503109E217F30708F4ACC031
:1023F000D9010D911C91119706171707B8F00530F8
:10240000110508F49FC0A801445051094617570709
:1024100008F498C002501109061B170B0193119381
:102420006D937C93CF010E9452118CC05B01A01A66
:10243000B10A4E01800E911EA0917507B0917607EA
:10244000612C712C60E070E0109709F449C0A81568
:10245000B905C9F5ED90FC901197670142E0C40EF3
:10246000D11CCA14DB0478F147018A189B08640167
:1024700042E0C40ED11C1296BC9012971396AC91F8
:10248000B5E0CB16D10440F0B282A3839182808262
:10249000D9018D939C9309C00E5F1F4F0E0D1F1D18
:1024A000F90111830083EB2DFA2F6115710531F0CD
:1024B000DB011396FC93EE93129744C0F0937607DA
:1024C000E09375073FC06D917C9111976616770672
:1024D00008F43B01BD0112960D90BC91A02DB4CF24
:1024E000609173077091740768157905E9F46816AF
:1024F0007906D0F440910001509101014115510538
:1025000041F44DB75EB76091040170910501461B1F
:10251000570BE417F507C0F4F0937407E0937307C3
:10252000F901918380830EC00E94BA107C0100974C
:1025300059F0A801BE010E94AE12CE010E945211B4
:10254000C70104C0CE0102C080E090E0CDB7DEB785
:10255000EEE00C943C13F8940C946813FB01DC013E
:1025600002C001900D9241505040D8F708950E944A
:102570005313A59F900DB49F900DA49F800D911DA6
:1025800011240895DB018F939F930E94B712BF918E
:10259000AF91A29F800D911DA39F900DB29F900DB2
:1025A00011240895AA1BBB1B51E107C0AA1FBB1F22
:1025B000A617B70710F0A61BB70B881F991F5A95CF
:1025C000A9F780959095BC01CD01089597FB072E42
:1025D00016F4009407D077FD09D00E94D21207FCB0
:1025E00005D03EF4909581959F4F08957095619523
:1025F0007F4F0895A1E21A2EAA1BBB1BFD010DC03F
:10260000AA1FBB1FEE1FFF1FA217B307E407F507A2
:1026100020F0A21BB30BE40BF50B661F771F881F7E
:10262000991F1A9469F760957095809590959B0114
:10263000AC01BD01CF0108952F923F924F925F925E
:102640006F927F928F929F92AF92BF92CF92DF92C2
:10265000EF92FF920F931F93CF93DF93CDB7DEB727
:10266000CA1BDB0B0FB6F894DEBF0FBECDBF0994BB
:102670002A88398848885F846E847D848C849B8412
:10268000AA84B984C884DF80EE80FD800C811B8120
:10269000AA81B981CE0FD11D0FB6F894DEBF0FBE4F
:1026A000CDBFED010895A29FB001B39FC001A39FCC
:1026B000700D811D1124911DB29F700D811D11247B
:1026C000911D0895EE0FFF1F0590F491E02D0994E0
:0426D000F894FFCFAC
:1026D4000000770720007374645F6D7367732F5471
:1026E400696D650063643731363663373463353575
:1026F40032633331316662636332666535613762F2
:102704006332383900726F7373657269616C5F6D1F
:102714007367732F546F706963496E666F0030611D
:102724006435316638386663343438393266386330
:10273400313036383430373736343630303500724D
:102744006F7373657269616C5F6D7367732F4C6F20
:102754006700313161626437333163323539333381
:10276400323631636436313833626431326436323E
:10277400393500396630653938626461363539383F
:1027840031393836646466353361666137613430B3
:10279400653439007374645F6D7367732F53747297
:1027A400696E6700393932636538613136383763A9
:1027B400656338633862643838336563373363611B
:1027C40034316431004D6573736167652066726FDF
:1027D4006D206465766963652064726F70706564EA
:1027E4003A206D657373616765206C617267657209
:1027F400207468616E206275666665722E0067706B
:102804007300726F7373657269616C5F6D73677364
:102814002F52657175657374506172616D000000AB
:1028240000008400A600EC00EF0000000000670236
:10283400F200CA01CD0100000000EF02D001140231
:102844001702000000001B03EC031A021D02000023
:102854000000C50320025C025F02000000000E05B8
:10286400A007620200000000BB0B440D610B8E0B3D
:10287400730BB00B00000000440E170EBD0DC50D08
:04288400D80DE70D77
:00000001FF
